{
  "_format": "hh-sol-artifact-1",
  "contractName": "StarlayProtocolDataProvider",
  "sourceName": "contracts/misc/StarlayProtocolDataProvider.sol",
  "abi": [
    {
      "inputs": [
        {
          "internalType": "contract ILendingPoolAddressesProvider",
          "name": "addressesProvider",
          "type": "address"
        }
      ],
      "stateMutability": "nonpayable",
      "type": "constructor"
    },
    {
      "inputs": [],
      "name": "ADDRESSES_PROVIDER",
      "outputs": [
        {
          "internalType": "contract ILendingPoolAddressesProvider",
          "name": "",
          "type": "address"
        }
      ],
      "stateMutability": "view",
      "type": "function"
    },
    {
      "inputs": [],
      "name": "getAllLTokens",
      "outputs": [
        {
          "components": [
            {
              "internalType": "string",
              "name": "symbol",
              "type": "string"
            },
            {
              "internalType": "address",
              "name": "tokenAddress",
              "type": "address"
            }
          ],
          "internalType": "struct StarlayProtocolDataProvider.TokenData[]",
          "name": "",
          "type": "tuple[]"
        }
      ],
      "stateMutability": "view",
      "type": "function"
    },
    {
      "inputs": [],
      "name": "getAllReservesTokens",
      "outputs": [
        {
          "components": [
            {
              "internalType": "string",
              "name": "symbol",
              "type": "string"
            },
            {
              "internalType": "address",
              "name": "tokenAddress",
              "type": "address"
            }
          ],
          "internalType": "struct StarlayProtocolDataProvider.TokenData[]",
          "name": "",
          "type": "tuple[]"
        }
      ],
      "stateMutability": "view",
      "type": "function"
    },
    {
      "inputs": [
        {
          "internalType": "address",
          "name": "asset",
          "type": "address"
        }
      ],
      "name": "getReserveConfigurationData",
      "outputs": [
        {
          "internalType": "uint256",
          "name": "decimals",
          "type": "uint256"
        },
        {
          "internalType": "uint256",
          "name": "ltv",
          "type": "uint256"
        },
        {
          "internalType": "uint256",
          "name": "liquidationThreshold",
          "type": "uint256"
        },
        {
          "internalType": "uint256",
          "name": "liquidationBonus",
          "type": "uint256"
        },
        {
          "internalType": "uint256",
          "name": "reserveFactor",
          "type": "uint256"
        },
        {
          "internalType": "bool",
          "name": "usageAsCollateralEnabled",
          "type": "bool"
        },
        {
          "internalType": "bool",
          "name": "borrowingEnabled",
          "type": "bool"
        },
        {
          "internalType": "bool",
          "name": "stableBorrowRateEnabled",
          "type": "bool"
        },
        {
          "internalType": "bool",
          "name": "isActive",
          "type": "bool"
        },
        {
          "internalType": "bool",
          "name": "isFrozen",
          "type": "bool"
        }
      ],
      "stateMutability": "view",
      "type": "function"
    },
    {
      "inputs": [
        {
          "internalType": "address",
          "name": "asset",
          "type": "address"
        }
      ],
      "name": "getReserveData",
      "outputs": [
        {
          "internalType": "uint256",
          "name": "availableLiquidity",
          "type": "uint256"
        },
        {
          "internalType": "uint256",
          "name": "totalStableDebt",
          "type": "uint256"
        },
        {
          "internalType": "uint256",
          "name": "totalVariableDebt",
          "type": "uint256"
        },
        {
          "internalType": "uint256",
          "name": "liquidityRate",
          "type": "uint256"
        },
        {
          "internalType": "uint256",
          "name": "variableBorrowRate",
          "type": "uint256"
        },
        {
          "internalType": "uint256",
          "name": "stableBorrowRate",
          "type": "uint256"
        },
        {
          "internalType": "uint256",
          "name": "averageStableBorrowRate",
          "type": "uint256"
        },
        {
          "internalType": "uint256",
          "name": "liquidityIndex",
          "type": "uint256"
        },
        {
          "internalType": "uint256",
          "name": "variableBorrowIndex",
          "type": "uint256"
        },
        {
          "internalType": "uint40",
          "name": "lastUpdateTimestamp",
          "type": "uint40"
        }
      ],
      "stateMutability": "view",
      "type": "function"
    },
    {
      "inputs": [
        {
          "internalType": "address",
          "name": "asset",
          "type": "address"
        }
      ],
      "name": "getReserveTokensAddresses",
      "outputs": [
        {
          "internalType": "address",
          "name": "lTokenAddress",
          "type": "address"
        },
        {
          "internalType": "address",
          "name": "stableDebtTokenAddress",
          "type": "address"
        },
        {
          "internalType": "address",
          "name": "variableDebtTokenAddress",
          "type": "address"
        }
      ],
      "stateMutability": "view",
      "type": "function"
    },
    {
      "inputs": [
        {
          "internalType": "address",
          "name": "asset",
          "type": "address"
        },
        {
          "internalType": "address",
          "name": "user",
          "type": "address"
        }
      ],
      "name": "getUserReserveData",
      "outputs": [
        {
          "internalType": "uint256",
          "name": "currentLTokenBalance",
          "type": "uint256"
        },
        {
          "internalType": "uint256",
          "name": "currentStableDebt",
          "type": "uint256"
        },
        {
          "internalType": "uint256",
          "name": "currentVariableDebt",
          "type": "uint256"
        },
        {
          "internalType": "uint256",
          "name": "principalStableDebt",
          "type": "uint256"
        },
        {
          "internalType": "uint256",
          "name": "scaledVariableDebt",
          "type": "uint256"
        },
        {
          "internalType": "uint256",
          "name": "stableBorrowRate",
          "type": "uint256"
        },
        {
          "internalType": "uint256",
          "name": "liquidityRate",
          "type": "uint256"
        },
        {
          "internalType": "uint40",
          "name": "stableRateLastUpdated",
          "type": "uint40"
        },
        {
          "internalType": "bool",
          "name": "usageAsCollateralEnabled",
          "type": "bool"
        }
      ],
      "stateMutability": "view",
      "type": "function"
    }
  ],
  "bytecode": "0x60a060405234801561001057600080fd5b50604051611b6a380380611b6a83398101604081905261002f91610044565b60601b6001600160601b031916608052610072565b600060208284031215610055578081fd5b81516001600160a01b038116811461006b578182fd5b9392505050565b60805160601c611ab86100b26000398061015b528061019552806102ac52806107a75280610b2b5280610c7b5280610f7752806112475250611ab86000f3fe608060405234801561001057600080fd5b506004361061007d5760003560e01c80633e1501411161005b5780633e150141146100f1578063b316ff891461011a578063b518a5471461012f578063d2493b6c146101375761007d565b80630542975c1461008257806328dd2d01146100a057806335ea6a75146100c8575b600080fd5b61008a610159565b604051610097919061186a565b60405180910390f35b6100b36100ae36600461157c565b61017d565b604051610097999897969594939291906119cb565b6100db6100d636600461153d565b61078e565b6040516100979a9998979695949392919061197f565b6101046100ff36600461153d565b610b12565b6040516100979a99989796959493929190611930565b610122610c75565b60405161009791906118a1565b610122610f71565b61014a61014536600461153d565b611238565b6040516100979392919061187e565b7f000000000000000000000000000000000000000000000000000000000000000081565b600080600080600080600080600061019361143a565b7f00000000000000000000000000000000000000000000000000000000000000006001600160a01b0316630261bf8b6040518163ffffffff1660e01b815260040160206040518083038186803b1580156101ec57600080fd5b505afa158015610200573d6000803e3d6000fd5b505050506040513d601f19601f820116820180604052508101906102249190611560565b6001600160a01b03166335ea6a758d6040518263ffffffff1660e01b815260040161024f919061186a565b6101806040518083038186803b15801561026857600080fd5b505afa15801561027c573d6000803e3d6000fd5b505050506040513d601f19601f820116820180604052508101906102a09190611706565b90506102aa6114a5565b7f00000000000000000000000000000000000000000000000000000000000000006001600160a01b0316630261bf8b6040518163ffffffff1660e01b815260040160206040518083038186803b15801561030357600080fd5b505afa158015610317573d6000803e3d6000fd5b505050506040513d601f19601f8201168201806040525081019061033b9190611560565b6001600160a01b0316634417a5838d6040518263ffffffff1660e01b8152600401610366919061186a565b60206040518083038186803b15801561037e57600080fd5b505afa158015610392573d6000803e3d6000fd5b505050506040513d601f19601f820116820180604052508101906103b691906116eb565b60e08301516040516370a0823160e01b81529192506001600160a01b0316906370a08231906103e9908f9060040161186a565b60206040518083038186803b15801561040157600080fd5b505afa158015610415573d6000803e3d6000fd5b505050506040513d601f19601f820116820180604052508101906104399190611801565b6101208301516040516370a0823160e01b8152919c506001600160a01b0316906370a082319061046d908f9060040161186a565b60206040518083038186803b15801561048557600080fd5b505afa158015610499573d6000803e3d6000fd5b505050506040513d601f19601f820116820180604052508101906104bd9190611801565b6101008301516040516370a0823160e01b8152919a506001600160a01b0316906370a08231906104f1908f9060040161186a565b60206040518083038186803b15801561050957600080fd5b505afa15801561051d573d6000803e3d6000fd5b505050506040513d601f19601f820116820180604052508101906105419190611801565b61010083015160405163631a6fd560e11b8152919b506001600160a01b03169063c634dfaa90610575908f9060040161186a565b60206040518083038186803b15801561058d57600080fd5b505afa1580156105a1573d6000803e3d6000fd5b505050506040513d601f19601f820116820180604052508101906105c59190611801565b610120830151604051630ed1279f60e11b81529199506001600160a01b031690631da24f3e906105f9908f9060040161186a565b60206040518083038186803b15801561061157600080fd5b505afa158015610625573d6000803e3d6000fd5b505050506040513d601f19601f820116820180604052508101906106499190611801565b965081606001516001600160801b031694508161010001516001600160a01b031663e78c9b3b8d6040518263ffffffff1660e01b815260040161068c919061186a565b60206040518083038186803b1580156106a457600080fd5b505afa1580156106b8573d6000803e3d6000fd5b505050506040513d601f19601f820116820180604052508101906106dc9190611801565b610100830151604051631e739ae360e21b81529197506001600160a01b0316906379ce6b8c90610710908f9060040161186a565b60206040518083038186803b15801561072857600080fd5b505afa15801561073c573d6000803e3d6000fd5b505050506040513d601f19601f820116820180604052508101906107609190611819565b935061077d82610160015160ff168261137190919063ffffffff16565b925050509295985092959850929598565b6000806000806000806000806000806107a561143a565b7f00000000000000000000000000000000000000000000000000000000000000006001600160a01b0316630261bf8b6040518163ffffffff1660e01b815260040160206040518083038186803b1580156107fe57600080fd5b505afa158015610812573d6000803e3d6000fd5b505050506040513d601f19601f820116820180604052508101906108369190611560565b6001600160a01b03166335ea6a758d6040518263ffffffff1660e01b8152600401610861919061186a565b6101806040518083038186803b15801561087a57600080fd5b505afa15801561088e573d6000803e3d6000fd5b505050506040513d601f19601f820116820180604052508101906108b29190611706565b60e08101516040516370a0823160e01b81529192506001600160a01b038e16916370a08231916108e49160040161186a565b60206040518083038186803b1580156108fc57600080fd5b505afa158015610910573d6000803e3d6000fd5b505050506040513d601f19601f820116820180604052508101906109349190611801565b8161010001516001600160a01b03166318160ddd6040518163ffffffff1660e01b815260040160206040518083038186803b15801561097257600080fd5b505afa158015610986573d6000803e3d6000fd5b505050506040513d601f19601f820116820180604052508101906109aa9190611801565b8261012001516001600160a01b03166318160ddd6040518163ffffffff1660e01b815260040160206040518083038186803b1580156109e857600080fd5b505afa1580156109fc573d6000803e3d6000fd5b505050506040513d601f19601f82011682018060405250810190610a209190611801565b836060015184608001518560a001518661010001516001600160a01b03166390f6fcf26040518163ffffffff1660e01b815260040160206040518083038186803b158015610a6d57600080fd5b505afa158015610a81573d6000803e3d6000fd5b505050506040513d601f19601f82011682018060405250810190610aa59190611801565b876020015188604001518960c00151866001600160801b03169650856001600160801b03169550846001600160801b03169450826001600160801b03169250816001600160801b031691509a509a509a509a509a509a509a509a509a509a50509193959799509193959799565b600080600080600080600080600080610b296114a5565b7f00000000000000000000000000000000000000000000000000000000000000006001600160a01b0316630261bf8b6040518163ffffffff1660e01b815260040160206040518083038186803b158015610b8257600080fd5b505afa158015610b96573d6000803e3d6000fd5b505050506040513d601f19601f82011682018060405250810190610bba9190611560565b6001600160a01b031663c44b11f78d6040518263ffffffff1660e01b8152600401610be5919061186a565b60206040518083038186803b158015610bfd57600080fd5b505afa158015610c11573d6000803e3d6000fd5b505050506040513d601f19601f82011682018060405250810190610c3591906116eb565b9050610c40816113d3565b909e50929c50909a5098509650610c56816113fe565b9d9f9c9e509a9c999b989a8d15159a9099909850919650945092505050565b606060007f00000000000000000000000000000000000000000000000000000000000000006001600160a01b0316630261bf8b6040518163ffffffff1660e01b815260040160206040518083038186803b158015610cd257600080fd5b505afa158015610ce6573d6000803e3d6000fd5b505050506040513d601f19601f82011682018060405250810190610d0a9190611560565b90506060816001600160a01b031663d1946dbc6040518163ffffffff1660e01b815260040160006040518083038186803b158015610d4757600080fd5b505afa158015610d5b573d6000803e3d6000fd5b505050506040513d6000823e601f3d908101601f19168201604052610d8391908101906115b4565b90506060815167ffffffffffffffff81118015610d9f57600080fd5b50604051908082528060200260200182016040528015610dd957816020015b610dc66114b8565b815260200190600190039081610dbe5790505b50905060005b8251811015610f695773eeeeeeeeeeeeeeeeeeeeeeeeeeeeeeeeeeeeeeee6001600160a01b0316838281518110610e1257fe5b60200260200101516001600160a01b03161415610e915760405180604001604052806040518060400160405280600381526020016208aa8960eb1b8152508152602001848381518110610e6157fe5b60200260200101516001600160a01b0316815250828281518110610e8157fe5b6020026020010181905250610f61565b6040518060400160405280848381518110610ea857fe5b60200260200101516001600160a01b03166395d89b416040518163ffffffff1660e01b815260040160006040518083038186803b158015610ee857600080fd5b505afa158015610efc573d6000803e3d6000fd5b505050506040513d6000823e601f3d908101601f19168201604052610f24919081019061165f565b8152602001848381518110610f3557fe5b60200260200101516001600160a01b0316815250828281518110610f5557fe5b60200260200101819052505b600101610ddf565b509250505090565b606060007f00000000000000000000000000000000000000000000000000000000000000006001600160a01b0316630261bf8b6040518163ffffffff1660e01b815260040160206040518083038186803b158015610fce57600080fd5b505afa158015610fe2573d6000803e3d6000fd5b505050506040513d601f19601f820116820180604052508101906110069190611560565b90506060816001600160a01b031663d1946dbc6040518163ffffffff1660e01b815260040160006040518083038186803b15801561104357600080fd5b505afa158015611057573d6000803e3d6000fd5b505050506040513d6000823e601f3d908101601f1916820160405261107f91908101906115b4565b90506060815167ffffffffffffffff8111801561109b57600080fd5b506040519080825280602002602001820160405280156110d557816020015b6110c26114b8565b8152602001906001900390816110ba5790505b50905060005b8251811015610f69576110ec61143a565b846001600160a01b03166335ea6a7585848151811061110757fe5b60200260200101516040518263ffffffff1660e01b815260040161112b919061186a565b6101806040518083038186803b15801561114457600080fd5b505afa158015611158573d6000803e3d6000fd5b505050506040513d601f19601f8201168201806040525081019061117c9190611706565b905060405180604001604052808260e001516001600160a01b03166395d89b416040518163ffffffff1660e01b815260040160006040518083038186803b1580156111c657600080fd5b505afa1580156111da573d6000803e3d6000fd5b505050506040513d6000823e601f3d908101601f19168201604052611202919081019061165f565b81526020018260e001516001600160a01b031681525083838151811061122457fe5b6020908102919091010152506001016110db565b600080600061124561143a565b7f00000000000000000000000000000000000000000000000000000000000000006001600160a01b0316630261bf8b6040518163ffffffff1660e01b815260040160206040518083038186803b15801561129e57600080fd5b505afa1580156112b2573d6000803e3d6000fd5b505050506040513d601f19601f820116820180604052508101906112d69190611560565b6001600160a01b03166335ea6a75866040518263ffffffff1660e01b8152600401611301919061186a565b6101806040518083038186803b15801561131a57600080fd5b505afa15801561132e573d6000803e3d6000fd5b505050506040513d601f19601f820116820180604052508101906113529190611706565b60e0810151610100820151610120909201519097919650945092505050565b60006080821060405180604001604052806002815260200161373760f01b815250906113b95760405162461bcd60e51b81526004016113b0919061191d565b60405180910390fd5b5050815160016002830281019190911c1615155b92915050565b5161ffff80821692601083901c821692602081901c831692603082901c60ff169260409290921c1690565b51670100000000000000811615159167020000000000000082161515916704000000000000008116151591670800000000000000909116151590565b60405180610180016040528061144e6114a5565b815260006020820181905260408201819052606082018190526080820181905260a0820181905260c0820181905260e082018190526101008201819052610120820181905261014082018190526101609091015290565b6040518060200160405280600081525090565b60408051808201909152606081526000602082015290565b80516113cd81611a6a565b6000602082840312156114ec578081fd5b6114f66020611a13565b9151825250919050565b80516001600160801b03811681146113cd57600080fd5b805164ffffffffff811681146113cd57600080fd5b805160ff811681146113cd57600080fd5b60006020828403121561154e578081fd5b813561155981611a6a565b9392505050565b600060208284031215611571578081fd5b815161155981611a6a565b6000806040838503121561158e578081fd5b823561159981611a6a565b915060208301356115a981611a6a565b809150509250929050565b600060208083850312156115c6578182fd5b825167ffffffffffffffff808211156115dd578384fd5b818501915085601f8301126115f0578384fd5b8151818111156115fe578485fd5b838102915061160e848301611a13565b8181528481019084860184860187018a1015611628578788fd5b8795505b838610156116525761163e8a826114d0565b83526001959095019491860191860161162c565b5098975050505050505050565b600060208284031215611670578081fd5b815167ffffffffffffffff80821115611687578283fd5b818401915084601f83011261169a578283fd5b8151818111156116a8578384fd5b6116bb601f8201601f1916602001611a13565b91508082528560208285010111156116d1578384fd5b6116e2816020840160208601611a3a565b50949350505050565b6000602082840312156116fc578081fd5b61155983836114db565b6000610180808385031215611719578182fd5b61172281611a13565b905061172e84846114db565b815261173d8460208501611500565b602082015261174f8460408501611500565b60408201526117618460608501611500565b60608201526117738460808501611500565b60808201526117858460a08501611500565b60a08201526117978460c08501611517565b60c08201526117a98460e085016114d0565b60e08201526101006117bd858286016114d0565b908201526101206117d0858583016114d0565b908201526101406117e3858583016114d0565b908201526101606117f68585830161152c565b908201529392505050565b600060208284031215611812578081fd5b5051919050565b60006020828403121561182a578081fd5b815164ffffffffff81168114611559578182fd5b60008151808452611856816020860160208601611a3a565b601f01601f19169290920160200192915050565b6001600160a01b0391909116815260200190565b6001600160a01b0393841681529183166020830152909116604082015260600190565b60208082528251828201819052600091906040908185019080840286018301878501865b8381101561190f57888303603f19018552815180518785526118e98886018261183e565b918901516001600160a01b031694890194909452948701949250908601906001016118c5565b509098975050505050505050565b600060208252611559602083018461183e565b998a5260208a0198909852604089019690965260608801949094526080870192909252151560a0860152151560c0850152151560e0840152151561010083015215156101208201526101400190565b998a5260208a019890985260408901969096526060880194909452608087019290925260a086015260c085015260e084015261010083015264ffffffffff166101208201526101400190565b988952602089019790975260408801959095526060870193909352608086019190915260a085015260c084015264ffffffffff1660e083015215156101008201526101200190565b60405181810167ffffffffffffffff81118282101715611a3257600080fd5b604052919050565b60005b83811015611a55578181015183820152602001611a3d565b83811115611a64576000848401525b50505050565b6001600160a01b0381168114611a7f57600080fd5b5056fea2646970667358221220da3209e17bc87e3227832c9aed62ceb9920f4e8442a3109bc92d1708da7e68ad64736f6c634300060c0033",
  "linkReferences": {},
  "deployedLinkReferences": {}
}