{
  "_format": "hh-sol-artifact-1",
  "contractName": "StarlayFallbackOracle",
  "sourceName": "contracts/misc/StarlayFallbackOracle.sol",
  "abi": [
    {
      "anonymous": false,
      "inputs": [
        {
          "indexed": true,
          "internalType": "address",
          "name": "previousOwner",
          "type": "address"
        },
        {
          "indexed": true,
          "internalType": "address",
          "name": "newOwner",
          "type": "address"
        }
      ],
      "name": "OwnershipTransferred",
      "type": "event"
    },
    {
      "anonymous": false,
      "inputs": [
        {
          "indexed": false,
          "internalType": "address",
          "name": "sybil",
          "type": "address"
        },
        {
          "indexed": false,
          "internalType": "address[]",
          "name": "assets",
          "type": "address[]"
        },
        {
          "indexed": false,
          "internalType": "uint128[]",
          "name": "prices",
          "type": "uint128[]"
        }
      ],
      "name": "PricesSubmitted",
      "type": "event"
    },
    {
      "anonymous": false,
      "inputs": [
        {
          "indexed": true,
          "internalType": "address",
          "name": "sybil",
          "type": "address"
        }
      ],
      "name": "SybilAuthorized",
      "type": "event"
    },
    {
      "anonymous": false,
      "inputs": [
        {
          "indexed": true,
          "internalType": "address",
          "name": "sybil",
          "type": "address"
        }
      ],
      "name": "SybilUnauthorized",
      "type": "event"
    },
    {
      "inputs": [],
      "name": "PERCENTAGE_BASE",
      "outputs": [
        {
          "internalType": "uint256",
          "name": "",
          "type": "uint256"
        }
      ],
      "stateMutability": "view",
      "type": "function"
    },
    {
      "inputs": [
        {
          "internalType": "address",
          "name": "sybil",
          "type": "address"
        }
      ],
      "name": "authorizeSybil",
      "outputs": [],
      "stateMutability": "nonpayable",
      "type": "function"
    },
    {
      "inputs": [
        {
          "internalType": "uint256",
          "name": "deviation",
          "type": "uint256"
        },
        {
          "internalType": "address[]",
          "name": "assets",
          "type": "address[]"
        },
        {
          "internalType": "uint256[]",
          "name": "candidatePrices",
          "type": "uint256[]"
        }
      ],
      "name": "filterCandidatePricesByDeviation",
      "outputs": [
        {
          "internalType": "address[]",
          "name": "",
          "type": "address[]"
        },
        {
          "internalType": "uint256[]",
          "name": "",
          "type": "uint256[]"
        }
      ],
      "stateMutability": "view",
      "type": "function"
    },
    {
      "inputs": [
        {
          "internalType": "address",
          "name": "asset",
          "type": "address"
        }
      ],
      "name": "getAssetPrice",
      "outputs": [
        {
          "internalType": "uint256",
          "name": "",
          "type": "uint256"
        }
      ],
      "stateMutability": "view",
      "type": "function"
    },
    {
      "inputs": [
        {
          "internalType": "address[]",
          "name": "assets",
          "type": "address[]"
        }
      ],
      "name": "getPricesData",
      "outputs": [
        {
          "components": [
            {
              "internalType": "uint64",
              "name": "blockNumber",
              "type": "uint64"
            },
            {
              "internalType": "uint64",
              "name": "blockTimestamp",
              "type": "uint64"
            },
            {
              "internalType": "uint128",
              "name": "price",
              "type": "uint128"
            }
          ],
          "internalType": "struct StarlayFallbackOracle.Price[]",
          "name": "",
          "type": "tuple[]"
        }
      ],
      "stateMutability": "view",
      "type": "function"
    },
    {
      "inputs": [
        {
          "internalType": "address",
          "name": "sybil",
          "type": "address"
        }
      ],
      "name": "isSybilWhitelisted",
      "outputs": [
        {
          "internalType": "bool",
          "name": "",
          "type": "bool"
        }
      ],
      "stateMutability": "view",
      "type": "function"
    },
    {
      "inputs": [],
      "name": "owner",
      "outputs": [
        {
          "internalType": "address",
          "name": "",
          "type": "address"
        }
      ],
      "stateMutability": "view",
      "type": "function"
    },
    {
      "inputs": [],
      "name": "renounceOwnership",
      "outputs": [],
      "stateMutability": "nonpayable",
      "type": "function"
    },
    {
      "inputs": [
        {
          "internalType": "address[]",
          "name": "assets",
          "type": "address[]"
        },
        {
          "internalType": "uint128[]",
          "name": "prices",
          "type": "uint128[]"
        }
      ],
      "name": "submitPrices",
      "outputs": [],
      "stateMutability": "nonpayable",
      "type": "function"
    },
    {
      "inputs": [
        {
          "internalType": "address",
          "name": "newOwner",
          "type": "address"
        }
      ],
      "name": "transferOwnership",
      "outputs": [],
      "stateMutability": "nonpayable",
      "type": "function"
    },
    {
      "inputs": [
        {
          "internalType": "address",
          "name": "sybil",
          "type": "address"
        }
      ],
      "name": "unauthorizeSybil",
      "outputs": [],
      "stateMutability": "nonpayable",
      "type": "function"
    }
  ],
  "bytecode": "0x608060405234801561001057600080fd5b50600061001b61006a565b600080546001600160a01b0319166001600160a01b0383169081178255604051929350917f8be0079c531659141344cd1fd0a4f28419497f9722a3daafe3b4186f6b6457e0908290a35061006e565b3390565b61114c8061007d6000396000f3fe608060405234801561001057600080fd5b50600436106100a95760003560e01c8063715018a611610071578063715018a61461014057806387c13943146101485780638da5cb5b1461015d578063b3596f0714610172578063f2be88cd14610185578063f2fde38b14610198576100a9565b80630e5665e6146100ae57806330d454f0146100c357806342136b08146100ec5780635e91734c1461010c5780635f1e09d91461011f575b600080fd5b6100c16100bc366004610c58565b6101ab565b005b6100d66100d1366004610bfe565b61032d565b6040516100e39190610f49565b60405180910390f35b6100ff6100fa366004610c19565b61034b565b6040516100e39190610edb565b6100c161011a366004610bfe565b610453565b61013261012d366004610ce7565b6104d4565b6040516100e3929190610e4d565b6100c1610813565b610150610892565b6040516100e391906110f8565b610165610898565b6040516100e39190610d90565b610150610180366004610bfe565b6108a7565b6100c1610193366004610bfe565b6108d2565b6100c16101a6366004610bfe565b610950565b6101b433610a06565b8281146101dc5760405162461bcd60e51b81526004016101d3906110c1565b60405180910390fd5b60005b838110156102e7576040518060600160405280436001600160401b03168152602001426001600160401b0316815260200184848481811061021c57fe5b90506020020160208101906102319190610cc0565b6001600160801b031690526001600087878581811061024c57fe5b90506020020160208101906102619190610bfe565b6001600160a01b0316815260208082019290925260409081016000208351815493850151949092015167ffffffffffffffff199093166001600160401b03928316176fffffffffffffffff00000000000000001916600160401b9290941691909102929092176001600160801b03908116600160801b91909216021790556001016101df565b507f995dd01082df56f242aad7e0a6f87116e5d4c972ab8377309354fa2bd0de3e59338585858560405161031f959493929190610da4565b60405180910390a150505050565b6001600160a01b031660009081526002602052604090205460ff1690565b606080826001600160401b038111801561036457600080fd5b5060405190808252806020026020018201604052801561039e57816020015b61038b610b7f565b8152602001906001900390816103835790505b50905060005b8381101561044957600160008686848181106103bc57fe5b90506020020160208101906103d19190610bfe565b6001600160a01b031681526020808201929092526040908101600020815160608101835290546001600160401b038082168352600160401b82041693820193909352600160801b9092046001600160801b031690820152825183908390811061043657fe5b60209081029190910101526001016103a4565b5090505b92915050565b61045b610a2e565b6000546001600160a01b039081169116146104885760405162461bcd60e51b81526004016101d39061108c565b6001600160a01b038116600081815260026020526040808220805460ff19166001179055517fe7d975a644451bd7331add56a59563e5d19b661497948c38d25b9694874706739190a250565b6060808483146104f65760405162461bcd60e51b81526004016101d3906110c1565b6060856001600160401b038111801561050e57600080fd5b50604051908082528060200260200182016040528015610538578160200160208202803683370190505b5090506060866001600160401b038111801561055357600080fd5b5060405190808252806020026020018201604052801561057d578160200160208202803683370190505b5090506000805b888110156106f8576000600160008c8c8581811061059e57fe5b90506020020160208101906105b39190610bfe565b6001600160a01b03166001600160a01b0316815260200190815260200160002060000160109054906101000a90046001600160801b0316905061063161271061062b61060a8f612710610a3290919063ffffffff16565b8c8c8781811061061657fe5b90506020020135610a5e90919063ffffffff16565b90610a98565b816001600160801b0316118061066c575061066061271061062b61060a8f612710610ada90919063ffffffff16565b816001600160801b0316105b156106ef578a8a8381811061067d57fe5b90506020020160208101906106929190610bfe565b85848151811061069e57fe5b60200260200101906001600160a01b031690816001600160a01b0316815250508888838181106106ca57fe5b905060200201358484815181106106dd57fe5b60209081029190910101526001909201915b50600101610584565b506060816001600160401b038111801561071157600080fd5b5060405190808252806020026020018201604052801561073b578160200160208202803683370190505b5090506060826001600160401b038111801561075657600080fd5b50604051908082528060200260200182016040528015610780578160200160208202803683370190505b50905060005b838110156108015785818151811061079a57fe5b60200260200101518382815181106107ae57fe5b60200260200101906001600160a01b031690816001600160a01b0316815250508481815181106107da57fe5b60200260200101518282815181106107ee57fe5b6020908102919091010152600101610786565b50909b909a5098505050505050505050565b61081b610a2e565b6000546001600160a01b039081169116146108485760405162461bcd60e51b81526004016101d39061108c565b600080546040516001600160a01b03909116907f8be0079c531659141344cd1fd0a4f28419497f9722a3daafe3b4186f6b6457e0908390a3600080546001600160a01b0319169055565b61271081565b6000546001600160a01b031690565b6001600160a01b0316600090815260016020526040902054600160801b90046001600160801b031690565b6108da610a2e565b6000546001600160a01b039081169116146109075760405162461bcd60e51b81526004016101d39061108c565b6001600160a01b038116600081815260026020526040808220805460ff19169055517f8bde64628aa5dae6d1c378a97b785745a4db9beaa7d503f91a8274c7b58d2f019190a250565b610958610a2e565b6000546001600160a01b039081169116146109855760405162461bcd60e51b81526004016101d39061108c565b6001600160a01b0381166109ab5760405162461bcd60e51b81526004016101d390610fa7565b600080546040516001600160a01b03808516939216917f8be0079c531659141344cd1fd0a4f28419497f9722a3daafe3b4186f6b6457e091a3600080546001600160a01b0319166001600160a01b0392909216919091179055565b610a0f8161032d565b610a2b5760405162461bcd60e51b81526004016101d390611024565b50565b3390565b600082820183811015610a575760405162461bcd60e51b81526004016101d390610fed565b9392505050565b600082610a6d5750600061044d565b82820282848281610a7a57fe5b0414610a575760405162461bcd60e51b81526004016101d39061104b565b6000610a5783836040518060400160405280601a81526020017f536166654d6174683a206469766973696f6e206279207a65726f000000000000815250610b1c565b6000610a5783836040518060400160405280601e81526020017f536166654d6174683a207375627472616374696f6e206f766572666c6f770000815250610b53565b60008183610b3d5760405162461bcd60e51b81526004016101d39190610f54565b506000838581610b4957fe5b0495945050505050565b60008184841115610b775760405162461bcd60e51b81526004016101d39190610f54565b505050900390565b604080516060810182526000808252602082018190529181019190915290565b80356001600160a01b038116811461044d57600080fd5b60008083601f840112610bc7578182fd5b5081356001600160401b03811115610bdd578182fd5b6020830191508360208083028501011115610bf757600080fd5b9250929050565b600060208284031215610c0f578081fd5b610a578383610b9f565b60008060208385031215610c2b578081fd5b82356001600160401b03811115610c40578182fd5b610c4c85828601610bb6565b90969095509350505050565b60008060008060408587031215610c6d578182fd5b84356001600160401b0380821115610c83578384fd5b610c8f88838901610bb6565b90965094506020870135915080821115610ca7578384fd5b50610cb487828801610bb6565b95989497509550505050565b600060208284031215610cd1578081fd5b81356001600160801b0381168114610a57578182fd5b600080600080600060608688031215610cfe578081fd5b8535945060208601356001600160401b0380821115610d1b578283fd5b610d2789838a01610bb6565b90965094506040880135915080821115610d3f578283fd5b50610d4c88828901610bb6565b969995985093965092949392505050565b6001600160a01b0316815260200190565b815260200190565b6001600160a01b03169052565b6001600160801b03169052565b6001600160a01b0391909116815260200190565b6001600160a01b03861681526060602080830182905260009183019081610dcb88826110f8565b9050889250835b88811015610dfd57828401610df083610deb8388610b9f565b610d5d565b9094509150600101610dd2565b5084810360408601528581528101915085835b86811015610e3e578135610e2381611101565b610e2d8582610d83565b509282019290820190600101610e10565b50919998505050505050505050565b604080825283519082018190526000906020906060840190828701845b82811015610e8d57610e7d848351610d76565b9284019290840190600101610e6a565b50505083810382850152808551610ea481846110f8565b91508387019250845b81811015610ece57610ec0838551610d6e565b938501939250600101610ead565b5090979650505050505050565b602080825282518282018190526000919060409081850190868401855b82811015610f3c57815180516001600160401b0390811686528782015116878601528501516001600160801b03168585015260609093019290850190600101610ef8565b5091979650505050505050565b901515815260200190565b6000602080835283518082850152825b81811015610f8057858101830151858201604001528201610f64565b81811115610f915783604083870101525b50601f01601f1916929092016040019392505050565b60208082526026908201527f4f776e61626c653a206e6577206f776e657220697320746865207a65726f206160408201526564647265737360d01b606082015260800190565b6020808252601b908201527f536166654d6174683a206164646974696f6e206f766572666c6f770000000000604082015260600190565b6020808252600d908201526c1253959053125117d4d6509253609a1b604082015260600190565b60208082526021908201527f536166654d6174683a206d756c7469706c69636174696f6e206f766572666c6f6040820152607760f81b606082015260800190565b6020808252818101527f4f776e61626c653a2063616c6c6572206973206e6f7420746865206f776e6572604082015260600190565b6020808252601a908201527f494e434f4e53495354454e545f504152414d535f4c454e475448000000000000604082015260600190565b90815260200190565b6001600160801b0381168114610a2b57600080fdfea2646970667358221220ff354e419b5f2056bf0c10febae7b79e161f5d0582e9d135b9d4d0ace6249e1264736f6c634300060c0033",
  "linkReferences": {},
  "deployedLinkReferences": {}
}