{
  "_format": "hh-sol-artifact-1",
  "contractName": "UiPoolDataProviderV2",
  "sourceName": "contracts/misc/UiPoolDataProviderV2.sol",
  "abi": [
    {
      "inputs": [
        {
          "internalType": "contract IPriceAggregatorAdapter",
          "name": "_networkBaseTokenPriceInUsdProxyAggregatorAdapter",
          "type": "address"
        },
        {
          "internalType": "address",
          "name": "_baseTokenAddress",
          "type": "address"
        }
      ],
      "stateMutability": "nonpayable",
      "type": "constructor"
    },
    {
      "inputs": [],
      "name": "ETH_CURRENCY_UNIT",
      "outputs": [
        {
          "internalType": "uint256",
          "name": "",
          "type": "uint256"
        }
      ],
      "stateMutability": "view",
      "type": "function"
    },
    {
      "inputs": [],
      "name": "baseTokenAddress",
      "outputs": [
        {
          "internalType": "address",
          "name": "",
          "type": "address"
        }
      ],
      "stateMutability": "view",
      "type": "function"
    },
    {
      "inputs": [
        {
          "internalType": "bytes32",
          "name": "_bytes32",
          "type": "bytes32"
        }
      ],
      "name": "bytes32ToString",
      "outputs": [
        {
          "internalType": "string",
          "name": "",
          "type": "string"
        }
      ],
      "stateMutability": "pure",
      "type": "function"
    },
    {
      "inputs": [
        {
          "internalType": "contract ILendingPoolAddressesProvider",
          "name": "provider",
          "type": "address"
        },
        {
          "internalType": "address",
          "name": "reserve",
          "type": "address"
        }
      ],
      "name": "getFlagsMemory",
      "outputs": [
        {
          "components": [
            {
              "internalType": "address",
              "name": "underlyingAsset",
              "type": "address"
            },
            {
              "internalType": "string",
              "name": "name",
              "type": "string"
            },
            {
              "internalType": "string",
              "name": "symbol",
              "type": "string"
            },
            {
              "internalType": "uint256",
              "name": "decimals",
              "type": "uint256"
            },
            {
              "internalType": "uint256",
              "name": "baseLTVasCollateral",
              "type": "uint256"
            },
            {
              "internalType": "uint256",
              "name": "reserveLiquidationThreshold",
              "type": "uint256"
            },
            {
              "internalType": "uint256",
              "name": "reserveLiquidationBonus",
              "type": "uint256"
            },
            {
              "internalType": "uint256",
              "name": "reserveFactor",
              "type": "uint256"
            },
            {
              "internalType": "bool",
              "name": "usageAsCollateralEnabled",
              "type": "bool"
            },
            {
              "internalType": "bool",
              "name": "borrowingEnabled",
              "type": "bool"
            },
            {
              "internalType": "bool",
              "name": "stableBorrowRateEnabled",
              "type": "bool"
            },
            {
              "internalType": "bool",
              "name": "isActive",
              "type": "bool"
            },
            {
              "internalType": "bool",
              "name": "isFrozen",
              "type": "bool"
            },
            {
              "internalType": "uint128",
              "name": "liquidityIndex",
              "type": "uint128"
            },
            {
              "internalType": "uint128",
              "name": "variableBorrowIndex",
              "type": "uint128"
            },
            {
              "internalType": "uint128",
              "name": "liquidityRate",
              "type": "uint128"
            },
            {
              "internalType": "uint128",
              "name": "variableBorrowRate",
              "type": "uint128"
            },
            {
              "internalType": "uint128",
              "name": "stableBorrowRate",
              "type": "uint128"
            },
            {
              "internalType": "uint40",
              "name": "lastUpdateTimestamp",
              "type": "uint40"
            },
            {
              "internalType": "address",
              "name": "lTokenAddress",
              "type": "address"
            },
            {
              "internalType": "address",
              "name": "stableDebtTokenAddress",
              "type": "address"
            },
            {
              "internalType": "address",
              "name": "variableDebtTokenAddress",
              "type": "address"
            },
            {
              "internalType": "address",
              "name": "interestRateStrategyAddress",
              "type": "address"
            },
            {
              "internalType": "uint256",
              "name": "availableLiquidity",
              "type": "uint256"
            },
            {
              "internalType": "uint256",
              "name": "totalPrincipalStableDebt",
              "type": "uint256"
            },
            {
              "internalType": "uint256",
              "name": "averageStableRate",
              "type": "uint256"
            },
            {
              "internalType": "uint256",
              "name": "stableDebtLastUpdateTimestamp",
              "type": "uint256"
            },
            {
              "internalType": "uint256",
              "name": "totalScaledVariableDebt",
              "type": "uint256"
            },
            {
              "internalType": "uint256",
              "name": "priceInMarketReferenceCurrency",
              "type": "uint256"
            },
            {
              "internalType": "uint256",
              "name": "variableRateSlope1",
              "type": "uint256"
            },
            {
              "internalType": "uint256",
              "name": "variableRateSlope2",
              "type": "uint256"
            },
            {
              "internalType": "uint256",
              "name": "stableRateSlope1",
              "type": "uint256"
            },
            {
              "internalType": "uint256",
              "name": "stableRateSlope2",
              "type": "uint256"
            }
          ],
          "internalType": "struct IUiPoolDataProviderV2.AggregatedReserveData",
          "name": "",
          "type": "tuple"
        }
      ],
      "stateMutability": "view",
      "type": "function"
    },
    {
      "inputs": [
        {
          "internalType": "contract ILendingPoolAddressesProvider",
          "name": "provider",
          "type": "address"
        },
        {
          "internalType": "address",
          "name": "reserve",
          "type": "address"
        }
      ],
      "name": "getParamsMemory",
      "outputs": [
        {
          "components": [
            {
              "internalType": "address",
              "name": "underlyingAsset",
              "type": "address"
            },
            {
              "internalType": "string",
              "name": "name",
              "type": "string"
            },
            {
              "internalType": "string",
              "name": "symbol",
              "type": "string"
            },
            {
              "internalType": "uint256",
              "name": "decimals",
              "type": "uint256"
            },
            {
              "internalType": "uint256",
              "name": "baseLTVasCollateral",
              "type": "uint256"
            },
            {
              "internalType": "uint256",
              "name": "reserveLiquidationThreshold",
              "type": "uint256"
            },
            {
              "internalType": "uint256",
              "name": "reserveLiquidationBonus",
              "type": "uint256"
            },
            {
              "internalType": "uint256",
              "name": "reserveFactor",
              "type": "uint256"
            },
            {
              "internalType": "bool",
              "name": "usageAsCollateralEnabled",
              "type": "bool"
            },
            {
              "internalType": "bool",
              "name": "borrowingEnabled",
              "type": "bool"
            },
            {
              "internalType": "bool",
              "name": "stableBorrowRateEnabled",
              "type": "bool"
            },
            {
              "internalType": "bool",
              "name": "isActive",
              "type": "bool"
            },
            {
              "internalType": "bool",
              "name": "isFrozen",
              "type": "bool"
            },
            {
              "internalType": "uint128",
              "name": "liquidityIndex",
              "type": "uint128"
            },
            {
              "internalType": "uint128",
              "name": "variableBorrowIndex",
              "type": "uint128"
            },
            {
              "internalType": "uint128",
              "name": "liquidityRate",
              "type": "uint128"
            },
            {
              "internalType": "uint128",
              "name": "variableBorrowRate",
              "type": "uint128"
            },
            {
              "internalType": "uint128",
              "name": "stableBorrowRate",
              "type": "uint128"
            },
            {
              "internalType": "uint40",
              "name": "lastUpdateTimestamp",
              "type": "uint40"
            },
            {
              "internalType": "address",
              "name": "lTokenAddress",
              "type": "address"
            },
            {
              "internalType": "address",
              "name": "stableDebtTokenAddress",
              "type": "address"
            },
            {
              "internalType": "address",
              "name": "variableDebtTokenAddress",
              "type": "address"
            },
            {
              "internalType": "address",
              "name": "interestRateStrategyAddress",
              "type": "address"
            },
            {
              "internalType": "uint256",
              "name": "availableLiquidity",
              "type": "uint256"
            },
            {
              "internalType": "uint256",
              "name": "totalPrincipalStableDebt",
              "type": "uint256"
            },
            {
              "internalType": "uint256",
              "name": "averageStableRate",
              "type": "uint256"
            },
            {
              "internalType": "uint256",
              "name": "stableDebtLastUpdateTimestamp",
              "type": "uint256"
            },
            {
              "internalType": "uint256",
              "name": "totalScaledVariableDebt",
              "type": "uint256"
            },
            {
              "internalType": "uint256",
              "name": "priceInMarketReferenceCurrency",
              "type": "uint256"
            },
            {
              "internalType": "uint256",
              "name": "variableRateSlope1",
              "type": "uint256"
            },
            {
              "internalType": "uint256",
              "name": "variableRateSlope2",
              "type": "uint256"
            },
            {
              "internalType": "uint256",
              "name": "stableRateSlope1",
              "type": "uint256"
            },
            {
              "internalType": "uint256",
              "name": "stableRateSlope2",
              "type": "uint256"
            }
          ],
          "internalType": "struct IUiPoolDataProviderV2.AggregatedReserveData",
          "name": "",
          "type": "tuple"
        }
      ],
      "stateMutability": "view",
      "type": "function"
    },
    {
      "inputs": [
        {
          "internalType": "contract ILendingPoolAddressesProvider",
          "name": "provider",
          "type": "address"
        },
        {
          "internalType": "address",
          "name": "reserve",
          "type": "address"
        }
      ],
      "name": "getReserveBaseData",
      "outputs": [
        {
          "components": [
            {
              "internalType": "address",
              "name": "underlyingAsset",
              "type": "address"
            },
            {
              "internalType": "string",
              "name": "name",
              "type": "string"
            },
            {
              "internalType": "string",
              "name": "symbol",
              "type": "string"
            },
            {
              "internalType": "uint256",
              "name": "decimals",
              "type": "uint256"
            },
            {
              "internalType": "uint256",
              "name": "baseLTVasCollateral",
              "type": "uint256"
            },
            {
              "internalType": "uint256",
              "name": "reserveLiquidationThreshold",
              "type": "uint256"
            },
            {
              "internalType": "uint256",
              "name": "reserveLiquidationBonus",
              "type": "uint256"
            },
            {
              "internalType": "uint256",
              "name": "reserveFactor",
              "type": "uint256"
            },
            {
              "internalType": "bool",
              "name": "usageAsCollateralEnabled",
              "type": "bool"
            },
            {
              "internalType": "bool",
              "name": "borrowingEnabled",
              "type": "bool"
            },
            {
              "internalType": "bool",
              "name": "stableBorrowRateEnabled",
              "type": "bool"
            },
            {
              "internalType": "bool",
              "name": "isActive",
              "type": "bool"
            },
            {
              "internalType": "bool",
              "name": "isFrozen",
              "type": "bool"
            },
            {
              "internalType": "uint128",
              "name": "liquidityIndex",
              "type": "uint128"
            },
            {
              "internalType": "uint128",
              "name": "variableBorrowIndex",
              "type": "uint128"
            },
            {
              "internalType": "uint128",
              "name": "liquidityRate",
              "type": "uint128"
            },
            {
              "internalType": "uint128",
              "name": "variableBorrowRate",
              "type": "uint128"
            },
            {
              "internalType": "uint128",
              "name": "stableBorrowRate",
              "type": "uint128"
            },
            {
              "internalType": "uint40",
              "name": "lastUpdateTimestamp",
              "type": "uint40"
            },
            {
              "internalType": "address",
              "name": "lTokenAddress",
              "type": "address"
            },
            {
              "internalType": "address",
              "name": "stableDebtTokenAddress",
              "type": "address"
            },
            {
              "internalType": "address",
              "name": "variableDebtTokenAddress",
              "type": "address"
            },
            {
              "internalType": "address",
              "name": "interestRateStrategyAddress",
              "type": "address"
            },
            {
              "internalType": "uint256",
              "name": "availableLiquidity",
              "type": "uint256"
            },
            {
              "internalType": "uint256",
              "name": "totalPrincipalStableDebt",
              "type": "uint256"
            },
            {
              "internalType": "uint256",
              "name": "averageStableRate",
              "type": "uint256"
            },
            {
              "internalType": "uint256",
              "name": "stableDebtLastUpdateTimestamp",
              "type": "uint256"
            },
            {
              "internalType": "uint256",
              "name": "totalScaledVariableDebt",
              "type": "uint256"
            },
            {
              "internalType": "uint256",
              "name": "priceInMarketReferenceCurrency",
              "type": "uint256"
            },
            {
              "internalType": "uint256",
              "name": "variableRateSlope1",
              "type": "uint256"
            },
            {
              "internalType": "uint256",
              "name": "variableRateSlope2",
              "type": "uint256"
            },
            {
              "internalType": "uint256",
              "name": "stableRateSlope1",
              "type": "uint256"
            },
            {
              "internalType": "uint256",
              "name": "stableRateSlope2",
              "type": "uint256"
            }
          ],
          "internalType": "struct IUiPoolDataProviderV2.AggregatedReserveData",
          "name": "",
          "type": "tuple"
        }
      ],
      "stateMutability": "view",
      "type": "function"
    },
    {
      "inputs": [
        {
          "internalType": "contract ILendingPoolAddressesProvider",
          "name": "provider",
          "type": "address"
        },
        {
          "internalType": "address",
          "name": "reserve",
          "type": "address"
        }
      ],
      "name": "getReserveData",
      "outputs": [
        {
          "components": [
            {
              "internalType": "address",
              "name": "underlyingAsset",
              "type": "address"
            },
            {
              "internalType": "string",
              "name": "name",
              "type": "string"
            },
            {
              "internalType": "string",
              "name": "symbol",
              "type": "string"
            },
            {
              "internalType": "uint256",
              "name": "decimals",
              "type": "uint256"
            },
            {
              "internalType": "uint256",
              "name": "baseLTVasCollateral",
              "type": "uint256"
            },
            {
              "internalType": "uint256",
              "name": "reserveLiquidationThreshold",
              "type": "uint256"
            },
            {
              "internalType": "uint256",
              "name": "reserveLiquidationBonus",
              "type": "uint256"
            },
            {
              "internalType": "uint256",
              "name": "reserveFactor",
              "type": "uint256"
            },
            {
              "internalType": "bool",
              "name": "usageAsCollateralEnabled",
              "type": "bool"
            },
            {
              "internalType": "bool",
              "name": "borrowingEnabled",
              "type": "bool"
            },
            {
              "internalType": "bool",
              "name": "stableBorrowRateEnabled",
              "type": "bool"
            },
            {
              "internalType": "bool",
              "name": "isActive",
              "type": "bool"
            },
            {
              "internalType": "bool",
              "name": "isFrozen",
              "type": "bool"
            },
            {
              "internalType": "uint128",
              "name": "liquidityIndex",
              "type": "uint128"
            },
            {
              "internalType": "uint128",
              "name": "variableBorrowIndex",
              "type": "uint128"
            },
            {
              "internalType": "uint128",
              "name": "liquidityRate",
              "type": "uint128"
            },
            {
              "internalType": "uint128",
              "name": "variableBorrowRate",
              "type": "uint128"
            },
            {
              "internalType": "uint128",
              "name": "stableBorrowRate",
              "type": "uint128"
            },
            {
              "internalType": "uint40",
              "name": "lastUpdateTimestamp",
              "type": "uint40"
            },
            {
              "internalType": "address",
              "name": "lTokenAddress",
              "type": "address"
            },
            {
              "internalType": "address",
              "name": "stableDebtTokenAddress",
              "type": "address"
            },
            {
              "internalType": "address",
              "name": "variableDebtTokenAddress",
              "type": "address"
            },
            {
              "internalType": "address",
              "name": "interestRateStrategyAddress",
              "type": "address"
            },
            {
              "internalType": "uint256",
              "name": "availableLiquidity",
              "type": "uint256"
            },
            {
              "internalType": "uint256",
              "name": "totalPrincipalStableDebt",
              "type": "uint256"
            },
            {
              "internalType": "uint256",
              "name": "averageStableRate",
              "type": "uint256"
            },
            {
              "internalType": "uint256",
              "name": "stableDebtLastUpdateTimestamp",
              "type": "uint256"
            },
            {
              "internalType": "uint256",
              "name": "totalScaledVariableDebt",
              "type": "uint256"
            },
            {
              "internalType": "uint256",
              "name": "priceInMarketReferenceCurrency",
              "type": "uint256"
            },
            {
              "internalType": "uint256",
              "name": "variableRateSlope1",
              "type": "uint256"
            },
            {
              "internalType": "uint256",
              "name": "variableRateSlope2",
              "type": "uint256"
            },
            {
              "internalType": "uint256",
              "name": "stableRateSlope1",
              "type": "uint256"
            },
            {
              "internalType": "uint256",
              "name": "stableRateSlope2",
              "type": "uint256"
            }
          ],
          "internalType": "struct IUiPoolDataProviderV2.AggregatedReserveData",
          "name": "",
          "type": "tuple"
        },
        {
          "components": [
            {
              "internalType": "uint256",
              "name": "marketReferenceCurrencyUnit",
              "type": "uint256"
            },
            {
              "internalType": "int256",
              "name": "marketReferenceCurrencyPriceInUsd",
              "type": "int256"
            },
            {
              "internalType": "int256",
              "name": "networkBaseTokenPriceInUsd",
              "type": "int256"
            },
            {
              "internalType": "uint8",
              "name": "networkBaseTokenPriceDecimals",
              "type": "uint8"
            }
          ],
          "internalType": "struct IUiPoolDataProviderV2.BaseCurrencyInfo",
          "name": "",
          "type": "tuple"
        }
      ],
      "stateMutability": "view",
      "type": "function"
    },
    {
      "inputs": [
        {
          "internalType": "contract ILendingPoolAddressesProvider",
          "name": "provider",
          "type": "address"
        },
        {
          "internalType": "address",
          "name": "reserve",
          "type": "address"
        }
      ],
      "name": "getReserveTokensData",
      "outputs": [
        {
          "components": [
            {
              "internalType": "address",
              "name": "underlyingAsset",
              "type": "address"
            },
            {
              "internalType": "string",
              "name": "name",
              "type": "string"
            },
            {
              "internalType": "string",
              "name": "symbol",
              "type": "string"
            },
            {
              "internalType": "uint256",
              "name": "decimals",
              "type": "uint256"
            },
            {
              "internalType": "uint256",
              "name": "baseLTVasCollateral",
              "type": "uint256"
            },
            {
              "internalType": "uint256",
              "name": "reserveLiquidationThreshold",
              "type": "uint256"
            },
            {
              "internalType": "uint256",
              "name": "reserveLiquidationBonus",
              "type": "uint256"
            },
            {
              "internalType": "uint256",
              "name": "reserveFactor",
              "type": "uint256"
            },
            {
              "internalType": "bool",
              "name": "usageAsCollateralEnabled",
              "type": "bool"
            },
            {
              "internalType": "bool",
              "name": "borrowingEnabled",
              "type": "bool"
            },
            {
              "internalType": "bool",
              "name": "stableBorrowRateEnabled",
              "type": "bool"
            },
            {
              "internalType": "bool",
              "name": "isActive",
              "type": "bool"
            },
            {
              "internalType": "bool",
              "name": "isFrozen",
              "type": "bool"
            },
            {
              "internalType": "uint128",
              "name": "liquidityIndex",
              "type": "uint128"
            },
            {
              "internalType": "uint128",
              "name": "variableBorrowIndex",
              "type": "uint128"
            },
            {
              "internalType": "uint128",
              "name": "liquidityRate",
              "type": "uint128"
            },
            {
              "internalType": "uint128",
              "name": "variableBorrowRate",
              "type": "uint128"
            },
            {
              "internalType": "uint128",
              "name": "stableBorrowRate",
              "type": "uint128"
            },
            {
              "internalType": "uint40",
              "name": "lastUpdateTimestamp",
              "type": "uint40"
            },
            {
              "internalType": "address",
              "name": "lTokenAddress",
              "type": "address"
            },
            {
              "internalType": "address",
              "name": "stableDebtTokenAddress",
              "type": "address"
            },
            {
              "internalType": "address",
              "name": "variableDebtTokenAddress",
              "type": "address"
            },
            {
              "internalType": "address",
              "name": "interestRateStrategyAddress",
              "type": "address"
            },
            {
              "internalType": "uint256",
              "name": "availableLiquidity",
              "type": "uint256"
            },
            {
              "internalType": "uint256",
              "name": "totalPrincipalStableDebt",
              "type": "uint256"
            },
            {
              "internalType": "uint256",
              "name": "averageStableRate",
              "type": "uint256"
            },
            {
              "internalType": "uint256",
              "name": "stableDebtLastUpdateTimestamp",
              "type": "uint256"
            },
            {
              "internalType": "uint256",
              "name": "totalScaledVariableDebt",
              "type": "uint256"
            },
            {
              "internalType": "uint256",
              "name": "priceInMarketReferenceCurrency",
              "type": "uint256"
            },
            {
              "internalType": "uint256",
              "name": "variableRateSlope1",
              "type": "uint256"
            },
            {
              "internalType": "uint256",
              "name": "variableRateSlope2",
              "type": "uint256"
            },
            {
              "internalType": "uint256",
              "name": "stableRateSlope1",
              "type": "uint256"
            },
            {
              "internalType": "uint256",
              "name": "stableRateSlope2",
              "type": "uint256"
            }
          ],
          "internalType": "struct IUiPoolDataProviderV2.AggregatedReserveData",
          "name": "",
          "type": "tuple"
        }
      ],
      "stateMutability": "view",
      "type": "function"
    },
    {
      "inputs": [
        {
          "internalType": "contract ILendingPoolAddressesProvider",
          "name": "provider",
          "type": "address"
        }
      ],
      "name": "getReservesData",
      "outputs": [
        {
          "components": [
            {
              "internalType": "address",
              "name": "underlyingAsset",
              "type": "address"
            },
            {
              "internalType": "string",
              "name": "name",
              "type": "string"
            },
            {
              "internalType": "string",
              "name": "symbol",
              "type": "string"
            },
            {
              "internalType": "uint256",
              "name": "decimals",
              "type": "uint256"
            },
            {
              "internalType": "uint256",
              "name": "baseLTVasCollateral",
              "type": "uint256"
            },
            {
              "internalType": "uint256",
              "name": "reserveLiquidationThreshold",
              "type": "uint256"
            },
            {
              "internalType": "uint256",
              "name": "reserveLiquidationBonus",
              "type": "uint256"
            },
            {
              "internalType": "uint256",
              "name": "reserveFactor",
              "type": "uint256"
            },
            {
              "internalType": "bool",
              "name": "usageAsCollateralEnabled",
              "type": "bool"
            },
            {
              "internalType": "bool",
              "name": "borrowingEnabled",
              "type": "bool"
            },
            {
              "internalType": "bool",
              "name": "stableBorrowRateEnabled",
              "type": "bool"
            },
            {
              "internalType": "bool",
              "name": "isActive",
              "type": "bool"
            },
            {
              "internalType": "bool",
              "name": "isFrozen",
              "type": "bool"
            },
            {
              "internalType": "uint128",
              "name": "liquidityIndex",
              "type": "uint128"
            },
            {
              "internalType": "uint128",
              "name": "variableBorrowIndex",
              "type": "uint128"
            },
            {
              "internalType": "uint128",
              "name": "liquidityRate",
              "type": "uint128"
            },
            {
              "internalType": "uint128",
              "name": "variableBorrowRate",
              "type": "uint128"
            },
            {
              "internalType": "uint128",
              "name": "stableBorrowRate",
              "type": "uint128"
            },
            {
              "internalType": "uint40",
              "name": "lastUpdateTimestamp",
              "type": "uint40"
            },
            {
              "internalType": "address",
              "name": "lTokenAddress",
              "type": "address"
            },
            {
              "internalType": "address",
              "name": "stableDebtTokenAddress",
              "type": "address"
            },
            {
              "internalType": "address",
              "name": "variableDebtTokenAddress",
              "type": "address"
            },
            {
              "internalType": "address",
              "name": "interestRateStrategyAddress",
              "type": "address"
            },
            {
              "internalType": "uint256",
              "name": "availableLiquidity",
              "type": "uint256"
            },
            {
              "internalType": "uint256",
              "name": "totalPrincipalStableDebt",
              "type": "uint256"
            },
            {
              "internalType": "uint256",
              "name": "averageStableRate",
              "type": "uint256"
            },
            {
              "internalType": "uint256",
              "name": "stableDebtLastUpdateTimestamp",
              "type": "uint256"
            },
            {
              "internalType": "uint256",
              "name": "totalScaledVariableDebt",
              "type": "uint256"
            },
            {
              "internalType": "uint256",
              "name": "priceInMarketReferenceCurrency",
              "type": "uint256"
            },
            {
              "internalType": "uint256",
              "name": "variableRateSlope1",
              "type": "uint256"
            },
            {
              "internalType": "uint256",
              "name": "variableRateSlope2",
              "type": "uint256"
            },
            {
              "internalType": "uint256",
              "name": "stableRateSlope1",
              "type": "uint256"
            },
            {
              "internalType": "uint256",
              "name": "stableRateSlope2",
              "type": "uint256"
            }
          ],
          "internalType": "struct IUiPoolDataProviderV2.AggregatedReserveData[]",
          "name": "",
          "type": "tuple[]"
        },
        {
          "components": [
            {
              "internalType": "uint256",
              "name": "marketReferenceCurrencyUnit",
              "type": "uint256"
            },
            {
              "internalType": "int256",
              "name": "marketReferenceCurrencyPriceInUsd",
              "type": "int256"
            },
            {
              "internalType": "int256",
              "name": "networkBaseTokenPriceInUsd",
              "type": "int256"
            },
            {
              "internalType": "uint8",
              "name": "networkBaseTokenPriceDecimals",
              "type": "uint8"
            }
          ],
          "internalType": "struct IUiPoolDataProviderV2.BaseCurrencyInfo",
          "name": "",
          "type": "tuple"
        }
      ],
      "stateMutability": "view",
      "type": "function"
    },
    {
      "inputs": [
        {
          "internalType": "contract ILendingPoolAddressesProvider",
          "name": "provider",
          "type": "address"
        }
      ],
      "name": "getReservesList",
      "outputs": [
        {
          "internalType": "address[]",
          "name": "",
          "type": "address[]"
        }
      ],
      "stateMutability": "view",
      "type": "function"
    },
    {
      "inputs": [
        {
          "internalType": "contract ILendingPoolAddressesProvider",
          "name": "provider",
          "type": "address"
        },
        {
          "internalType": "address",
          "name": "user",
          "type": "address"
        }
      ],
      "name": "getUserReservesData",
      "outputs": [
        {
          "components": [
            {
              "internalType": "address",
              "name": "underlyingAsset",
              "type": "address"
            },
            {
              "internalType": "uint256",
              "name": "scaledLTokenBalance",
              "type": "uint256"
            },
            {
              "internalType": "bool",
              "name": "usageAsCollateralEnabledOnUser",
              "type": "bool"
            },
            {
              "internalType": "uint256",
              "name": "stableBorrowRate",
              "type": "uint256"
            },
            {
              "internalType": "uint256",
              "name": "scaledVariableDebt",
              "type": "uint256"
            },
            {
              "internalType": "uint256",
              "name": "principalStableDebt",
              "type": "uint256"
            },
            {
              "internalType": "uint256",
              "name": "stableBorrowLastUpdateTimestamp",
              "type": "uint256"
            }
          ],
          "internalType": "struct IUiPoolDataProviderV2.UserReserveData[]",
          "name": "",
          "type": "tuple[]"
        }
      ],
      "stateMutability": "view",
      "type": "function"
    },
    {
      "inputs": [],
      "name": "networkBaseTokenPriceInUsdProxyAggregatorAdapter",
      "outputs": [
        {
          "internalType": "contract IPriceAggregatorAdapter",
          "name": "",
          "type": "address"
        }
      ],
      "stateMutability": "view",
      "type": "function"
    }
  ],
  "bytecode": "0x60c06040523480156200001157600080fd5b5060405162002f9538038062002f95833981016040819052620000349162000053565b6001600160601b0319606092831b8116608052911b1660a052620000aa565b6000806040838503121562000066578182fd5b8251620000738162000091565b6020840151909250620000868162000091565b809150509250929050565b6001600160a01b0381168114620000a757600080fd5b50565b60805160601c60a05160601c612ead620000e86000398061079d528061154f5280611d4d52508061077052806116795280611d205250612ead6000f3fe608060405234801561001057600080fd5b50600436106100b45760003560e01c806377b8bbe31161007157806377b8bbe31461016b5780637cb374bd1461017e5780639201de5514610193578063cd66697a146101b3578063ec489c21146101bb578063f1a38924146101dc576100b4565b80630496f53a146100b95780630feb1586146100d7578063105935ed146100f85780633cea4b471461011857806351974cc01461012b578063586c14421461014b575b600080fd5b6100c16101ef565b6040516100ce9190612de0565b60405180910390f35b6100ea6100e5366004612745565b6101fb565b6040516100ce929190612dbe565b61010b610106366004612745565b61083d565b6040516100ce9190612dab565b61010b610126366004612745565b61098e565b61013e610139366004612745565b610cd6565b6040516100ce9190612d0c565b61015e610159366004612729565b611312565b6040516100ce9190612c4e565b61010b610179366004612745565b611405565b61018661154d565b6040516100ce9190612c3a565b6101a66101a1366004612711565b611571565b6040516100ce9190612d98565b610186611677565b6101ce6101c9366004612729565b61169b565b6040516100ce929190612c9b565b61010b6101ea366004612745565b611deb565b670de0b6b3a764000081565b61020361238d565b61020b6124ec565b6000846001600160a01b031663fca513a86040518163ffffffff1660e01b815260040160206040518083038186803b15801561024657600080fd5b505afa15801561025a573d6000803e3d6000fd5b505050506040513d601f19601f8201168201806040525081019061027e919061264a565b90506000856001600160a01b0316630261bf8b6040518163ffffffff1660e01b815260040160206040518083038186803b1580156102bb57600080fd5b505afa1580156102cf573d6000803e3d6000fd5b505050506040513d601f19601f820116820180604052508101906102f3919061264a565b90506102fd61238d565b6001600160a01b0386168152610311612517565b81516040516335ea6a7560e01b81526001600160a01b038516916335ea6a759161033e9190600401612c3a565b6101806040518083038186803b15801561035757600080fd5b505afa15801561036b573d6000803e3d6000fd5b505050506040513d601f19601f8201168201806040525081019061038f9190612821565b60208101516001600160801b039081166101a085015260408083015182166101c0860152606083015182166101e08601526080830151821661020086015260a083015190911661022085015260c082015164ffffffffff1661024085015260e08201516001600160a01b03908116610260860152610100830151811661028086015261012083015181166102a086015261014083015181166102c08601528451915163b3596f0760e01b815292935086169163b3596f079161045391600401612c3a565b60206040518083038186803b15801561046b57600080fd5b505afa15801561047f573d6000803e3d6000fd5b505050506040513d601f19601f820116820180604052508101906104a3919061277d565b61038083015281516102608301516040516370a0823160e01b81526001600160a01b03909216916370a08231916104dc91600401612c3a565b60206040518083038186803b1580156104f457600080fd5b505afa158015610508573d6000803e3d6000fd5b505050506040513d601f19601f8201168201806040525081019061052c919061277d565b826102e00181815250508161028001516001600160a01b031663797743386040518163ffffffff1660e01b815260040160806040518083038186803b15801561057457600080fd5b505afa158015610588573d6000803e3d6000fd5b505050506040513d601f19601f820116820180604052508101906105ac9190612937565b64ffffffffff16610340860152610320850152506103008301526102a08201516040805163b1bf962d60e01b815290516001600160a01b039092169163b1bf962d91600480820192602092909190829003018186803b15801561060e57600080fd5b505afa158015610622573d6000803e3d6000fd5b505050506040513d601f19601f82011682018060405250810190610646919061277d565b8261036001818152505081600001516001600160a01b03166395d89b416040518163ffffffff1660e01b815260040160006040518083038186803b15801561068d57600080fd5b505afa1580156106a1573d6000803e3d6000fd5b505050506040513d6000823e601f3d908101601f191682016040526106c99190810190612795565b604083015280516106d99061209b565b60e0870152606086015260c085015260a0840152608083015280516106fd906120c6565b1515610140860152151561012085015215156101808401521515610160830152608082015115156101008301526102c082015161073990612102565b6104008601526103e08501526103c08401526103a08301526107596124ec565b60405163e9833c2f60e01b81526001600160a01b037f0000000000000000000000000000000000000000000000000000000000000000169063e9833c2f906107c5907f000000000000000000000000000000000000000000000000000000000000000090600401612c3a565b60206040518083038186803b1580156107dd57600080fd5b505afa1580156107f1573d6000803e3d6000fd5b505050506040513d601f19601f82011682018060405250810190610815919061277d565b6040820152600860608201526305f5e100808252602082015291989197509095505050505050565b61084561238d565b6000836001600160a01b0316630261bf8b6040518163ffffffff1660e01b815260040160206040518083038186803b15801561088057600080fd5b505afa158015610894573d6000803e3d6000fd5b505050506040513d601f19601f820116820180604052508101906108b8919061264a565b90506108c261238d565b6001600160a01b03841681526108d6612517565b81516040516335ea6a7560e01b81526001600160a01b038516916335ea6a75916109039190600401612c3a565b6101806040518083038186803b15801561091c57600080fd5b505afa158015610930573d6000803e3d6000fd5b505050506040513d601f19601f820116820180604052508101906109549190612821565b905061096381600001516120c6565b1515610140860152151561012085015215156101808401521515610160830152509150505b92915050565b61099661238d565b6000836001600160a01b0316630261bf8b6040518163ffffffff1660e01b815260040160206040518083038186803b1580156109d157600080fd5b505afa1580156109e5573d6000803e3d6000fd5b505050506040513d601f19601f82011682018060405250810190610a09919061264a565b9050610a1361238d565b6001600160a01b0384168152610a27612517565b81516040516335ea6a7560e01b81526001600160a01b038516916335ea6a7591610a549190600401612c3a565b6101806040518083038186803b158015610a6d57600080fd5b505afa158015610a81573d6000803e3d6000fd5b505050506040513d601f19601f82011682018060405250810190610aa59190612821565b82516102608401516040516370a0823160e01b81529293506001600160a01b03909116916370a0823191610adb91600401612c3a565b60206040518083038186803b158015610af357600080fd5b505afa158015610b07573d6000803e3d6000fd5b505050506040513d601f19601f82011682018060405250810190610b2b919061277d565b826102e00181815250508161028001516001600160a01b031663797743386040518163ffffffff1660e01b815260040160806040518083038186803b158015610b7357600080fd5b505afa158015610b87573d6000803e3d6000fd5b505050506040513d601f19601f82011682018060405250810190610bab9190612937565b64ffffffffff16610340860152610320850152506103008301526102a08201516040805163b1bf962d60e01b815290516001600160a01b039092169163b1bf962d91600480820192602092909190829003018186803b158015610c0d57600080fd5b505afa158015610c21573d6000803e3d6000fd5b505050506040513d601f19601f82011682018060405250810190610c45919061277d565b8261036001818152505081600001516001600160a01b03166395d89b416040518163ffffffff1660e01b815260040160006040518083038186803b158015610c8c57600080fd5b505afa158015610ca0573d6000803e3d6000fd5b505050506040513d6000823e601f3d908101601f19168201604052610cc89190810190612795565b604083015250949350505050565b60606000836001600160a01b0316630261bf8b6040518163ffffffff1660e01b815260040160206040518083038186803b158015610d1357600080fd5b505afa158015610d27573d6000803e3d6000fd5b505050506040513d601f19601f82011682018060405250810190610d4b919061264a565b90506060816001600160a01b031663d1946dbc6040518163ffffffff1660e01b815260040160006040518083038186803b158015610d8857600080fd5b505afa158015610d9c573d6000803e3d6000fd5b505050506040513d6000823e601f3d908101601f19168201604052610dc49190810190612666565b9050610dce612582565b604051634417a58360e01b81526001600160a01b03841690634417a58390610dfa908890600401612c3a565b60206040518083038186803b158015610e1257600080fd5b505afa158015610e26573d6000803e3d6000fd5b505050506040513d601f19601f82011682018060405250810190610e4a919061291c565b905060606001600160a01b038616610e63576000610e66565b82515b67ffffffffffffffff81118015610e7c57600080fd5b50604051908082528060200260200182016040528015610eb657816020015b610ea3612595565b815260200190600190039081610e9b5790505b50905060005b835181101561130757610ecd612517565b856001600160a01b03166335ea6a75868481518110610ee857fe5b60200260200101516040518263ffffffff1660e01b8152600401610f0c9190612c3a565b6101806040518083038186803b158015610f2557600080fd5b505afa158015610f39573d6000803e3d6000fd5b505050506040513d601f19601f82011682018060405250810190610f5d9190612821565b9050848281518110610f6b57fe5b6020026020010151838381518110610f7f57fe5b60209081029190910101516001600160a01b03918216905260e0820151604051630ed1279f60e11b8152911690631da24f3e90610fc0908b90600401612c3a565b60206040518083038186803b158015610fd857600080fd5b505afa158015610fec573d6000803e3d6000fd5b505050506040513d601f19601f82011682018060405250810190611010919061277d565b83838151811061101c57fe5b602090810291909101810151015261103484836122db565b83838151811061104057fe5b602090810291909101015190151560409091015261105e848361233c565b156112fe578061012001516001600160a01b0316631da24f3e896040518263ffffffff1660e01b81526004016110949190612c3a565b60206040518083038186803b1580156110ac57600080fd5b505afa1580156110c0573d6000803e3d6000fd5b505050506040513d601f19601f820116820180604052508101906110e4919061277d565b8383815181106110f057fe5b602002602001015160800181815250508061010001516001600160a01b031663c634dfaa896040518263ffffffff1660e01b81526004016111319190612c3a565b60206040518083038186803b15801561114957600080fd5b505afa15801561115d573d6000803e3d6000fd5b505050506040513d601f19601f82011682018060405250810190611181919061277d565b83838151811061118d57fe5b602002602001015160a00181815250508282815181106111a957fe5b602002602001015160a001516000146112fe578061010001516001600160a01b031663e78c9b3b896040518263ffffffff1660e01b81526004016111ed9190612c3a565b60206040518083038186803b15801561120557600080fd5b505afa158015611219573d6000803e3d6000fd5b505050506040513d601f19601f8201168201806040525081019061123d919061277d565b83838151811061124957fe5b602002602001015160600181815250508061010001516001600160a01b03166379ce6b8c896040518263ffffffff1660e01b815260040161128a9190612c3a565b60206040518083038186803b1580156112a257600080fd5b505afa1580156112b6573d6000803e3d6000fd5b505050506040513d601f19601f820116820180604052508101906112da9190612977565b64ffffffffff168383815181106112ed57fe5b602002602001015160c00181815250505b50600101610ebc565b509695505050505050565b60606000826001600160a01b0316630261bf8b6040518163ffffffff1660e01b815260040160206040518083038186803b15801561134f57600080fd5b505afa158015611363573d6000803e3d6000fd5b505050506040513d601f19601f82011682018060405250810190611387919061264a565b9050806001600160a01b031663d1946dbc6040518163ffffffff1660e01b815260040160006040518083038186803b1580156113c257600080fd5b505afa1580156113d6573d6000803e3d6000fd5b505050506040513d6000823e601f3d908101601f191682016040526113fe9190810190612666565b9392505050565b61140d61238d565b6000836001600160a01b0316630261bf8b6040518163ffffffff1660e01b815260040160206040518083038186803b15801561144857600080fd5b505afa15801561145c573d6000803e3d6000fd5b505050506040513d601f19601f82011682018060405250810190611480919061264a565b905061148a61238d565b6001600160a01b038416815261149e612517565b81516040516335ea6a7560e01b81526001600160a01b038516916335ea6a75916114cb9190600401612c3a565b6101806040518083038186803b1580156114e457600080fd5b505afa1580156114f8573d6000803e3d6000fd5b505050506040513d601f19601f8201168201806040525081019061151c9190612821565b905061152b816000015161209b565b60e0870152606086015260c085015260a0840152608083015250949350505050565b7f000000000000000000000000000000000000000000000000000000000000000081565b606060005b60208160ff161080156115a45750828160ff166020811061159357fe5b1a60f81b6001600160f81b03191615155b156115b157600101611576565b60608160ff1667ffffffffffffffff811180156115cd57600080fd5b506040519080825280601f01601f1916602001820160405280156115f8576020820181803683370190505b509050600091505b60208260ff1610801561162e5750838260ff166020811061161d57fe5b1a60f81b6001600160f81b03191615155b156113fe57838260ff166020811061164257fe5b1a60f81b818360ff168151811061165557fe5b60200101906001600160f81b031916908160001a905350600190910190611600565b7f000000000000000000000000000000000000000000000000000000000000000081565b60606116a56124ec565b6000836001600160a01b031663fca513a86040518163ffffffff1660e01b815260040160206040518083038186803b1580156116e057600080fd5b505afa1580156116f4573d6000803e3d6000fd5b505050506040513d601f19601f82011682018060405250810190611718919061264a565b90506000846001600160a01b0316630261bf8b6040518163ffffffff1660e01b815260040160206040518083038186803b15801561175557600080fd5b505afa158015611769573d6000803e3d6000fd5b505050506040513d601f19601f8201168201806040525081019061178d919061264a565b90506060816001600160a01b031663d1946dbc6040518163ffffffff1660e01b815260040160006040518083038186803b1580156117ca57600080fd5b505afa1580156117de573d6000803e3d6000fd5b505050506040513d6000823e601f3d908101601f191682016040526118069190810190612666565b90506060815167ffffffffffffffff8111801561182257600080fd5b5060405190808252806020026020018201604052801561185c57816020015b61184961238d565b8152602001906001900390816118415790505b50905060005b8251811015611d005761187361238d565b82828151811061187f57fe5b6020026020010151905083828151811061189557fe5b60209081029190910101516001600160a01b031681526118b3612517565b81516040516335ea6a7560e01b81526001600160a01b038816916335ea6a75916118e09190600401612c3a565b6101806040518083038186803b1580156118f957600080fd5b505afa15801561190d573d6000803e3d6000fd5b505050506040513d601f19601f820116820180604052508101906119319190612821565b60208101516001600160801b039081166101a085015260408083015182166101c0860152606083015182166101e08601526080830151821661020086015260a083015190911661022085015260c082015164ffffffffff1661024085015260e08201516001600160a01b03908116610260860152610100830151811661028086015261012083015181166102a086015261014083015181166102c08601528451915163b3596f0760e01b815292935089169163b3596f07916119f591600401612c3a565b60206040518083038186803b158015611a0d57600080fd5b505afa158015611a21573d6000803e3d6000fd5b505050506040513d601f19601f82011682018060405250810190611a45919061277d565b61038083015281516102608301516040516370a0823160e01b81526001600160a01b03909216916370a0823191611a7e91600401612c3a565b60206040518083038186803b158015611a9657600080fd5b505afa158015611aaa573d6000803e3d6000fd5b505050506040513d601f19601f82011682018060405250810190611ace919061277d565b826102e00181815250508161028001516001600160a01b031663797743386040518163ffffffff1660e01b815260040160806040518083038186803b158015611b1657600080fd5b505afa158015611b2a573d6000803e3d6000fd5b505050506040513d601f19601f82011682018060405250810190611b4e9190612937565b64ffffffffff16610340860152610320850152506103008301526102a08201516040805163b1bf962d60e01b815290516001600160a01b039092169163b1bf962d91600480820192602092909190829003018186803b158015611bb057600080fd5b505afa158015611bc4573d6000803e3d6000fd5b505050506040513d601f19601f82011682018060405250810190611be8919061277d565b8261036001818152505081600001516001600160a01b03166395d89b416040518163ffffffff1660e01b815260040160006040518083038186803b158015611c2f57600080fd5b505afa158015611c43573d6000803e3d6000fd5b505050506040513d6000823e601f3d908101601f19168201604052611c6b9190810190612795565b60408301528051611c7b9061209b565b60e0870152606086015260c085015260a084015260808301528051611c9f906120c6565b1515610140860152151561012085015215156101808401521515610160830152608082015115156101008301526102c0820151611cdb90612102565b6104008601526103e08501526103c08401526103a09092019190915250600101611862565b50611d096124ec565b60405163e9833c2f60e01b81526001600160a01b037f0000000000000000000000000000000000000000000000000000000000000000169063e9833c2f90611d75907f000000000000000000000000000000000000000000000000000000000000000090600401612c3a565b60206040518083038186803b158015611d8d57600080fd5b505afa158015611da1573d6000803e3d6000fd5b505050506040513d601f19601f82011682018060405250810190611dc5919061277d565b6040820152600860608201526305f5e10080825260208201529095509350505050915091565b611df361238d565b6000836001600160a01b031663fca513a86040518163ffffffff1660e01b815260040160206040518083038186803b158015611e2e57600080fd5b505afa158015611e42573d6000803e3d6000fd5b505050506040513d601f19601f82011682018060405250810190611e66919061264a565b90506000846001600160a01b0316630261bf8b6040518163ffffffff1660e01b815260040160206040518083038186803b158015611ea357600080fd5b505afa158015611eb7573d6000803e3d6000fd5b505050506040513d601f19601f82011682018060405250810190611edb919061264a565b9050611ee561238d565b6001600160a01b0385168152611ef9612517565b81516040516335ea6a7560e01b81526001600160a01b038516916335ea6a7591611f269190600401612c3a565b6101806040518083038186803b158015611f3f57600080fd5b505afa158015611f53573d6000803e3d6000fd5b505050506040513d601f19601f82011682018060405250810190611f779190612821565b60208101516001600160801b039081166101a085015260408083015182166101c0860152606083015182166101e08601526080830151821661020086015260a083015190911661022085015260c082015164ffffffffff1661024085015260e08201516001600160a01b03908116610260860152610100830151811661028086015261012083015181166102a086015261014083015181166102c08601528451915163b3596f0760e01b815292935086169163b3596f079161203b91600401612c3a565b60206040518083038186803b15801561205357600080fd5b505afa158015612067573d6000803e3d6000fd5b505050506040513d601f19601f8201168201806040525081019061208b919061277d565b6103808301525095945050505050565b5161ffff80821692601083901c821692602081901c831692603082901c60ff169260409290921c1690565b51670100000000000000811615159167020000000000000082161515916704000000000000008116151591670800000000000000909116151590565b600080600080846001600160a01b0316637b832f586040518163ffffffff1660e01b815260040160206040518083038186803b15801561214157600080fd5b505afa158015612155573d6000803e3d6000fd5b505050506040513d601f19601f82011682018060405250810190612179919061277d565b856001600160a01b03166365614f816040518163ffffffff1660e01b815260040160206040518083038186803b1580156121b257600080fd5b505afa1580156121c6573d6000803e3d6000fd5b505050506040513d601f19601f820116820180604052508101906121ea919061277d565b866001600160a01b0316630bdf953f6040518163ffffffff1660e01b815260040160206040518083038186803b15801561222357600080fd5b505afa158015612237573d6000803e3d6000fd5b505050506040513d601f19601f8201168201806040525081019061225b919061277d565b876001600160a01b031663ccab01a36040518163ffffffff1660e01b815260040160206040518083038186803b15801561229457600080fd5b505afa1580156122a8573d6000803e3d6000fd5b505050506040513d601f19601f820116820180604052508101906122cc919061277d565b93509350935093509193509193565b60006080821060405180604001604052806002815260200161373760f01b815250906123235760405162461bcd60e51b815260040161231a9190612d98565b60405180910390fd5b5050815160016002830281019190911c16151592915050565b60006080821060405180604001604052806002815260200161373760f01b8152509061237b5760405162461bcd60e51b815260040161231a9190612d98565b50509051600160029092021c16151590565b60405180610420016040528060006001600160a01b031681526020016060815260200160608152602001600081526020016000815260200160008152602001600081526020016000815260200160001515815260200160001515815260200160001515815260200160001515815260200160001515815260200160006001600160801b0316815260200160006001600160801b0316815260200160006001600160801b0316815260200160006001600160801b0316815260200160006001600160801b03168152602001600064ffffffffff16815260200160006001600160a01b0316815260200160006001600160a01b0316815260200160006001600160a01b0316815260200160006001600160a01b03168152602001600081526020016000815260200160008152602001600081526020016000815260200160008152602001600081526020016000815260200160008152602001600081525090565b6040518060800160405280600081526020016000815260200160008152602001600060ff1681525090565b60405180610180016040528061252b612582565b815260006020820181905260408201819052606082018190526080820181905260a0820181905260c0820181905260e082018190526101008201819052610120820181905261014082018190526101609091015290565b6040518060200160405280600081525090565b6040518060e0016040528060006001600160a01b0316815260200160008152602001600015158152602001600081526020016000815260200160008152602001600081525090565b805161098881612e4c565b6000602082840312156125f9578081fd5b6126036020612de9565b9151825250919050565b80516001600160801b038116811461098857600080fd5b805164ffffffffff8116811461098857600080fd5b805160ff8116811461098857600080fd5b60006020828403121561265b578081fd5b81516113fe81612e4c565b60006020808385031215612678578182fd5b825167ffffffffffffffff8082111561268f578384fd5b818501915085601f8301126126a2578384fd5b8151818111156126b0578485fd5b83810291506126c0848301612de9565b8181528481019084860184860187018a10156126da578788fd5b8795505b83861015612704576126f08a826125dd565b8352600195909501949186019186016126de565b5098975050505050505050565b600060208284031215612722578081fd5b5035919050565b60006020828403121561273a578081fd5b81356113fe81612e4c565b60008060408385031215612757578081fd5b823561276281612e4c565b9150602083013561277281612e4c565b809150509250929050565b60006020828403121561278e578081fd5b5051919050565b6000602082840312156127a6578081fd5b815167ffffffffffffffff808211156127bd578283fd5b818401915084601f8301126127d0578283fd5b8151818111156127de578384fd5b6127f1601f8201601f1916602001612de9565b9150808252856020828501011115612807578384fd5b612818816020840160208601612e1c565b50949350505050565b6000610180808385031215612834578182fd5b61283d81612de9565b905061284984846125e8565b8152612858846020850161260d565b602082015261286a846040850161260d565b604082015261287c846060850161260d565b606082015261288e846080850161260d565b60808201526128a08460a0850161260d565b60a08201526128b28460c08501612624565b60c08201526128c48460e085016125dd565b60e08201526101006128d8858286016125dd565b908201526101206128eb858583016125dd565b908201526101406128fe858583016125dd565b9082015261016061291185858301612639565b908201529392505050565b60006020828403121561292d578081fd5b6113fe83836125e8565b6000806000806080858703121561294c578182fd5b845193506020850151925060408501519150606085015161296c81612e64565b939692955090935050565b600060208284031215612988578081fd5b81516113fe81612e64565b6001600160a01b03169052565b15159052565b600081518084526129be816020860160208601612e1c565b601f01601f19169290920160200192915050565b60006104206129e2848451612993565b60208301518160208601526129f9828601826129a6565b91505060408301518482036040860152612a1382826129a6565b915050606083015160608501526080830151608085015260a083015160a085015260c083015160c085015260e083015160e085015261010080840151612a5b828701826129a0565b505061012080840151612a70828701826129a0565b505061014080840151612a85828701826129a0565b505061016080840151612a9a828701826129a0565b505061018080840151612aaf828701826129a0565b50506101a080840151612ac482870182612c22565b50506101c080840151612ad982870182612c22565b50506101e080840151612aee82870182612c22565b505061020080840151612b0382870182612c22565b505061022080840151612b1882870182612c22565b505061024080840151612b2d82870182612c2f565b505061026080840151612b4282870182612993565b505061028080840151612b5782870182612993565b50506102a080840151612b6c82870182612993565b50506102c080840151612b8182870182612993565b50506102e08381015190850152610300808401519085015261032080840151908501526103408084015190850152610360808401519085015261038080840151908501526103a080840151908501526103c080840151908501526103e080840151908501526104009283015192909301919091525090565b80518252602081015160208301526040810151604083015260ff60608201511660608301525050565b6001600160801b03169052565b64ffffffffff169052565b6001600160a01b0391909116815260200190565b6020808252825182820181905260009190848201906040850190845b81811015612c8f5783516001600160a01b031683529284019291840191600101612c6a565b50909695505050505050565b600060a0820160a0835280855180835260c0850191506020925060c0838202860101838801855b83811015612cf05760bf19888403018552612cde8383516129d2565b94860194925090850190600101612cc2565b5050809450505050612d0481840185612bf9565b509392505050565b602080825282518282018190526000919060409081850190868401855b82811015612d8b578151612d3d8151612e10565b8552808701518786015285810151151586860152606080820151908601526080808201519086015260a0808201519086015260c0908101519085015260e09093019290850190600101612d29565b5091979650505050505050565b6000602082526113fe60208301846129a6565b6000602082526113fe60208301846129d2565b600060a08252612dd160a08301856129d2565b90506113fe6020830184612bf9565b90815260200190565b60405181810167ffffffffffffffff81118282101715612e0857600080fd5b604052919050565b6001600160a01b031690565b60005b83811015612e37578181015183820152602001612e1f565b83811115612e46576000848401525b50505050565b6001600160a01b0381168114612e6157600080fd5b50565b64ffffffffff81168114612e6157600080fdfea26469706673582212209a1c9aa3cf8123e6c4ed130dfd9dbf121081f5f970d2f1fd874b6724f634287164736f6c634300060c0033",
  "linkReferences": {},
  "deployedLinkReferences": {}
}