{
  "_format": "hh-sol-artifact-1",
  "contractName": "UiPoolDataProviderV2",
  "sourceName": "contracts/misc/UiPoolDataProviderV2.sol",
  "abi": [
    {
      "inputs": [
        {
          "internalType": "contract IPriceAggregatorAdapter",
          "name": "_networkBaseTokenPriceInUsdProxyAggregatorAdapter",
          "type": "address"
        },
        {
          "internalType": "address",
          "name": "_baseTokenAddress",
          "type": "address"
        }
      ],
      "stateMutability": "nonpayable",
      "type": "constructor"
    },
    {
      "inputs": [],
      "name": "ETH_CURRENCY_UNIT",
      "outputs": [
        {
          "internalType": "uint256",
          "name": "",
          "type": "uint256"
        }
      ],
      "stateMutability": "view",
      "type": "function"
    },
    {
      "inputs": [],
      "name": "baseTokenAddress",
      "outputs": [
        {
          "internalType": "address",
          "name": "",
          "type": "address"
        }
      ],
      "stateMutability": "view",
      "type": "function"
    },
    {
      "inputs": [
        {
          "internalType": "bytes32",
          "name": "_bytes32",
          "type": "bytes32"
        }
      ],
      "name": "bytes32ToString",
      "outputs": [
        {
          "internalType": "string",
          "name": "",
          "type": "string"
        }
      ],
      "stateMutability": "pure",
      "type": "function"
    },
    {
      "inputs": [
        {
          "internalType": "contract ILendingPoolAddressesProvider",
          "name": "provider",
          "type": "address"
        }
      ],
      "name": "getReservesData",
      "outputs": [
        {
          "components": [
            {
              "internalType": "address",
              "name": "underlyingAsset",
              "type": "address"
            },
            {
              "internalType": "string",
              "name": "name",
              "type": "string"
            },
            {
              "internalType": "string",
              "name": "symbol",
              "type": "string"
            },
            {
              "internalType": "uint256",
              "name": "decimals",
              "type": "uint256"
            },
            {
              "internalType": "uint256",
              "name": "baseLTVasCollateral",
              "type": "uint256"
            },
            {
              "internalType": "uint256",
              "name": "reserveLiquidationThreshold",
              "type": "uint256"
            },
            {
              "internalType": "uint256",
              "name": "reserveLiquidationBonus",
              "type": "uint256"
            },
            {
              "internalType": "uint256",
              "name": "reserveFactor",
              "type": "uint256"
            },
            {
              "internalType": "bool",
              "name": "usageAsCollateralEnabled",
              "type": "bool"
            },
            {
              "internalType": "bool",
              "name": "borrowingEnabled",
              "type": "bool"
            },
            {
              "internalType": "bool",
              "name": "stableBorrowRateEnabled",
              "type": "bool"
            },
            {
              "internalType": "bool",
              "name": "isActive",
              "type": "bool"
            },
            {
              "internalType": "bool",
              "name": "isFrozen",
              "type": "bool"
            },
            {
              "internalType": "uint128",
              "name": "liquidityIndex",
              "type": "uint128"
            },
            {
              "internalType": "uint128",
              "name": "variableBorrowIndex",
              "type": "uint128"
            },
            {
              "internalType": "uint128",
              "name": "liquidityRate",
              "type": "uint128"
            },
            {
              "internalType": "uint128",
              "name": "variableBorrowRate",
              "type": "uint128"
            },
            {
              "internalType": "uint128",
              "name": "stableBorrowRate",
              "type": "uint128"
            },
            {
              "internalType": "uint40",
              "name": "lastUpdateTimestamp",
              "type": "uint40"
            },
            {
              "internalType": "address",
              "name": "lTokenAddress",
              "type": "address"
            },
            {
              "internalType": "address",
              "name": "stableDebtTokenAddress",
              "type": "address"
            },
            {
              "internalType": "address",
              "name": "variableDebtTokenAddress",
              "type": "address"
            },
            {
              "internalType": "address",
              "name": "interestRateStrategyAddress",
              "type": "address"
            },
            {
              "internalType": "uint256",
              "name": "availableLiquidity",
              "type": "uint256"
            },
            {
              "internalType": "uint256",
              "name": "totalPrincipalStableDebt",
              "type": "uint256"
            },
            {
              "internalType": "uint256",
              "name": "averageStableRate",
              "type": "uint256"
            },
            {
              "internalType": "uint256",
              "name": "stableDebtLastUpdateTimestamp",
              "type": "uint256"
            },
            {
              "internalType": "uint256",
              "name": "totalScaledVariableDebt",
              "type": "uint256"
            },
            {
              "internalType": "uint256",
              "name": "priceInMarketReferenceCurrency",
              "type": "uint256"
            },
            {
              "internalType": "uint256",
              "name": "variableRateSlope1",
              "type": "uint256"
            },
            {
              "internalType": "uint256",
              "name": "variableRateSlope2",
              "type": "uint256"
            },
            {
              "internalType": "uint256",
              "name": "stableRateSlope1",
              "type": "uint256"
            },
            {
              "internalType": "uint256",
              "name": "stableRateSlope2",
              "type": "uint256"
            }
          ],
          "internalType": "struct IUiPoolDataProviderV2.AggregatedReserveData[]",
          "name": "",
          "type": "tuple[]"
        },
        {
          "components": [
            {
              "internalType": "uint256",
              "name": "marketReferenceCurrencyUnit",
              "type": "uint256"
            },
            {
              "internalType": "int256",
              "name": "marketReferenceCurrencyPriceInUsd",
              "type": "int256"
            },
            {
              "internalType": "int256",
              "name": "networkBaseTokenPriceInUsd",
              "type": "int256"
            },
            {
              "internalType": "uint8",
              "name": "networkBaseTokenPriceDecimals",
              "type": "uint8"
            }
          ],
          "internalType": "struct IUiPoolDataProviderV2.BaseCurrencyInfo",
          "name": "",
          "type": "tuple"
        }
      ],
      "stateMutability": "view",
      "type": "function"
    },
    {
      "inputs": [
        {
          "internalType": "contract ILendingPoolAddressesProvider",
          "name": "provider",
          "type": "address"
        }
      ],
      "name": "getReservesList",
      "outputs": [
        {
          "internalType": "address[]",
          "name": "",
          "type": "address[]"
        }
      ],
      "stateMutability": "view",
      "type": "function"
    },
    {
      "inputs": [
        {
          "internalType": "contract ILendingPoolAddressesProvider",
          "name": "provider",
          "type": "address"
        },
        {
          "internalType": "address",
          "name": "user",
          "type": "address"
        }
      ],
      "name": "getUserReservesData",
      "outputs": [
        {
          "components": [
            {
              "internalType": "address",
              "name": "underlyingAsset",
              "type": "address"
            },
            {
              "internalType": "uint256",
              "name": "scaledLTokenBalance",
              "type": "uint256"
            },
            {
              "internalType": "bool",
              "name": "usageAsCollateralEnabledOnUser",
              "type": "bool"
            },
            {
              "internalType": "uint256",
              "name": "stableBorrowRate",
              "type": "uint256"
            },
            {
              "internalType": "uint256",
              "name": "scaledVariableDebt",
              "type": "uint256"
            },
            {
              "internalType": "uint256",
              "name": "principalStableDebt",
              "type": "uint256"
            },
            {
              "internalType": "uint256",
              "name": "stableBorrowLastUpdateTimestamp",
              "type": "uint256"
            }
          ],
          "internalType": "struct IUiPoolDataProviderV2.UserReserveData[]",
          "name": "",
          "type": "tuple[]"
        }
      ],
      "stateMutability": "view",
      "type": "function"
    },
    {
      "inputs": [],
      "name": "networkBaseTokenPriceInUsdProxyAggregatorAdapter",
      "outputs": [
        {
          "internalType": "contract IPriceAggregatorAdapter",
          "name": "",
          "type": "address"
        }
      ],
      "stateMutability": "view",
      "type": "function"
    }
  ],
  "bytecode": "0x60c06040523480156200001157600080fd5b5060405162001fd238038062001fd2833981016040819052620000349162000053565b6001600160601b0319606092831b8116608052911b1660a052620000aa565b6000806040838503121562000066578182fd5b8251620000738162000091565b6020840151909250620000868162000091565b809150509250929050565b6001600160a01b0381168114620000a757600080fd5b50565b60805160601c60a05160601c611ef4620000de6000398061087d528061107b5250806109a7528061104e5250611ef46000f3fe608060405234801561001057600080fd5b506004361061007d5760003560e01c80637cb374bd1161005b5780637cb374bd146100e05780639201de55146100f5578063cd66697a14610115578063ec489c211461011d5761007d565b80630496f53a1461008257806351974cc0146100a0578063586c1442146100c0575b600080fd5b61008a61013e565b6040516100979190611e27565b60405180910390f35b6100b36100ae3660046117c3565b61014a565b6040516100979190611d88565b6100d36100ce3660046117a7565b610788565b6040516100979190611caa565b6100e861087b565b6040516100979190611c96565b61010861010336600461178f565b61089f565b6040516100979190611e14565b6100e86109a5565b61013061012b3660046117a7565b6109c9565b604051610097929190611cf7565b670de0b6b3a764000081565b60606000836001600160a01b0316630261bf8b6040518163ffffffff1660e01b815260040160206040518083038186803b15801561018757600080fd5b505afa15801561019b573d6000803e3d6000fd5b505050506040513d601f19601f820116820180604052508101906101bf91906116c8565b90506060816001600160a01b031663d1946dbc6040518163ffffffff1660e01b815260040160006040518083038186803b1580156101fc57600080fd5b505afa158015610210573d6000803e3d6000fd5b505050506040513d6000823e601f3d908101601f1916820160405261023891908101906116e4565b905061024261140b565b604051634417a58360e01b81526001600160a01b03841690634417a5839061026e908890600401611c96565b60206040518083038186803b15801561028657600080fd5b505afa15801561029a573d6000803e3d6000fd5b505050506040513d601f19601f820116820180604052508101906102be919061199a565b905060606001600160a01b0386166102d75760006102da565b82515b67ffffffffffffffff811180156102f057600080fd5b5060405190808252806020026020018201604052801561032a57816020015b61031761141e565b81526020019060019003908161030f5790505b50905060005b835181101561077b57610341611466565b856001600160a01b03166335ea6a7586848151811061035c57fe5b60200260200101516040518263ffffffff1660e01b81526004016103809190611c96565b6101806040518083038186803b15801561039957600080fd5b505afa1580156103ad573d6000803e3d6000fd5b505050506040513d601f19601f820116820180604052508101906103d1919061189f565b90508482815181106103df57fe5b60200260200101518383815181106103f357fe5b60209081029190910101516001600160a01b03918216905260e0820151604051630ed1279f60e11b8152911690631da24f3e90610434908b90600401611c96565b60206040518083038186803b15801561044c57600080fd5b505afa158015610460573d6000803e3d6000fd5b505050506040513d601f19601f8201168201806040525081019061048491906117fb565b83838151811061049057fe5b60209081029190910181015101526104a88483611119565b8383815181106104b457fe5b60209081029190910101519015156040909101526104d2848361117a565b15610772578061012001516001600160a01b0316631da24f3e896040518263ffffffff1660e01b81526004016105089190611c96565b60206040518083038186803b15801561052057600080fd5b505afa158015610534573d6000803e3d6000fd5b505050506040513d601f19601f8201168201806040525081019061055891906117fb565b83838151811061056457fe5b602002602001015160800181815250508061010001516001600160a01b031663c634dfaa896040518263ffffffff1660e01b81526004016105a59190611c96565b60206040518083038186803b1580156105bd57600080fd5b505afa1580156105d1573d6000803e3d6000fd5b505050506040513d601f19601f820116820180604052508101906105f591906117fb565b83838151811061060157fe5b602002602001015160a001818152505082828151811061061d57fe5b602002602001015160a00151600014610772578061010001516001600160a01b031663e78c9b3b896040518263ffffffff1660e01b81526004016106619190611c96565b60206040518083038186803b15801561067957600080fd5b505afa15801561068d573d6000803e3d6000fd5b505050506040513d601f19601f820116820180604052508101906106b191906117fb565b8383815181106106bd57fe5b602002602001015160600181815250508061010001516001600160a01b03166379ce6b8c896040518263ffffffff1660e01b81526004016106fe9190611c96565b60206040518083038186803b15801561071657600080fd5b505afa15801561072a573d6000803e3d6000fd5b505050506040513d601f19601f8201168201806040525081019061074e91906119f5565b64ffffffffff1683838151811061076157fe5b602002602001015160c00181815250505b50600101610330565b5093505050505b92915050565b60606000826001600160a01b0316630261bf8b6040518163ffffffff1660e01b815260040160206040518083038186803b1580156107c557600080fd5b505afa1580156107d9573d6000803e3d6000fd5b505050506040513d601f19601f820116820180604052508101906107fd91906116c8565b9050806001600160a01b031663d1946dbc6040518163ffffffff1660e01b815260040160006040518083038186803b15801561083857600080fd5b505afa15801561084c573d6000803e3d6000fd5b505050506040513d6000823e601f3d908101601f1916820160405261087491908101906116e4565b9392505050565b7f000000000000000000000000000000000000000000000000000000000000000081565b606060005b60208160ff161080156108d25750828160ff16602081106108c157fe5b1a60f81b6001600160f81b03191615155b156108df576001016108a4565b60608160ff1667ffffffffffffffff811180156108fb57600080fd5b506040519080825280601f01601f191660200182016040528015610926576020820181803683370190505b509050600091505b60208260ff1610801561095c5750838260ff166020811061094b57fe5b1a60f81b6001600160f81b03191615155b1561087457838260ff166020811061097057fe5b1a60f81b818360ff168151811061098357fe5b60200101906001600160f81b031916908160001a90535060019091019061092e565b7f000000000000000000000000000000000000000000000000000000000000000081565b60606109d36114d1565b6000836001600160a01b031663fca513a86040518163ffffffff1660e01b815260040160206040518083038186803b158015610a0e57600080fd5b505afa158015610a22573d6000803e3d6000fd5b505050506040513d601f19601f82011682018060405250810190610a4691906116c8565b90506000846001600160a01b0316630261bf8b6040518163ffffffff1660e01b815260040160206040518083038186803b158015610a8357600080fd5b505afa158015610a97573d6000803e3d6000fd5b505050506040513d601f19601f82011682018060405250810190610abb91906116c8565b90506060816001600160a01b031663d1946dbc6040518163ffffffff1660e01b815260040160006040518083038186803b158015610af857600080fd5b505afa158015610b0c573d6000803e3d6000fd5b505050506040513d6000823e601f3d908101601f19168201604052610b3491908101906116e4565b90506060815167ffffffffffffffff81118015610b5057600080fd5b50604051908082528060200260200182016040528015610b8a57816020015b610b776114fc565b815260200190600190039081610b6f5790505b50905060005b825181101561102e57610ba16114fc565b828281518110610bad57fe5b60200260200101519050838281518110610bc357fe5b60209081029190910101516001600160a01b03168152610be1611466565b81516040516335ea6a7560e01b81526001600160a01b038816916335ea6a7591610c0e9190600401611c96565b6101806040518083038186803b158015610c2757600080fd5b505afa158015610c3b573d6000803e3d6000fd5b505050506040513d601f19601f82011682018060405250810190610c5f919061189f565b60208101516001600160801b039081166101a085015260408083015182166101c0860152606083015182166101e08601526080830151821661020086015260a083015190911661022085015260c082015164ffffffffff1661024085015260e08201516001600160a01b03908116610260860152610100830151811661028086015261012083015181166102a086015261014083015181166102c08601528451915163b3596f0760e01b815292935089169163b3596f0791610d2391600401611c96565b60206040518083038186803b158015610d3b57600080fd5b505afa158015610d4f573d6000803e3d6000fd5b505050506040513d601f19601f82011682018060405250810190610d7391906117fb565b61038083015281516102608301516040516370a0823160e01b81526001600160a01b03909216916370a0823191610dac91600401611c96565b60206040518083038186803b158015610dc457600080fd5b505afa158015610dd8573d6000803e3d6000fd5b505050506040513d601f19601f82011682018060405250810190610dfc91906117fb565b826102e00181815250508161028001516001600160a01b031663797743386040518163ffffffff1660e01b815260040160806040518083038186803b158015610e4457600080fd5b505afa158015610e58573d6000803e3d6000fd5b505050506040513d601f19601f82011682018060405250810190610e7c91906119b5565b64ffffffffff16610340860152610320850152506103008301526102a08201516040805163b1bf962d60e01b815290516001600160a01b039092169163b1bf962d91600480820192602092909190829003018186803b158015610ede57600080fd5b505afa158015610ef2573d6000803e3d6000fd5b505050506040513d601f19601f82011682018060405250810190610f1691906117fb565b8261036001818152505081600001516001600160a01b03166395d89b416040518163ffffffff1660e01b815260040160006040518083038186803b158015610f5d57600080fd5b505afa158015610f71573d6000803e3d6000fd5b505050506040513d6000823e601f3d908101601f19168201604052610f999190810190611813565b60408301528051610fa9906111cb565b60e0870152606086015260c085015260a084015260808301528051610fcd906111f6565b1515610140860152151561012085015215156101808401521515610160830152608082015115156101008301526102c082015161100990611232565b6104008601526103e08501526103c08401526103a09092019190915250600101610b90565b506110376114d1565b60405163e9833c2f60e01b81526001600160a01b037f0000000000000000000000000000000000000000000000000000000000000000169063e9833c2f906110a3907f000000000000000000000000000000000000000000000000000000000000000090600401611c96565b60206040518083038186803b1580156110bb57600080fd5b505afa1580156110cf573d6000803e3d6000fd5b505050506040513d601f19601f820116820180604052508101906110f391906117fb565b6040820152600860608201526305f5e10080825260208201529095509350505050915091565b60006080821060405180604001604052806002815260200161373760f01b815250906111615760405162461bcd60e51b81526004016111589190611e14565b60405180910390fd5b5050815160016002830281019190911c16151592915050565b60006080821060405180604001604052806002815260200161373760f01b815250906111b95760405162461bcd60e51b81526004016111589190611e14565b50509051600160029092021c16151590565b5161ffff80821692601083901c821692602081901c831692603082901c60ff169260409290921c1690565b51670100000000000000811615159167020000000000000082161515916704000000000000008116151591670800000000000000909116151590565b600080600080846001600160a01b0316637b832f586040518163ffffffff1660e01b815260040160206040518083038186803b15801561127157600080fd5b505afa158015611285573d6000803e3d6000fd5b505050506040513d601f19601f820116820180604052508101906112a991906117fb565b856001600160a01b03166365614f816040518163ffffffff1660e01b815260040160206040518083038186803b1580156112e257600080fd5b505afa1580156112f6573d6000803e3d6000fd5b505050506040513d601f19601f8201168201806040525081019061131a91906117fb565b866001600160a01b0316630bdf953f6040518163ffffffff1660e01b815260040160206040518083038186803b15801561135357600080fd5b505afa158015611367573d6000803e3d6000fd5b505050506040513d601f19601f8201168201806040525081019061138b91906117fb565b876001600160a01b031663ccab01a36040518163ffffffff1660e01b815260040160206040518083038186803b1580156113c457600080fd5b505afa1580156113d8573d6000803e3d6000fd5b505050506040513d601f19601f820116820180604052508101906113fc91906117fb565b93509350935093509193509193565b6040518060200160405280600081525090565b6040518060e0016040528060006001600160a01b0316815260200160008152602001600015158152602001600081526020016000815260200160008152602001600081525090565b60405180610180016040528061147a61140b565b815260006020820181905260408201819052606082018190526080820181905260a0820181905260c0820181905260e082018190526101008201819052610120820181905261014082018190526101609091015290565b6040518060800160405280600081526020016000815260200160008152602001600060ff1681525090565b60405180610420016040528060006001600160a01b031681526020016060815260200160608152602001600081526020016000815260200160008152602001600081526020016000815260200160001515815260200160001515815260200160001515815260200160001515815260200160001515815260200160006001600160801b0316815260200160006001600160801b0316815260200160006001600160801b0316815260200160006001600160801b0316815260200160006001600160801b03168152602001600064ffffffffff16815260200160006001600160a01b0316815260200160006001600160a01b0316815260200160006001600160a01b0316815260200160006001600160a01b03168152602001600081526020016000815260200160008152602001600081526020016000815260200160008152602001600081526020016000815260200160008152602001600081525090565b805161078281611e93565b600060208284031215611677578081fd5b6116816020611e30565b9151825250919050565b80516001600160801b038116811461078257600080fd5b805164ffffffffff8116811461078257600080fd5b805160ff8116811461078257600080fd5b6000602082840312156116d9578081fd5b815161087481611e93565b600060208083850312156116f6578182fd5b825167ffffffffffffffff8082111561170d578384fd5b818501915085601f830112611720578384fd5b81518181111561172e578485fd5b838102915061173e848301611e30565b8181528481019084860184860187018a1015611758578788fd5b8795505b838610156117825761176e8a8261165b565b83526001959095019491860191860161175c565b5098975050505050505050565b6000602082840312156117a0578081fd5b5035919050565b6000602082840312156117b8578081fd5b813561087481611e93565b600080604083850312156117d5578081fd5b82356117e081611e93565b915060208301356117f081611e93565b809150509250929050565b60006020828403121561180c578081fd5b5051919050565b600060208284031215611824578081fd5b815167ffffffffffffffff8082111561183b578283fd5b818401915084601f83011261184e578283fd5b81518181111561185c578384fd5b61186f601f8201601f1916602001611e30565b9150808252856020828501011115611885578384fd5b611896816020840160208601611e63565b50949350505050565b60006101808083850312156118b2578182fd5b6118bb81611e30565b90506118c78484611666565b81526118d6846020850161168b565b60208201526118e8846040850161168b565b60408201526118fa846060850161168b565b606082015261190c846080850161168b565b608082015261191e8460a0850161168b565b60a08201526119308460c085016116a2565b60c08201526119428460e0850161165b565b60e08201526101006119568582860161165b565b908201526101206119698585830161165b565b9082015261014061197c8585830161165b565b9082015261016061198f858583016116b7565b908201529392505050565b6000602082840312156119ab578081fd5b6108748383611666565b600080600080608085870312156119ca578182fd5b84519350602085015192506040850151915060608501516119ea81611eab565b939692955090935050565b600060208284031215611a06578081fd5b815161087481611eab565b6001600160a01b03169052565b15159052565b60008151808452611a3c816020860160208601611e63565b601f01601f19169290920160200192915050565b6000610420611a60848451611a11565b6020830151816020860152611a7782860182611a24565b91505060408301518482036040860152611a918282611a24565b915050606083015160608501526080830151608085015260a083015160a085015260c083015160c085015260e083015160e085015261010080840151611ad982870182611a1e565b505061012080840151611aee82870182611a1e565b505061014080840151611b0382870182611a1e565b505061016080840151611b1882870182611a1e565b505061018080840151611b2d82870182611a1e565b50506101a080840151611b4282870182611c77565b50506101c080840151611b5782870182611c77565b50506101e080840151611b6c82870182611c77565b505061020080840151611b8182870182611c77565b505061022080840151611b9682870182611c77565b505061024080840151611bab82870182611c84565b505061026080840151611bc082870182611a11565b505061028080840151611bd582870182611a11565b50506102a080840151611bea82870182611a11565b50506102c080840151611bff82870182611a11565b50506102e08381015190850152610300808401519085015261032080840151908501526103408084015190850152610360808401519085015261038080840151908501526103a080840151908501526103c080840151908501526103e080840151908501526104009283015192909301919091525090565b6001600160801b03169052565b64ffffffffff169052565b60ff169052565b6001600160a01b0391909116815260200190565b6020808252825182820181905260009190848201906040850190845b81811015611ceb5783516001600160a01b031683529284019291840191600101611cc6565b50909695505050505050565b600060a0820160a0835280855180835260c0850191506020925060c0838202860101838801855b83811015611d4c5760bf19888403018552611d3a838351611a50565b94860194925090850190600101611d1e565b505080945050505083518184015280840151604084015250604083015160608301526060830151611d806080840182611c8f565b509392505050565b602080825282518282018190526000919060409081850190868401855b82811015611e07578151611db98151611e57565b8552808701518786015285810151151586860152606080820151908601526080808201519086015260a0808201519086015260c0908101519085015260e09093019290850190600101611da5565b5091979650505050505050565b6000602082526108746020830184611a24565b90815260200190565b60405181810167ffffffffffffffff81118282101715611e4f57600080fd5b604052919050565b6001600160a01b031690565b60005b83811015611e7e578181015183820152602001611e66565b83811115611e8d576000848401525b50505050565b6001600160a01b0381168114611ea857600080fd5b50565b64ffffffffff81168114611ea857600080fdfea26469706673582212202d759b91b4b689a31ee9793097d1246d248aedaa4e4515f92915df49c67030fe64736f6c634300060c0033",
  "linkReferences": {},
  "deployedLinkReferences": {}
}