{
  "_format": "hh-sol-artifact-1",
  "contractName": "UiPoolDataProviderV2",
  "sourceName": "contracts/misc/UiPoolDataProviderV2.sol",
  "abi": [
    {
      "inputs": [
        {
          "internalType": "contract IPriceAggregatorAdapter",
          "name": "_networkBaseTokenPriceInUsdProxyAggregatorAdapter",
          "type": "address"
        },
        {
          "internalType": "address",
          "name": "_baseTokenAddress",
          "type": "address"
        }
      ],
      "stateMutability": "nonpayable",
      "type": "constructor"
    },
    {
      "inputs": [],
      "name": "ETH_CURRENCY_UNIT",
      "outputs": [
        {
          "internalType": "uint256",
          "name": "",
          "type": "uint256"
        }
      ],
      "stateMutability": "view",
      "type": "function"
    },
    {
      "inputs": [],
      "name": "baseTokenAddress",
      "outputs": [
        {
          "internalType": "address",
          "name": "",
          "type": "address"
        }
      ],
      "stateMutability": "view",
      "type": "function"
    },
    {
      "inputs": [
        {
          "internalType": "bytes32",
          "name": "_bytes32",
          "type": "bytes32"
        }
      ],
      "name": "bytes32ToString",
      "outputs": [
        {
          "internalType": "string",
          "name": "",
          "type": "string"
        }
      ],
      "stateMutability": "pure",
      "type": "function"
    },
    {
      "inputs": [
        {
          "internalType": "contract ILendingPoolAddressesProvider",
          "name": "provider",
          "type": "address"
        },
        {
          "internalType": "address",
          "name": "reserve",
          "type": "address"
        }
      ],
      "name": "getReserveData",
      "outputs": [
        {
          "components": [
            {
              "internalType": "address",
              "name": "underlyingAsset",
              "type": "address"
            },
            {
              "internalType": "string",
              "name": "name",
              "type": "string"
            },
            {
              "internalType": "string",
              "name": "symbol",
              "type": "string"
            },
            {
              "internalType": "uint256",
              "name": "decimals",
              "type": "uint256"
            },
            {
              "internalType": "uint256",
              "name": "baseLTVasCollateral",
              "type": "uint256"
            },
            {
              "internalType": "uint256",
              "name": "reserveLiquidationThreshold",
              "type": "uint256"
            },
            {
              "internalType": "uint256",
              "name": "reserveLiquidationBonus",
              "type": "uint256"
            },
            {
              "internalType": "uint256",
              "name": "reserveFactor",
              "type": "uint256"
            },
            {
              "internalType": "bool",
              "name": "usageAsCollateralEnabled",
              "type": "bool"
            },
            {
              "internalType": "bool",
              "name": "borrowingEnabled",
              "type": "bool"
            },
            {
              "internalType": "bool",
              "name": "stableBorrowRateEnabled",
              "type": "bool"
            },
            {
              "internalType": "bool",
              "name": "isActive",
              "type": "bool"
            },
            {
              "internalType": "bool",
              "name": "isFrozen",
              "type": "bool"
            },
            {
              "internalType": "uint128",
              "name": "liquidityIndex",
              "type": "uint128"
            },
            {
              "internalType": "uint128",
              "name": "variableBorrowIndex",
              "type": "uint128"
            },
            {
              "internalType": "uint128",
              "name": "liquidityRate",
              "type": "uint128"
            },
            {
              "internalType": "uint128",
              "name": "variableBorrowRate",
              "type": "uint128"
            },
            {
              "internalType": "uint128",
              "name": "stableBorrowRate",
              "type": "uint128"
            },
            {
              "internalType": "uint40",
              "name": "lastUpdateTimestamp",
              "type": "uint40"
            },
            {
              "internalType": "address",
              "name": "lTokenAddress",
              "type": "address"
            },
            {
              "internalType": "address",
              "name": "stableDebtTokenAddress",
              "type": "address"
            },
            {
              "internalType": "address",
              "name": "variableDebtTokenAddress",
              "type": "address"
            },
            {
              "internalType": "address",
              "name": "interestRateStrategyAddress",
              "type": "address"
            },
            {
              "internalType": "uint256",
              "name": "availableLiquidity",
              "type": "uint256"
            },
            {
              "internalType": "uint256",
              "name": "totalPrincipalStableDebt",
              "type": "uint256"
            },
            {
              "internalType": "uint256",
              "name": "averageStableRate",
              "type": "uint256"
            },
            {
              "internalType": "uint256",
              "name": "stableDebtLastUpdateTimestamp",
              "type": "uint256"
            },
            {
              "internalType": "uint256",
              "name": "totalScaledVariableDebt",
              "type": "uint256"
            },
            {
              "internalType": "uint256",
              "name": "priceInMarketReferenceCurrency",
              "type": "uint256"
            },
            {
              "internalType": "uint256",
              "name": "variableRateSlope1",
              "type": "uint256"
            },
            {
              "internalType": "uint256",
              "name": "variableRateSlope2",
              "type": "uint256"
            },
            {
              "internalType": "uint256",
              "name": "stableRateSlope1",
              "type": "uint256"
            },
            {
              "internalType": "uint256",
              "name": "stableRateSlope2",
              "type": "uint256"
            }
          ],
          "internalType": "struct IUiPoolDataProviderV2.AggregatedReserveData",
          "name": "",
          "type": "tuple"
        },
        {
          "components": [
            {
              "internalType": "uint256",
              "name": "marketReferenceCurrencyUnit",
              "type": "uint256"
            },
            {
              "internalType": "int256",
              "name": "marketReferenceCurrencyPriceInUsd",
              "type": "int256"
            },
            {
              "internalType": "int256",
              "name": "networkBaseTokenPriceInUsd",
              "type": "int256"
            },
            {
              "internalType": "uint8",
              "name": "networkBaseTokenPriceDecimals",
              "type": "uint8"
            }
          ],
          "internalType": "struct IUiPoolDataProviderV2.BaseCurrencyInfo",
          "name": "",
          "type": "tuple"
        }
      ],
      "stateMutability": "view",
      "type": "function"
    },
    {
      "inputs": [
        {
          "internalType": "contract ILendingPoolAddressesProvider",
          "name": "provider",
          "type": "address"
        }
      ],
      "name": "getReservesData",
      "outputs": [
        {
          "components": [
            {
              "internalType": "address",
              "name": "underlyingAsset",
              "type": "address"
            },
            {
              "internalType": "string",
              "name": "name",
              "type": "string"
            },
            {
              "internalType": "string",
              "name": "symbol",
              "type": "string"
            },
            {
              "internalType": "uint256",
              "name": "decimals",
              "type": "uint256"
            },
            {
              "internalType": "uint256",
              "name": "baseLTVasCollateral",
              "type": "uint256"
            },
            {
              "internalType": "uint256",
              "name": "reserveLiquidationThreshold",
              "type": "uint256"
            },
            {
              "internalType": "uint256",
              "name": "reserveLiquidationBonus",
              "type": "uint256"
            },
            {
              "internalType": "uint256",
              "name": "reserveFactor",
              "type": "uint256"
            },
            {
              "internalType": "bool",
              "name": "usageAsCollateralEnabled",
              "type": "bool"
            },
            {
              "internalType": "bool",
              "name": "borrowingEnabled",
              "type": "bool"
            },
            {
              "internalType": "bool",
              "name": "stableBorrowRateEnabled",
              "type": "bool"
            },
            {
              "internalType": "bool",
              "name": "isActive",
              "type": "bool"
            },
            {
              "internalType": "bool",
              "name": "isFrozen",
              "type": "bool"
            },
            {
              "internalType": "uint128",
              "name": "liquidityIndex",
              "type": "uint128"
            },
            {
              "internalType": "uint128",
              "name": "variableBorrowIndex",
              "type": "uint128"
            },
            {
              "internalType": "uint128",
              "name": "liquidityRate",
              "type": "uint128"
            },
            {
              "internalType": "uint128",
              "name": "variableBorrowRate",
              "type": "uint128"
            },
            {
              "internalType": "uint128",
              "name": "stableBorrowRate",
              "type": "uint128"
            },
            {
              "internalType": "uint40",
              "name": "lastUpdateTimestamp",
              "type": "uint40"
            },
            {
              "internalType": "address",
              "name": "lTokenAddress",
              "type": "address"
            },
            {
              "internalType": "address",
              "name": "stableDebtTokenAddress",
              "type": "address"
            },
            {
              "internalType": "address",
              "name": "variableDebtTokenAddress",
              "type": "address"
            },
            {
              "internalType": "address",
              "name": "interestRateStrategyAddress",
              "type": "address"
            },
            {
              "internalType": "uint256",
              "name": "availableLiquidity",
              "type": "uint256"
            },
            {
              "internalType": "uint256",
              "name": "totalPrincipalStableDebt",
              "type": "uint256"
            },
            {
              "internalType": "uint256",
              "name": "averageStableRate",
              "type": "uint256"
            },
            {
              "internalType": "uint256",
              "name": "stableDebtLastUpdateTimestamp",
              "type": "uint256"
            },
            {
              "internalType": "uint256",
              "name": "totalScaledVariableDebt",
              "type": "uint256"
            },
            {
              "internalType": "uint256",
              "name": "priceInMarketReferenceCurrency",
              "type": "uint256"
            },
            {
              "internalType": "uint256",
              "name": "variableRateSlope1",
              "type": "uint256"
            },
            {
              "internalType": "uint256",
              "name": "variableRateSlope2",
              "type": "uint256"
            },
            {
              "internalType": "uint256",
              "name": "stableRateSlope1",
              "type": "uint256"
            },
            {
              "internalType": "uint256",
              "name": "stableRateSlope2",
              "type": "uint256"
            }
          ],
          "internalType": "struct IUiPoolDataProviderV2.AggregatedReserveData[]",
          "name": "",
          "type": "tuple[]"
        },
        {
          "components": [
            {
              "internalType": "uint256",
              "name": "marketReferenceCurrencyUnit",
              "type": "uint256"
            },
            {
              "internalType": "int256",
              "name": "marketReferenceCurrencyPriceInUsd",
              "type": "int256"
            },
            {
              "internalType": "int256",
              "name": "networkBaseTokenPriceInUsd",
              "type": "int256"
            },
            {
              "internalType": "uint8",
              "name": "networkBaseTokenPriceDecimals",
              "type": "uint8"
            }
          ],
          "internalType": "struct IUiPoolDataProviderV2.BaseCurrencyInfo",
          "name": "",
          "type": "tuple"
        }
      ],
      "stateMutability": "view",
      "type": "function"
    },
    {
      "inputs": [
        {
          "internalType": "contract ILendingPoolAddressesProvider",
          "name": "provider",
          "type": "address"
        }
      ],
      "name": "getReservesList",
      "outputs": [
        {
          "internalType": "address[]",
          "name": "",
          "type": "address[]"
        }
      ],
      "stateMutability": "view",
      "type": "function"
    },
    {
      "inputs": [
        {
          "internalType": "contract ILendingPoolAddressesProvider",
          "name": "provider",
          "type": "address"
        },
        {
          "internalType": "address",
          "name": "user",
          "type": "address"
        }
      ],
      "name": "getUserReservesData",
      "outputs": [
        {
          "components": [
            {
              "internalType": "address",
              "name": "underlyingAsset",
              "type": "address"
            },
            {
              "internalType": "uint256",
              "name": "scaledLTokenBalance",
              "type": "uint256"
            },
            {
              "internalType": "bool",
              "name": "usageAsCollateralEnabledOnUser",
              "type": "bool"
            },
            {
              "internalType": "uint256",
              "name": "stableBorrowRate",
              "type": "uint256"
            },
            {
              "internalType": "uint256",
              "name": "scaledVariableDebt",
              "type": "uint256"
            },
            {
              "internalType": "uint256",
              "name": "principalStableDebt",
              "type": "uint256"
            },
            {
              "internalType": "uint256",
              "name": "stableBorrowLastUpdateTimestamp",
              "type": "uint256"
            }
          ],
          "internalType": "struct IUiPoolDataProviderV2.UserReserveData[]",
          "name": "",
          "type": "tuple[]"
        }
      ],
      "stateMutability": "view",
      "type": "function"
    },
    {
      "inputs": [],
      "name": "networkBaseTokenPriceInUsdProxyAggregatorAdapter",
      "outputs": [
        {
          "internalType": "contract IPriceAggregatorAdapter",
          "name": "",
          "type": "address"
        }
      ],
      "stateMutability": "view",
      "type": "function"
    }
  ],
  "bytecode": "0x60c06040523480156200001157600080fd5b506040516200266338038062002663833981016040819052620000349162000053565b6001600160601b0319606092831b8116608052911b1660a052620000aa565b6000806040838503121562000066578182fd5b8251620000738162000091565b6020840151909250620000868162000091565b809150509250929050565b6001600160a01b0381168114620000a757600080fd5b50565b60805160601c60a05160601c61257b620000e8600039806107185280610eeb52806116e95250806106eb528061101552806116bc525061257b6000f3fe608060405234801561001057600080fd5b50600436106100885760003560e01c80637cb374bd1161005b5780637cb374bd1461010c5780639201de5514610121578063cd66697a14610141578063ec489c211461014957610088565b80630496f53a1461008d5780630feb1586146100ab57806351974cc0146100cc578063586c1442146100ec575b600080fd5b61009561016a565b6040516100a291906124ba565b60405180910390f35b6100be6100b9366004611e31565b610176565b6040516100a2929190612498565b6100df6100da366004611e31565b6107b8565b6040516100a291906123f8565b6100ff6100fa366004611e15565b610df6565b6040516100a2919061233a565b610114610ee9565b6040516100a29190612326565b61013461012f366004611dfd565b610f0d565b6040516100a29190612485565b610114611013565b61015c610157366004611e15565b611037565b6040516100a2929190612387565b670de0b6b3a764000081565b61017e611a79565b610186611bd8565b6000846001600160a01b031663fca513a86040518163ffffffff1660e01b815260040160206040518083038186803b1580156101c157600080fd5b505afa1580156101d5573d6000803e3d6000fd5b505050506040513d601f19601f820116820180604052508101906101f99190611d36565b90506000856001600160a01b0316630261bf8b6040518163ffffffff1660e01b815260040160206040518083038186803b15801561023657600080fd5b505afa15801561024a573d6000803e3d6000fd5b505050506040513d601f19601f8201168201806040525081019061026e9190611d36565b9050610278611a79565b6001600160a01b038616815261028c611c03565b81516040516335ea6a7560e01b81526001600160a01b038516916335ea6a75916102b99190600401612326565b6101806040518083038186803b1580156102d257600080fd5b505afa1580156102e6573d6000803e3d6000fd5b505050506040513d601f19601f8201168201806040525081019061030a9190611f0d565b60208101516001600160801b039081166101a085015260408083015182166101c0860152606083015182166101e08601526080830151821661020086015260a083015190911661022085015260c082015164ffffffffff1661024085015260e08201516001600160a01b03908116610260860152610100830151811661028086015261012083015181166102a086015261014083015181166102c08601528451915163b3596f0760e01b815292935086169163b3596f07916103ce91600401612326565b60206040518083038186803b1580156103e657600080fd5b505afa1580156103fa573d6000803e3d6000fd5b505050506040513d601f19601f8201168201806040525081019061041e9190611e69565b61038083015281516102608301516040516370a0823160e01b81526001600160a01b03909216916370a082319161045791600401612326565b60206040518083038186803b15801561046f57600080fd5b505afa158015610483573d6000803e3d6000fd5b505050506040513d601f19601f820116820180604052508101906104a79190611e69565b826102e00181815250508161028001516001600160a01b031663797743386040518163ffffffff1660e01b815260040160806040518083038186803b1580156104ef57600080fd5b505afa158015610503573d6000803e3d6000fd5b505050506040513d601f19601f820116820180604052508101906105279190612023565b64ffffffffff16610340860152610320850152506103008301526102a08201516040805163b1bf962d60e01b815290516001600160a01b039092169163b1bf962d91600480820192602092909190829003018186803b15801561058957600080fd5b505afa15801561059d573d6000803e3d6000fd5b505050506040513d601f19601f820116820180604052508101906105c19190611e69565b8261036001818152505081600001516001600160a01b03166395d89b416040518163ffffffff1660e01b815260040160006040518083038186803b15801561060857600080fd5b505afa15801561061c573d6000803e3d6000fd5b505050506040513d6000823e601f3d908101601f191682016040526106449190810190611e81565b6040830152805161065490611787565b60e0870152606086015260c085015260a084015260808301528051610678906117b2565b1515610140860152151561012085015215156101808401521515610160830152608082015115156101008301526102c08201516106b4906117ee565b6104008601526103e08501526103c08401526103a08301526106d4611bd8565b60405163e9833c2f60e01b81526001600160a01b037f0000000000000000000000000000000000000000000000000000000000000000169063e9833c2f90610740907f000000000000000000000000000000000000000000000000000000000000000090600401612326565b60206040518083038186803b15801561075857600080fd5b505afa15801561076c573d6000803e3d6000fd5b505050506040513d601f19601f820116820180604052508101906107909190611e69565b6040820152600860608201526305f5e100808252602082015291989197509095505050505050565b60606000836001600160a01b0316630261bf8b6040518163ffffffff1660e01b815260040160206040518083038186803b1580156107f557600080fd5b505afa158015610809573d6000803e3d6000fd5b505050506040513d601f19601f8201168201806040525081019061082d9190611d36565b90506060816001600160a01b031663d1946dbc6040518163ffffffff1660e01b815260040160006040518083038186803b15801561086a57600080fd5b505afa15801561087e573d6000803e3d6000fd5b505050506040513d6000823e601f3d908101601f191682016040526108a69190810190611d52565b90506108b0611c6e565b604051634417a58360e01b81526001600160a01b03841690634417a583906108dc908890600401612326565b60206040518083038186803b1580156108f457600080fd5b505afa158015610908573d6000803e3d6000fd5b505050506040513d601f19601f8201168201806040525081019061092c9190612008565b905060606001600160a01b038616610945576000610948565b82515b67ffffffffffffffff8111801561095e57600080fd5b5060405190808252806020026020018201604052801561099857816020015b610985611c81565b81526020019060019003908161097d5790505b50905060005b8351811015610de9576109af611c03565b856001600160a01b03166335ea6a758684815181106109ca57fe5b60200260200101516040518263ffffffff1660e01b81526004016109ee9190612326565b6101806040518083038186803b158015610a0757600080fd5b505afa158015610a1b573d6000803e3d6000fd5b505050506040513d601f19601f82011682018060405250810190610a3f9190611f0d565b9050848281518110610a4d57fe5b6020026020010151838381518110610a6157fe5b60209081029190910101516001600160a01b03918216905260e0820151604051630ed1279f60e11b8152911690631da24f3e90610aa2908b90600401612326565b60206040518083038186803b158015610aba57600080fd5b505afa158015610ace573d6000803e3d6000fd5b505050506040513d601f19601f82011682018060405250810190610af29190611e69565b838381518110610afe57fe5b6020908102919091018101510152610b1684836119c7565b838381518110610b2257fe5b6020908102919091010151901515604090910152610b408483611a28565b15610de0578061012001516001600160a01b0316631da24f3e896040518263ffffffff1660e01b8152600401610b769190612326565b60206040518083038186803b158015610b8e57600080fd5b505afa158015610ba2573d6000803e3d6000fd5b505050506040513d601f19601f82011682018060405250810190610bc69190611e69565b838381518110610bd257fe5b602002602001015160800181815250508061010001516001600160a01b031663c634dfaa896040518263ffffffff1660e01b8152600401610c139190612326565b60206040518083038186803b158015610c2b57600080fd5b505afa158015610c3f573d6000803e3d6000fd5b505050506040513d601f19601f82011682018060405250810190610c639190611e69565b838381518110610c6f57fe5b602002602001015160a0018181525050828281518110610c8b57fe5b602002602001015160a00151600014610de0578061010001516001600160a01b031663e78c9b3b896040518263ffffffff1660e01b8152600401610ccf9190612326565b60206040518083038186803b158015610ce757600080fd5b505afa158015610cfb573d6000803e3d6000fd5b505050506040513d601f19601f82011682018060405250810190610d1f9190611e69565b838381518110610d2b57fe5b602002602001015160600181815250508061010001516001600160a01b03166379ce6b8c896040518263ffffffff1660e01b8152600401610d6c9190612326565b60206040518083038186803b158015610d8457600080fd5b505afa158015610d98573d6000803e3d6000fd5b505050506040513d601f19601f82011682018060405250810190610dbc9190612063565b64ffffffffff16838381518110610dcf57fe5b602002602001015160c00181815250505b5060010161099e565b5093505050505b92915050565b60606000826001600160a01b0316630261bf8b6040518163ffffffff1660e01b815260040160206040518083038186803b158015610e3357600080fd5b505afa158015610e47573d6000803e3d6000fd5b505050506040513d601f19601f82011682018060405250810190610e6b9190611d36565b9050806001600160a01b031663d1946dbc6040518163ffffffff1660e01b815260040160006040518083038186803b158015610ea657600080fd5b505afa158015610eba573d6000803e3d6000fd5b505050506040513d6000823e601f3d908101601f19168201604052610ee29190810190611d52565b9392505050565b7f000000000000000000000000000000000000000000000000000000000000000081565b606060005b60208160ff16108015610f405750828160ff1660208110610f2f57fe5b1a60f81b6001600160f81b03191615155b15610f4d57600101610f12565b60608160ff1667ffffffffffffffff81118015610f6957600080fd5b506040519080825280601f01601f191660200182016040528015610f94576020820181803683370190505b509050600091505b60208260ff16108015610fca5750838260ff1660208110610fb957fe5b1a60f81b6001600160f81b03191615155b15610ee257838260ff1660208110610fde57fe5b1a60f81b818360ff1681518110610ff157fe5b60200101906001600160f81b031916908160001a905350600190910190610f9c565b7f000000000000000000000000000000000000000000000000000000000000000081565b6060611041611bd8565b6000836001600160a01b031663fca513a86040518163ffffffff1660e01b815260040160206040518083038186803b15801561107c57600080fd5b505afa158015611090573d6000803e3d6000fd5b505050506040513d601f19601f820116820180604052508101906110b49190611d36565b90506000846001600160a01b0316630261bf8b6040518163ffffffff1660e01b815260040160206040518083038186803b1580156110f157600080fd5b505afa158015611105573d6000803e3d6000fd5b505050506040513d601f19601f820116820180604052508101906111299190611d36565b90506060816001600160a01b031663d1946dbc6040518163ffffffff1660e01b815260040160006040518083038186803b15801561116657600080fd5b505afa15801561117a573d6000803e3d6000fd5b505050506040513d6000823e601f3d908101601f191682016040526111a29190810190611d52565b90506060815167ffffffffffffffff811180156111be57600080fd5b506040519080825280602002602001820160405280156111f857816020015b6111e5611a79565b8152602001906001900390816111dd5790505b50905060005b825181101561169c5761120f611a79565b82828151811061121b57fe5b6020026020010151905083828151811061123157fe5b60209081029190910101516001600160a01b0316815261124f611c03565b81516040516335ea6a7560e01b81526001600160a01b038816916335ea6a759161127c9190600401612326565b6101806040518083038186803b15801561129557600080fd5b505afa1580156112a9573d6000803e3d6000fd5b505050506040513d601f19601f820116820180604052508101906112cd9190611f0d565b60208101516001600160801b039081166101a085015260408083015182166101c0860152606083015182166101e08601526080830151821661020086015260a083015190911661022085015260c082015164ffffffffff1661024085015260e08201516001600160a01b03908116610260860152610100830151811661028086015261012083015181166102a086015261014083015181166102c08601528451915163b3596f0760e01b815292935089169163b3596f079161139191600401612326565b60206040518083038186803b1580156113a957600080fd5b505afa1580156113bd573d6000803e3d6000fd5b505050506040513d601f19601f820116820180604052508101906113e19190611e69565b61038083015281516102608301516040516370a0823160e01b81526001600160a01b03909216916370a082319161141a91600401612326565b60206040518083038186803b15801561143257600080fd5b505afa158015611446573d6000803e3d6000fd5b505050506040513d601f19601f8201168201806040525081019061146a9190611e69565b826102e00181815250508161028001516001600160a01b031663797743386040518163ffffffff1660e01b815260040160806040518083038186803b1580156114b257600080fd5b505afa1580156114c6573d6000803e3d6000fd5b505050506040513d601f19601f820116820180604052508101906114ea9190612023565b64ffffffffff16610340860152610320850152506103008301526102a08201516040805163b1bf962d60e01b815290516001600160a01b039092169163b1bf962d91600480820192602092909190829003018186803b15801561154c57600080fd5b505afa158015611560573d6000803e3d6000fd5b505050506040513d601f19601f820116820180604052508101906115849190611e69565b8261036001818152505081600001516001600160a01b03166395d89b416040518163ffffffff1660e01b815260040160006040518083038186803b1580156115cb57600080fd5b505afa1580156115df573d6000803e3d6000fd5b505050506040513d6000823e601f3d908101601f191682016040526116079190810190611e81565b6040830152805161161790611787565b60e0870152606086015260c085015260a08401526080830152805161163b906117b2565b1515610140860152151561012085015215156101808401521515610160830152608082015115156101008301526102c0820151611677906117ee565b6104008601526103e08501526103c08401526103a090920191909152506001016111fe565b506116a5611bd8565b60405163e9833c2f60e01b81526001600160a01b037f0000000000000000000000000000000000000000000000000000000000000000169063e9833c2f90611711907f000000000000000000000000000000000000000000000000000000000000000090600401612326565b60206040518083038186803b15801561172957600080fd5b505afa15801561173d573d6000803e3d6000fd5b505050506040513d601f19601f820116820180604052508101906117619190611e69565b6040820152600860608201526305f5e10080825260208201529095509350505050915091565b5161ffff80821692601083901c821692602081901c831692603082901c60ff169260409290921c1690565b51670100000000000000811615159167020000000000000082161515916704000000000000008116151591670800000000000000909116151590565b600080600080846001600160a01b0316637b832f586040518163ffffffff1660e01b815260040160206040518083038186803b15801561182d57600080fd5b505afa158015611841573d6000803e3d6000fd5b505050506040513d601f19601f820116820180604052508101906118659190611e69565b856001600160a01b03166365614f816040518163ffffffff1660e01b815260040160206040518083038186803b15801561189e57600080fd5b505afa1580156118b2573d6000803e3d6000fd5b505050506040513d601f19601f820116820180604052508101906118d69190611e69565b866001600160a01b0316630bdf953f6040518163ffffffff1660e01b815260040160206040518083038186803b15801561190f57600080fd5b505afa158015611923573d6000803e3d6000fd5b505050506040513d601f19601f820116820180604052508101906119479190611e69565b876001600160a01b031663ccab01a36040518163ffffffff1660e01b815260040160206040518083038186803b15801561198057600080fd5b505afa158015611994573d6000803e3d6000fd5b505050506040513d601f19601f820116820180604052508101906119b89190611e69565b93509350935093509193509193565b60006080821060405180604001604052806002815260200161373760f01b81525090611a0f5760405162461bcd60e51b8152600401611a069190612485565b60405180910390fd5b5050815160016002830281019190911c16151592915050565b60006080821060405180604001604052806002815260200161373760f01b81525090611a675760405162461bcd60e51b8152600401611a069190612485565b50509051600160029092021c16151590565b60405180610420016040528060006001600160a01b031681526020016060815260200160608152602001600081526020016000815260200160008152602001600081526020016000815260200160001515815260200160001515815260200160001515815260200160001515815260200160001515815260200160006001600160801b0316815260200160006001600160801b0316815260200160006001600160801b0316815260200160006001600160801b0316815260200160006001600160801b03168152602001600064ffffffffff16815260200160006001600160a01b0316815260200160006001600160a01b0316815260200160006001600160a01b0316815260200160006001600160a01b03168152602001600081526020016000815260200160008152602001600081526020016000815260200160008152602001600081526020016000815260200160008152602001600081525090565b6040518060800160405280600081526020016000815260200160008152602001600060ff1681525090565b604051806101800160405280611c17611c6e565b815260006020820181905260408201819052606082018190526080820181905260a0820181905260c0820181905260e082018190526101008201819052610120820181905261014082018190526101609091015290565b6040518060200160405280600081525090565b6040518060e0016040528060006001600160a01b0316815260200160008152602001600015158152602001600081526020016000815260200160008152602001600081525090565b8051610df08161251a565b600060208284031215611ce5578081fd5b611cef60206124c3565b9151825250919050565b80516001600160801b0381168114610df057600080fd5b805164ffffffffff81168114610df057600080fd5b805160ff81168114610df057600080fd5b600060208284031215611d47578081fd5b8151610ee28161251a565b60006020808385031215611d64578182fd5b825167ffffffffffffffff80821115611d7b578384fd5b818501915085601f830112611d8e578384fd5b815181811115611d9c578485fd5b8381029150611dac8483016124c3565b8181528481019084860184860187018a1015611dc6578788fd5b8795505b83861015611df057611ddc8a82611cc9565b835260019590950194918601918601611dca565b5098975050505050505050565b600060208284031215611e0e578081fd5b5035919050565b600060208284031215611e26578081fd5b8135610ee28161251a565b60008060408385031215611e43578081fd5b8235611e4e8161251a565b91506020830135611e5e8161251a565b809150509250929050565b600060208284031215611e7a578081fd5b5051919050565b600060208284031215611e92578081fd5b815167ffffffffffffffff80821115611ea9578283fd5b818401915084601f830112611ebc578283fd5b815181811115611eca578384fd5b611edd601f8201601f19166020016124c3565b9150808252856020828501011115611ef3578384fd5b611f048160208401602086016124ea565b50949350505050565b6000610180808385031215611f20578182fd5b611f29816124c3565b9050611f358484611cd4565b8152611f448460208501611cf9565b6020820152611f568460408501611cf9565b6040820152611f688460608501611cf9565b6060820152611f7a8460808501611cf9565b6080820152611f8c8460a08501611cf9565b60a0820152611f9e8460c08501611d10565b60c0820152611fb08460e08501611cc9565b60e0820152610100611fc485828601611cc9565b90820152610120611fd785858301611cc9565b90820152610140611fea85858301611cc9565b90820152610160611ffd85858301611d25565b908201529392505050565b600060208284031215612019578081fd5b610ee28383611cd4565b60008060008060808587031215612038578182fd5b845193506020850151925060408501519150606085015161205881612532565b939692955090935050565b600060208284031215612074578081fd5b8151610ee281612532565b6001600160a01b03169052565b15159052565b600081518084526120aa8160208601602086016124ea565b601f01601f19169290920160200192915050565b60006104206120ce84845161207f565b60208301518160208601526120e582860182612092565b915050604083015184820360408601526120ff8282612092565b915050606083015160608501526080830151608085015260a083015160a085015260c083015160c085015260e083015160e0850152610100808401516121478287018261208c565b50506101208084015161215c8287018261208c565b5050610140808401516121718287018261208c565b5050610160808401516121868287018261208c565b50506101808084015161219b8287018261208c565b50506101a0808401516121b08287018261230e565b50506101c0808401516121c58287018261230e565b50506101e0808401516121da8287018261230e565b5050610200808401516121ef8287018261230e565b5050610220808401516122048287018261230e565b5050610240808401516122198287018261231b565b50506102608084015161222e8287018261207f565b5050610280808401516122438287018261207f565b50506102a0808401516122588287018261207f565b50506102c08084015161226d8287018261207f565b50506102e08381015190850152610300808401519085015261032080840151908501526103408084015190850152610360808401519085015261038080840151908501526103a080840151908501526103c080840151908501526103e080840151908501526104009283015192909301919091525090565b80518252602081015160208301526040810151604083015260ff60608201511660608301525050565b6001600160801b03169052565b64ffffffffff169052565b6001600160a01b0391909116815260200190565b6020808252825182820181905260009190848201906040850190845b8181101561237b5783516001600160a01b031683529284019291840191600101612356565b50909695505050505050565b600060a0820160a0835280855180835260c0850191506020925060c0838202860101838801855b838110156123dc5760bf198884030185526123ca8383516120be565b948601949250908501906001016123ae565b50508094505050506123f0818401856122e5565b509392505050565b602080825282518282018190526000919060409081850190868401855b8281101561247857815180516001600160a01b03168552868101518786015285810151151586860152606080820151908601526080808201519086015260a0808201519086015260c0908101519085015260e09093019290850190600101612415565b5091979650505050505050565b600060208252610ee26020830184612092565b600060a082526124ab60a08301856120be565b9050610ee260208301846122e5565b90815260200190565b60405181810167ffffffffffffffff811182821017156124e257600080fd5b604052919050565b60005b838110156125055781810151838201526020016124ed565b83811115612514576000848401525b50505050565b6001600160a01b038116811461252f57600080fd5b50565b64ffffffffff8116811461252f57600080fdfea2646970667358221220ced1bb1ee53db865f95178b27f399b20adfbfb6bb73590e69d46ae2687e757ba64736f6c634300060c0033",
  "linkReferences": {},
  "deployedLinkReferences": {}
}