{
  "_format": "hh-sol-artifact-1",
  "contractName": "UiPoolDataProviderV2",
  "sourceName": "contracts/misc/UiPoolDataProviderV2.sol",
  "abi": [
    {
      "inputs": [
        {
          "internalType": "contract IPriceAggregatorAdapter",
          "name": "_networkBaseTokenPriceInUsdProxyAggregatorAdapter",
          "type": "address"
        },
        {
          "internalType": "address",
          "name": "_baseTokenAddress",
          "type": "address"
        }
      ],
      "stateMutability": "nonpayable",
      "type": "constructor"
    },
    {
      "inputs": [],
      "name": "ETH_CURRENCY_UNIT",
      "outputs": [
        {
          "internalType": "uint256",
          "name": "",
          "type": "uint256"
        }
      ],
      "stateMutability": "view",
      "type": "function"
    },
    {
      "inputs": [],
      "name": "baseTokenAddress",
      "outputs": [
        {
          "internalType": "address",
          "name": "",
          "type": "address"
        }
      ],
      "stateMutability": "view",
      "type": "function"
    },
    {
      "inputs": [
        {
          "internalType": "bytes32",
          "name": "_bytes32",
          "type": "bytes32"
        }
      ],
      "name": "bytes32ToString",
      "outputs": [
        {
          "internalType": "string",
          "name": "",
          "type": "string"
        }
      ],
      "stateMutability": "pure",
      "type": "function"
    },
    {
      "inputs": [
        {
          "internalType": "contract ILendingPoolAddressesProvider",
          "name": "provider",
          "type": "address"
        },
        {
          "internalType": "address",
          "name": "reserve",
          "type": "address"
        }
      ],
      "name": "getFlagsMemory",
      "outputs": [
        {
          "components": [
            {
              "internalType": "address",
              "name": "underlyingAsset",
              "type": "address"
            },
            {
              "internalType": "string",
              "name": "name",
              "type": "string"
            },
            {
              "internalType": "string",
              "name": "symbol",
              "type": "string"
            },
            {
              "internalType": "uint256",
              "name": "decimals",
              "type": "uint256"
            },
            {
              "internalType": "uint256",
              "name": "baseLTVasCollateral",
              "type": "uint256"
            },
            {
              "internalType": "uint256",
              "name": "reserveLiquidationThreshold",
              "type": "uint256"
            },
            {
              "internalType": "uint256",
              "name": "reserveLiquidationBonus",
              "type": "uint256"
            },
            {
              "internalType": "uint256",
              "name": "reserveFactor",
              "type": "uint256"
            },
            {
              "internalType": "bool",
              "name": "usageAsCollateralEnabled",
              "type": "bool"
            },
            {
              "internalType": "bool",
              "name": "borrowingEnabled",
              "type": "bool"
            },
            {
              "internalType": "bool",
              "name": "stableBorrowRateEnabled",
              "type": "bool"
            },
            {
              "internalType": "bool",
              "name": "isActive",
              "type": "bool"
            },
            {
              "internalType": "bool",
              "name": "isFrozen",
              "type": "bool"
            },
            {
              "internalType": "uint128",
              "name": "liquidityIndex",
              "type": "uint128"
            },
            {
              "internalType": "uint128",
              "name": "variableBorrowIndex",
              "type": "uint128"
            },
            {
              "internalType": "uint128",
              "name": "liquidityRate",
              "type": "uint128"
            },
            {
              "internalType": "uint128",
              "name": "variableBorrowRate",
              "type": "uint128"
            },
            {
              "internalType": "uint128",
              "name": "stableBorrowRate",
              "type": "uint128"
            },
            {
              "internalType": "uint40",
              "name": "lastUpdateTimestamp",
              "type": "uint40"
            },
            {
              "internalType": "address",
              "name": "lTokenAddress",
              "type": "address"
            },
            {
              "internalType": "address",
              "name": "stableDebtTokenAddress",
              "type": "address"
            },
            {
              "internalType": "address",
              "name": "variableDebtTokenAddress",
              "type": "address"
            },
            {
              "internalType": "address",
              "name": "interestRateStrategyAddress",
              "type": "address"
            },
            {
              "internalType": "uint256",
              "name": "availableLiquidity",
              "type": "uint256"
            },
            {
              "internalType": "uint256",
              "name": "totalPrincipalStableDebt",
              "type": "uint256"
            },
            {
              "internalType": "uint256",
              "name": "averageStableRate",
              "type": "uint256"
            },
            {
              "internalType": "uint256",
              "name": "stableDebtLastUpdateTimestamp",
              "type": "uint256"
            },
            {
              "internalType": "uint256",
              "name": "totalScaledVariableDebt",
              "type": "uint256"
            },
            {
              "internalType": "uint256",
              "name": "priceInMarketReferenceCurrency",
              "type": "uint256"
            },
            {
              "internalType": "uint256",
              "name": "variableRateSlope1",
              "type": "uint256"
            },
            {
              "internalType": "uint256",
              "name": "variableRateSlope2",
              "type": "uint256"
            },
            {
              "internalType": "uint256",
              "name": "stableRateSlope1",
              "type": "uint256"
            },
            {
              "internalType": "uint256",
              "name": "stableRateSlope2",
              "type": "uint256"
            }
          ],
          "internalType": "struct IUiPoolDataProviderV2.AggregatedReserveData",
          "name": "",
          "type": "tuple"
        }
      ],
      "stateMutability": "view",
      "type": "function"
    },
    {
      "inputs": [
        {
          "internalType": "contract ILendingPoolAddressesProvider",
          "name": "provider",
          "type": "address"
        },
        {
          "internalType": "address",
          "name": "reserve",
          "type": "address"
        }
      ],
      "name": "getLTokenBalance",
      "outputs": [
        {
          "components": [
            {
              "internalType": "address",
              "name": "underlyingAsset",
              "type": "address"
            },
            {
              "internalType": "string",
              "name": "name",
              "type": "string"
            },
            {
              "internalType": "string",
              "name": "symbol",
              "type": "string"
            },
            {
              "internalType": "uint256",
              "name": "decimals",
              "type": "uint256"
            },
            {
              "internalType": "uint256",
              "name": "baseLTVasCollateral",
              "type": "uint256"
            },
            {
              "internalType": "uint256",
              "name": "reserveLiquidationThreshold",
              "type": "uint256"
            },
            {
              "internalType": "uint256",
              "name": "reserveLiquidationBonus",
              "type": "uint256"
            },
            {
              "internalType": "uint256",
              "name": "reserveFactor",
              "type": "uint256"
            },
            {
              "internalType": "bool",
              "name": "usageAsCollateralEnabled",
              "type": "bool"
            },
            {
              "internalType": "bool",
              "name": "borrowingEnabled",
              "type": "bool"
            },
            {
              "internalType": "bool",
              "name": "stableBorrowRateEnabled",
              "type": "bool"
            },
            {
              "internalType": "bool",
              "name": "isActive",
              "type": "bool"
            },
            {
              "internalType": "bool",
              "name": "isFrozen",
              "type": "bool"
            },
            {
              "internalType": "uint128",
              "name": "liquidityIndex",
              "type": "uint128"
            },
            {
              "internalType": "uint128",
              "name": "variableBorrowIndex",
              "type": "uint128"
            },
            {
              "internalType": "uint128",
              "name": "liquidityRate",
              "type": "uint128"
            },
            {
              "internalType": "uint128",
              "name": "variableBorrowRate",
              "type": "uint128"
            },
            {
              "internalType": "uint128",
              "name": "stableBorrowRate",
              "type": "uint128"
            },
            {
              "internalType": "uint40",
              "name": "lastUpdateTimestamp",
              "type": "uint40"
            },
            {
              "internalType": "address",
              "name": "lTokenAddress",
              "type": "address"
            },
            {
              "internalType": "address",
              "name": "stableDebtTokenAddress",
              "type": "address"
            },
            {
              "internalType": "address",
              "name": "variableDebtTokenAddress",
              "type": "address"
            },
            {
              "internalType": "address",
              "name": "interestRateStrategyAddress",
              "type": "address"
            },
            {
              "internalType": "uint256",
              "name": "availableLiquidity",
              "type": "uint256"
            },
            {
              "internalType": "uint256",
              "name": "totalPrincipalStableDebt",
              "type": "uint256"
            },
            {
              "internalType": "uint256",
              "name": "averageStableRate",
              "type": "uint256"
            },
            {
              "internalType": "uint256",
              "name": "stableDebtLastUpdateTimestamp",
              "type": "uint256"
            },
            {
              "internalType": "uint256",
              "name": "totalScaledVariableDebt",
              "type": "uint256"
            },
            {
              "internalType": "uint256",
              "name": "priceInMarketReferenceCurrency",
              "type": "uint256"
            },
            {
              "internalType": "uint256",
              "name": "variableRateSlope1",
              "type": "uint256"
            },
            {
              "internalType": "uint256",
              "name": "variableRateSlope2",
              "type": "uint256"
            },
            {
              "internalType": "uint256",
              "name": "stableRateSlope1",
              "type": "uint256"
            },
            {
              "internalType": "uint256",
              "name": "stableRateSlope2",
              "type": "uint256"
            }
          ],
          "internalType": "struct IUiPoolDataProviderV2.AggregatedReserveData",
          "name": "",
          "type": "tuple"
        }
      ],
      "stateMutability": "view",
      "type": "function"
    },
    {
      "inputs": [
        {
          "internalType": "contract ILendingPoolAddressesProvider",
          "name": "provider",
          "type": "address"
        },
        {
          "internalType": "address",
          "name": "reserve",
          "type": "address"
        }
      ],
      "name": "getParamsMemory",
      "outputs": [
        {
          "components": [
            {
              "internalType": "address",
              "name": "underlyingAsset",
              "type": "address"
            },
            {
              "internalType": "string",
              "name": "name",
              "type": "string"
            },
            {
              "internalType": "string",
              "name": "symbol",
              "type": "string"
            },
            {
              "internalType": "uint256",
              "name": "decimals",
              "type": "uint256"
            },
            {
              "internalType": "uint256",
              "name": "baseLTVasCollateral",
              "type": "uint256"
            },
            {
              "internalType": "uint256",
              "name": "reserveLiquidationThreshold",
              "type": "uint256"
            },
            {
              "internalType": "uint256",
              "name": "reserveLiquidationBonus",
              "type": "uint256"
            },
            {
              "internalType": "uint256",
              "name": "reserveFactor",
              "type": "uint256"
            },
            {
              "internalType": "bool",
              "name": "usageAsCollateralEnabled",
              "type": "bool"
            },
            {
              "internalType": "bool",
              "name": "borrowingEnabled",
              "type": "bool"
            },
            {
              "internalType": "bool",
              "name": "stableBorrowRateEnabled",
              "type": "bool"
            },
            {
              "internalType": "bool",
              "name": "isActive",
              "type": "bool"
            },
            {
              "internalType": "bool",
              "name": "isFrozen",
              "type": "bool"
            },
            {
              "internalType": "uint128",
              "name": "liquidityIndex",
              "type": "uint128"
            },
            {
              "internalType": "uint128",
              "name": "variableBorrowIndex",
              "type": "uint128"
            },
            {
              "internalType": "uint128",
              "name": "liquidityRate",
              "type": "uint128"
            },
            {
              "internalType": "uint128",
              "name": "variableBorrowRate",
              "type": "uint128"
            },
            {
              "internalType": "uint128",
              "name": "stableBorrowRate",
              "type": "uint128"
            },
            {
              "internalType": "uint40",
              "name": "lastUpdateTimestamp",
              "type": "uint40"
            },
            {
              "internalType": "address",
              "name": "lTokenAddress",
              "type": "address"
            },
            {
              "internalType": "address",
              "name": "stableDebtTokenAddress",
              "type": "address"
            },
            {
              "internalType": "address",
              "name": "variableDebtTokenAddress",
              "type": "address"
            },
            {
              "internalType": "address",
              "name": "interestRateStrategyAddress",
              "type": "address"
            },
            {
              "internalType": "uint256",
              "name": "availableLiquidity",
              "type": "uint256"
            },
            {
              "internalType": "uint256",
              "name": "totalPrincipalStableDebt",
              "type": "uint256"
            },
            {
              "internalType": "uint256",
              "name": "averageStableRate",
              "type": "uint256"
            },
            {
              "internalType": "uint256",
              "name": "stableDebtLastUpdateTimestamp",
              "type": "uint256"
            },
            {
              "internalType": "uint256",
              "name": "totalScaledVariableDebt",
              "type": "uint256"
            },
            {
              "internalType": "uint256",
              "name": "priceInMarketReferenceCurrency",
              "type": "uint256"
            },
            {
              "internalType": "uint256",
              "name": "variableRateSlope1",
              "type": "uint256"
            },
            {
              "internalType": "uint256",
              "name": "variableRateSlope2",
              "type": "uint256"
            },
            {
              "internalType": "uint256",
              "name": "stableRateSlope1",
              "type": "uint256"
            },
            {
              "internalType": "uint256",
              "name": "stableRateSlope2",
              "type": "uint256"
            }
          ],
          "internalType": "struct IUiPoolDataProviderV2.AggregatedReserveData",
          "name": "",
          "type": "tuple"
        }
      ],
      "stateMutability": "view",
      "type": "function"
    },
    {
      "inputs": [
        {
          "internalType": "contract ILendingPoolAddressesProvider",
          "name": "provider",
          "type": "address"
        },
        {
          "internalType": "address",
          "name": "reserve",
          "type": "address"
        }
      ],
      "name": "getReserveBaseData",
      "outputs": [
        {
          "components": [
            {
              "internalType": "address",
              "name": "underlyingAsset",
              "type": "address"
            },
            {
              "internalType": "string",
              "name": "name",
              "type": "string"
            },
            {
              "internalType": "string",
              "name": "symbol",
              "type": "string"
            },
            {
              "internalType": "uint256",
              "name": "decimals",
              "type": "uint256"
            },
            {
              "internalType": "uint256",
              "name": "baseLTVasCollateral",
              "type": "uint256"
            },
            {
              "internalType": "uint256",
              "name": "reserveLiquidationThreshold",
              "type": "uint256"
            },
            {
              "internalType": "uint256",
              "name": "reserveLiquidationBonus",
              "type": "uint256"
            },
            {
              "internalType": "uint256",
              "name": "reserveFactor",
              "type": "uint256"
            },
            {
              "internalType": "bool",
              "name": "usageAsCollateralEnabled",
              "type": "bool"
            },
            {
              "internalType": "bool",
              "name": "borrowingEnabled",
              "type": "bool"
            },
            {
              "internalType": "bool",
              "name": "stableBorrowRateEnabled",
              "type": "bool"
            },
            {
              "internalType": "bool",
              "name": "isActive",
              "type": "bool"
            },
            {
              "internalType": "bool",
              "name": "isFrozen",
              "type": "bool"
            },
            {
              "internalType": "uint128",
              "name": "liquidityIndex",
              "type": "uint128"
            },
            {
              "internalType": "uint128",
              "name": "variableBorrowIndex",
              "type": "uint128"
            },
            {
              "internalType": "uint128",
              "name": "liquidityRate",
              "type": "uint128"
            },
            {
              "internalType": "uint128",
              "name": "variableBorrowRate",
              "type": "uint128"
            },
            {
              "internalType": "uint128",
              "name": "stableBorrowRate",
              "type": "uint128"
            },
            {
              "internalType": "uint40",
              "name": "lastUpdateTimestamp",
              "type": "uint40"
            },
            {
              "internalType": "address",
              "name": "lTokenAddress",
              "type": "address"
            },
            {
              "internalType": "address",
              "name": "stableDebtTokenAddress",
              "type": "address"
            },
            {
              "internalType": "address",
              "name": "variableDebtTokenAddress",
              "type": "address"
            },
            {
              "internalType": "address",
              "name": "interestRateStrategyAddress",
              "type": "address"
            },
            {
              "internalType": "uint256",
              "name": "availableLiquidity",
              "type": "uint256"
            },
            {
              "internalType": "uint256",
              "name": "totalPrincipalStableDebt",
              "type": "uint256"
            },
            {
              "internalType": "uint256",
              "name": "averageStableRate",
              "type": "uint256"
            },
            {
              "internalType": "uint256",
              "name": "stableDebtLastUpdateTimestamp",
              "type": "uint256"
            },
            {
              "internalType": "uint256",
              "name": "totalScaledVariableDebt",
              "type": "uint256"
            },
            {
              "internalType": "uint256",
              "name": "priceInMarketReferenceCurrency",
              "type": "uint256"
            },
            {
              "internalType": "uint256",
              "name": "variableRateSlope1",
              "type": "uint256"
            },
            {
              "internalType": "uint256",
              "name": "variableRateSlope2",
              "type": "uint256"
            },
            {
              "internalType": "uint256",
              "name": "stableRateSlope1",
              "type": "uint256"
            },
            {
              "internalType": "uint256",
              "name": "stableRateSlope2",
              "type": "uint256"
            }
          ],
          "internalType": "struct IUiPoolDataProviderV2.AggregatedReserveData",
          "name": "",
          "type": "tuple"
        }
      ],
      "stateMutability": "view",
      "type": "function"
    },
    {
      "inputs": [
        {
          "internalType": "contract ILendingPoolAddressesProvider",
          "name": "provider",
          "type": "address"
        },
        {
          "internalType": "address",
          "name": "reserve",
          "type": "address"
        }
      ],
      "name": "getReserveData",
      "outputs": [
        {
          "components": [
            {
              "internalType": "address",
              "name": "underlyingAsset",
              "type": "address"
            },
            {
              "internalType": "string",
              "name": "name",
              "type": "string"
            },
            {
              "internalType": "string",
              "name": "symbol",
              "type": "string"
            },
            {
              "internalType": "uint256",
              "name": "decimals",
              "type": "uint256"
            },
            {
              "internalType": "uint256",
              "name": "baseLTVasCollateral",
              "type": "uint256"
            },
            {
              "internalType": "uint256",
              "name": "reserveLiquidationThreshold",
              "type": "uint256"
            },
            {
              "internalType": "uint256",
              "name": "reserveLiquidationBonus",
              "type": "uint256"
            },
            {
              "internalType": "uint256",
              "name": "reserveFactor",
              "type": "uint256"
            },
            {
              "internalType": "bool",
              "name": "usageAsCollateralEnabled",
              "type": "bool"
            },
            {
              "internalType": "bool",
              "name": "borrowingEnabled",
              "type": "bool"
            },
            {
              "internalType": "bool",
              "name": "stableBorrowRateEnabled",
              "type": "bool"
            },
            {
              "internalType": "bool",
              "name": "isActive",
              "type": "bool"
            },
            {
              "internalType": "bool",
              "name": "isFrozen",
              "type": "bool"
            },
            {
              "internalType": "uint128",
              "name": "liquidityIndex",
              "type": "uint128"
            },
            {
              "internalType": "uint128",
              "name": "variableBorrowIndex",
              "type": "uint128"
            },
            {
              "internalType": "uint128",
              "name": "liquidityRate",
              "type": "uint128"
            },
            {
              "internalType": "uint128",
              "name": "variableBorrowRate",
              "type": "uint128"
            },
            {
              "internalType": "uint128",
              "name": "stableBorrowRate",
              "type": "uint128"
            },
            {
              "internalType": "uint40",
              "name": "lastUpdateTimestamp",
              "type": "uint40"
            },
            {
              "internalType": "address",
              "name": "lTokenAddress",
              "type": "address"
            },
            {
              "internalType": "address",
              "name": "stableDebtTokenAddress",
              "type": "address"
            },
            {
              "internalType": "address",
              "name": "variableDebtTokenAddress",
              "type": "address"
            },
            {
              "internalType": "address",
              "name": "interestRateStrategyAddress",
              "type": "address"
            },
            {
              "internalType": "uint256",
              "name": "availableLiquidity",
              "type": "uint256"
            },
            {
              "internalType": "uint256",
              "name": "totalPrincipalStableDebt",
              "type": "uint256"
            },
            {
              "internalType": "uint256",
              "name": "averageStableRate",
              "type": "uint256"
            },
            {
              "internalType": "uint256",
              "name": "stableDebtLastUpdateTimestamp",
              "type": "uint256"
            },
            {
              "internalType": "uint256",
              "name": "totalScaledVariableDebt",
              "type": "uint256"
            },
            {
              "internalType": "uint256",
              "name": "priceInMarketReferenceCurrency",
              "type": "uint256"
            },
            {
              "internalType": "uint256",
              "name": "variableRateSlope1",
              "type": "uint256"
            },
            {
              "internalType": "uint256",
              "name": "variableRateSlope2",
              "type": "uint256"
            },
            {
              "internalType": "uint256",
              "name": "stableRateSlope1",
              "type": "uint256"
            },
            {
              "internalType": "uint256",
              "name": "stableRateSlope2",
              "type": "uint256"
            }
          ],
          "internalType": "struct IUiPoolDataProviderV2.AggregatedReserveData",
          "name": "",
          "type": "tuple"
        },
        {
          "components": [
            {
              "internalType": "uint256",
              "name": "marketReferenceCurrencyUnit",
              "type": "uint256"
            },
            {
              "internalType": "int256",
              "name": "marketReferenceCurrencyPriceInUsd",
              "type": "int256"
            },
            {
              "internalType": "int256",
              "name": "networkBaseTokenPriceInUsd",
              "type": "int256"
            },
            {
              "internalType": "uint8",
              "name": "networkBaseTokenPriceDecimals",
              "type": "uint8"
            }
          ],
          "internalType": "struct IUiPoolDataProviderV2.BaseCurrencyInfo",
          "name": "",
          "type": "tuple"
        }
      ],
      "stateMutability": "view",
      "type": "function"
    },
    {
      "inputs": [
        {
          "internalType": "contract ILendingPoolAddressesProvider",
          "name": "provider",
          "type": "address"
        },
        {
          "internalType": "address",
          "name": "reserve",
          "type": "address"
        }
      ],
      "name": "getReserveSymbol",
      "outputs": [
        {
          "components": [
            {
              "internalType": "address",
              "name": "underlyingAsset",
              "type": "address"
            },
            {
              "internalType": "string",
              "name": "name",
              "type": "string"
            },
            {
              "internalType": "string",
              "name": "symbol",
              "type": "string"
            },
            {
              "internalType": "uint256",
              "name": "decimals",
              "type": "uint256"
            },
            {
              "internalType": "uint256",
              "name": "baseLTVasCollateral",
              "type": "uint256"
            },
            {
              "internalType": "uint256",
              "name": "reserveLiquidationThreshold",
              "type": "uint256"
            },
            {
              "internalType": "uint256",
              "name": "reserveLiquidationBonus",
              "type": "uint256"
            },
            {
              "internalType": "uint256",
              "name": "reserveFactor",
              "type": "uint256"
            },
            {
              "internalType": "bool",
              "name": "usageAsCollateralEnabled",
              "type": "bool"
            },
            {
              "internalType": "bool",
              "name": "borrowingEnabled",
              "type": "bool"
            },
            {
              "internalType": "bool",
              "name": "stableBorrowRateEnabled",
              "type": "bool"
            },
            {
              "internalType": "bool",
              "name": "isActive",
              "type": "bool"
            },
            {
              "internalType": "bool",
              "name": "isFrozen",
              "type": "bool"
            },
            {
              "internalType": "uint128",
              "name": "liquidityIndex",
              "type": "uint128"
            },
            {
              "internalType": "uint128",
              "name": "variableBorrowIndex",
              "type": "uint128"
            },
            {
              "internalType": "uint128",
              "name": "liquidityRate",
              "type": "uint128"
            },
            {
              "internalType": "uint128",
              "name": "variableBorrowRate",
              "type": "uint128"
            },
            {
              "internalType": "uint128",
              "name": "stableBorrowRate",
              "type": "uint128"
            },
            {
              "internalType": "uint40",
              "name": "lastUpdateTimestamp",
              "type": "uint40"
            },
            {
              "internalType": "address",
              "name": "lTokenAddress",
              "type": "address"
            },
            {
              "internalType": "address",
              "name": "stableDebtTokenAddress",
              "type": "address"
            },
            {
              "internalType": "address",
              "name": "variableDebtTokenAddress",
              "type": "address"
            },
            {
              "internalType": "address",
              "name": "interestRateStrategyAddress",
              "type": "address"
            },
            {
              "internalType": "uint256",
              "name": "availableLiquidity",
              "type": "uint256"
            },
            {
              "internalType": "uint256",
              "name": "totalPrincipalStableDebt",
              "type": "uint256"
            },
            {
              "internalType": "uint256",
              "name": "averageStableRate",
              "type": "uint256"
            },
            {
              "internalType": "uint256",
              "name": "stableDebtLastUpdateTimestamp",
              "type": "uint256"
            },
            {
              "internalType": "uint256",
              "name": "totalScaledVariableDebt",
              "type": "uint256"
            },
            {
              "internalType": "uint256",
              "name": "priceInMarketReferenceCurrency",
              "type": "uint256"
            },
            {
              "internalType": "uint256",
              "name": "variableRateSlope1",
              "type": "uint256"
            },
            {
              "internalType": "uint256",
              "name": "variableRateSlope2",
              "type": "uint256"
            },
            {
              "internalType": "uint256",
              "name": "stableRateSlope1",
              "type": "uint256"
            },
            {
              "internalType": "uint256",
              "name": "stableRateSlope2",
              "type": "uint256"
            }
          ],
          "internalType": "struct IUiPoolDataProviderV2.AggregatedReserveData",
          "name": "",
          "type": "tuple"
        }
      ],
      "stateMutability": "view",
      "type": "function"
    },
    {
      "inputs": [
        {
          "internalType": "contract ILendingPoolAddressesProvider",
          "name": "provider",
          "type": "address"
        },
        {
          "internalType": "address",
          "name": "reserve",
          "type": "address"
        }
      ],
      "name": "getReserveTokensData",
      "outputs": [
        {
          "components": [
            {
              "internalType": "address",
              "name": "underlyingAsset",
              "type": "address"
            },
            {
              "internalType": "string",
              "name": "name",
              "type": "string"
            },
            {
              "internalType": "string",
              "name": "symbol",
              "type": "string"
            },
            {
              "internalType": "uint256",
              "name": "decimals",
              "type": "uint256"
            },
            {
              "internalType": "uint256",
              "name": "baseLTVasCollateral",
              "type": "uint256"
            },
            {
              "internalType": "uint256",
              "name": "reserveLiquidationThreshold",
              "type": "uint256"
            },
            {
              "internalType": "uint256",
              "name": "reserveLiquidationBonus",
              "type": "uint256"
            },
            {
              "internalType": "uint256",
              "name": "reserveFactor",
              "type": "uint256"
            },
            {
              "internalType": "bool",
              "name": "usageAsCollateralEnabled",
              "type": "bool"
            },
            {
              "internalType": "bool",
              "name": "borrowingEnabled",
              "type": "bool"
            },
            {
              "internalType": "bool",
              "name": "stableBorrowRateEnabled",
              "type": "bool"
            },
            {
              "internalType": "bool",
              "name": "isActive",
              "type": "bool"
            },
            {
              "internalType": "bool",
              "name": "isFrozen",
              "type": "bool"
            },
            {
              "internalType": "uint128",
              "name": "liquidityIndex",
              "type": "uint128"
            },
            {
              "internalType": "uint128",
              "name": "variableBorrowIndex",
              "type": "uint128"
            },
            {
              "internalType": "uint128",
              "name": "liquidityRate",
              "type": "uint128"
            },
            {
              "internalType": "uint128",
              "name": "variableBorrowRate",
              "type": "uint128"
            },
            {
              "internalType": "uint128",
              "name": "stableBorrowRate",
              "type": "uint128"
            },
            {
              "internalType": "uint40",
              "name": "lastUpdateTimestamp",
              "type": "uint40"
            },
            {
              "internalType": "address",
              "name": "lTokenAddress",
              "type": "address"
            },
            {
              "internalType": "address",
              "name": "stableDebtTokenAddress",
              "type": "address"
            },
            {
              "internalType": "address",
              "name": "variableDebtTokenAddress",
              "type": "address"
            },
            {
              "internalType": "address",
              "name": "interestRateStrategyAddress",
              "type": "address"
            },
            {
              "internalType": "uint256",
              "name": "availableLiquidity",
              "type": "uint256"
            },
            {
              "internalType": "uint256",
              "name": "totalPrincipalStableDebt",
              "type": "uint256"
            },
            {
              "internalType": "uint256",
              "name": "averageStableRate",
              "type": "uint256"
            },
            {
              "internalType": "uint256",
              "name": "stableDebtLastUpdateTimestamp",
              "type": "uint256"
            },
            {
              "internalType": "uint256",
              "name": "totalScaledVariableDebt",
              "type": "uint256"
            },
            {
              "internalType": "uint256",
              "name": "priceInMarketReferenceCurrency",
              "type": "uint256"
            },
            {
              "internalType": "uint256",
              "name": "variableRateSlope1",
              "type": "uint256"
            },
            {
              "internalType": "uint256",
              "name": "variableRateSlope2",
              "type": "uint256"
            },
            {
              "internalType": "uint256",
              "name": "stableRateSlope1",
              "type": "uint256"
            },
            {
              "internalType": "uint256",
              "name": "stableRateSlope2",
              "type": "uint256"
            }
          ],
          "internalType": "struct IUiPoolDataProviderV2.AggregatedReserveData",
          "name": "",
          "type": "tuple"
        }
      ],
      "stateMutability": "view",
      "type": "function"
    },
    {
      "inputs": [
        {
          "internalType": "contract ILendingPoolAddressesProvider",
          "name": "provider",
          "type": "address"
        }
      ],
      "name": "getReservesData",
      "outputs": [
        {
          "components": [
            {
              "internalType": "address",
              "name": "underlyingAsset",
              "type": "address"
            },
            {
              "internalType": "string",
              "name": "name",
              "type": "string"
            },
            {
              "internalType": "string",
              "name": "symbol",
              "type": "string"
            },
            {
              "internalType": "uint256",
              "name": "decimals",
              "type": "uint256"
            },
            {
              "internalType": "uint256",
              "name": "baseLTVasCollateral",
              "type": "uint256"
            },
            {
              "internalType": "uint256",
              "name": "reserveLiquidationThreshold",
              "type": "uint256"
            },
            {
              "internalType": "uint256",
              "name": "reserveLiquidationBonus",
              "type": "uint256"
            },
            {
              "internalType": "uint256",
              "name": "reserveFactor",
              "type": "uint256"
            },
            {
              "internalType": "bool",
              "name": "usageAsCollateralEnabled",
              "type": "bool"
            },
            {
              "internalType": "bool",
              "name": "borrowingEnabled",
              "type": "bool"
            },
            {
              "internalType": "bool",
              "name": "stableBorrowRateEnabled",
              "type": "bool"
            },
            {
              "internalType": "bool",
              "name": "isActive",
              "type": "bool"
            },
            {
              "internalType": "bool",
              "name": "isFrozen",
              "type": "bool"
            },
            {
              "internalType": "uint128",
              "name": "liquidityIndex",
              "type": "uint128"
            },
            {
              "internalType": "uint128",
              "name": "variableBorrowIndex",
              "type": "uint128"
            },
            {
              "internalType": "uint128",
              "name": "liquidityRate",
              "type": "uint128"
            },
            {
              "internalType": "uint128",
              "name": "variableBorrowRate",
              "type": "uint128"
            },
            {
              "internalType": "uint128",
              "name": "stableBorrowRate",
              "type": "uint128"
            },
            {
              "internalType": "uint40",
              "name": "lastUpdateTimestamp",
              "type": "uint40"
            },
            {
              "internalType": "address",
              "name": "lTokenAddress",
              "type": "address"
            },
            {
              "internalType": "address",
              "name": "stableDebtTokenAddress",
              "type": "address"
            },
            {
              "internalType": "address",
              "name": "variableDebtTokenAddress",
              "type": "address"
            },
            {
              "internalType": "address",
              "name": "interestRateStrategyAddress",
              "type": "address"
            },
            {
              "internalType": "uint256",
              "name": "availableLiquidity",
              "type": "uint256"
            },
            {
              "internalType": "uint256",
              "name": "totalPrincipalStableDebt",
              "type": "uint256"
            },
            {
              "internalType": "uint256",
              "name": "averageStableRate",
              "type": "uint256"
            },
            {
              "internalType": "uint256",
              "name": "stableDebtLastUpdateTimestamp",
              "type": "uint256"
            },
            {
              "internalType": "uint256",
              "name": "totalScaledVariableDebt",
              "type": "uint256"
            },
            {
              "internalType": "uint256",
              "name": "priceInMarketReferenceCurrency",
              "type": "uint256"
            },
            {
              "internalType": "uint256",
              "name": "variableRateSlope1",
              "type": "uint256"
            },
            {
              "internalType": "uint256",
              "name": "variableRateSlope2",
              "type": "uint256"
            },
            {
              "internalType": "uint256",
              "name": "stableRateSlope1",
              "type": "uint256"
            },
            {
              "internalType": "uint256",
              "name": "stableRateSlope2",
              "type": "uint256"
            }
          ],
          "internalType": "struct IUiPoolDataProviderV2.AggregatedReserveData[]",
          "name": "",
          "type": "tuple[]"
        },
        {
          "components": [
            {
              "internalType": "uint256",
              "name": "marketReferenceCurrencyUnit",
              "type": "uint256"
            },
            {
              "internalType": "int256",
              "name": "marketReferenceCurrencyPriceInUsd",
              "type": "int256"
            },
            {
              "internalType": "int256",
              "name": "networkBaseTokenPriceInUsd",
              "type": "int256"
            },
            {
              "internalType": "uint8",
              "name": "networkBaseTokenPriceDecimals",
              "type": "uint8"
            }
          ],
          "internalType": "struct IUiPoolDataProviderV2.BaseCurrencyInfo",
          "name": "",
          "type": "tuple"
        }
      ],
      "stateMutability": "view",
      "type": "function"
    },
    {
      "inputs": [
        {
          "internalType": "contract ILendingPoolAddressesProvider",
          "name": "provider",
          "type": "address"
        }
      ],
      "name": "getReservesList",
      "outputs": [
        {
          "internalType": "address[]",
          "name": "",
          "type": "address[]"
        }
      ],
      "stateMutability": "view",
      "type": "function"
    },
    {
      "inputs": [
        {
          "internalType": "contract ILendingPoolAddressesProvider",
          "name": "provider",
          "type": "address"
        },
        {
          "internalType": "address",
          "name": "reserve",
          "type": "address"
        }
      ],
      "name": "getSdTokenSupplyData",
      "outputs": [
        {
          "components": [
            {
              "internalType": "address",
              "name": "underlyingAsset",
              "type": "address"
            },
            {
              "internalType": "string",
              "name": "name",
              "type": "string"
            },
            {
              "internalType": "string",
              "name": "symbol",
              "type": "string"
            },
            {
              "internalType": "uint256",
              "name": "decimals",
              "type": "uint256"
            },
            {
              "internalType": "uint256",
              "name": "baseLTVasCollateral",
              "type": "uint256"
            },
            {
              "internalType": "uint256",
              "name": "reserveLiquidationThreshold",
              "type": "uint256"
            },
            {
              "internalType": "uint256",
              "name": "reserveLiquidationBonus",
              "type": "uint256"
            },
            {
              "internalType": "uint256",
              "name": "reserveFactor",
              "type": "uint256"
            },
            {
              "internalType": "bool",
              "name": "usageAsCollateralEnabled",
              "type": "bool"
            },
            {
              "internalType": "bool",
              "name": "borrowingEnabled",
              "type": "bool"
            },
            {
              "internalType": "bool",
              "name": "stableBorrowRateEnabled",
              "type": "bool"
            },
            {
              "internalType": "bool",
              "name": "isActive",
              "type": "bool"
            },
            {
              "internalType": "bool",
              "name": "isFrozen",
              "type": "bool"
            },
            {
              "internalType": "uint128",
              "name": "liquidityIndex",
              "type": "uint128"
            },
            {
              "internalType": "uint128",
              "name": "variableBorrowIndex",
              "type": "uint128"
            },
            {
              "internalType": "uint128",
              "name": "liquidityRate",
              "type": "uint128"
            },
            {
              "internalType": "uint128",
              "name": "variableBorrowRate",
              "type": "uint128"
            },
            {
              "internalType": "uint128",
              "name": "stableBorrowRate",
              "type": "uint128"
            },
            {
              "internalType": "uint40",
              "name": "lastUpdateTimestamp",
              "type": "uint40"
            },
            {
              "internalType": "address",
              "name": "lTokenAddress",
              "type": "address"
            },
            {
              "internalType": "address",
              "name": "stableDebtTokenAddress",
              "type": "address"
            },
            {
              "internalType": "address",
              "name": "variableDebtTokenAddress",
              "type": "address"
            },
            {
              "internalType": "address",
              "name": "interestRateStrategyAddress",
              "type": "address"
            },
            {
              "internalType": "uint256",
              "name": "availableLiquidity",
              "type": "uint256"
            },
            {
              "internalType": "uint256",
              "name": "totalPrincipalStableDebt",
              "type": "uint256"
            },
            {
              "internalType": "uint256",
              "name": "averageStableRate",
              "type": "uint256"
            },
            {
              "internalType": "uint256",
              "name": "stableDebtLastUpdateTimestamp",
              "type": "uint256"
            },
            {
              "internalType": "uint256",
              "name": "totalScaledVariableDebt",
              "type": "uint256"
            },
            {
              "internalType": "uint256",
              "name": "priceInMarketReferenceCurrency",
              "type": "uint256"
            },
            {
              "internalType": "uint256",
              "name": "variableRateSlope1",
              "type": "uint256"
            },
            {
              "internalType": "uint256",
              "name": "variableRateSlope2",
              "type": "uint256"
            },
            {
              "internalType": "uint256",
              "name": "stableRateSlope1",
              "type": "uint256"
            },
            {
              "internalType": "uint256",
              "name": "stableRateSlope2",
              "type": "uint256"
            }
          ],
          "internalType": "struct IUiPoolDataProviderV2.AggregatedReserveData",
          "name": "",
          "type": "tuple"
        }
      ],
      "stateMutability": "view",
      "type": "function"
    },
    {
      "inputs": [
        {
          "internalType": "contract ILendingPoolAddressesProvider",
          "name": "provider",
          "type": "address"
        },
        {
          "internalType": "address",
          "name": "user",
          "type": "address"
        }
      ],
      "name": "getUserReservesData",
      "outputs": [
        {
          "components": [
            {
              "internalType": "address",
              "name": "underlyingAsset",
              "type": "address"
            },
            {
              "internalType": "uint256",
              "name": "scaledLTokenBalance",
              "type": "uint256"
            },
            {
              "internalType": "bool",
              "name": "usageAsCollateralEnabledOnUser",
              "type": "bool"
            },
            {
              "internalType": "uint256",
              "name": "stableBorrowRate",
              "type": "uint256"
            },
            {
              "internalType": "uint256",
              "name": "scaledVariableDebt",
              "type": "uint256"
            },
            {
              "internalType": "uint256",
              "name": "principalStableDebt",
              "type": "uint256"
            },
            {
              "internalType": "uint256",
              "name": "stableBorrowLastUpdateTimestamp",
              "type": "uint256"
            }
          ],
          "internalType": "struct IUiPoolDataProviderV2.UserReserveData[]",
          "name": "",
          "type": "tuple[]"
        }
      ],
      "stateMutability": "view",
      "type": "function"
    },
    {
      "inputs": [
        {
          "internalType": "contract ILendingPoolAddressesProvider",
          "name": "provider",
          "type": "address"
        },
        {
          "internalType": "address",
          "name": "reserve",
          "type": "address"
        }
      ],
      "name": "getVdTokenScaledTotalSupply",
      "outputs": [
        {
          "components": [
            {
              "internalType": "address",
              "name": "underlyingAsset",
              "type": "address"
            },
            {
              "internalType": "string",
              "name": "name",
              "type": "string"
            },
            {
              "internalType": "string",
              "name": "symbol",
              "type": "string"
            },
            {
              "internalType": "uint256",
              "name": "decimals",
              "type": "uint256"
            },
            {
              "internalType": "uint256",
              "name": "baseLTVasCollateral",
              "type": "uint256"
            },
            {
              "internalType": "uint256",
              "name": "reserveLiquidationThreshold",
              "type": "uint256"
            },
            {
              "internalType": "uint256",
              "name": "reserveLiquidationBonus",
              "type": "uint256"
            },
            {
              "internalType": "uint256",
              "name": "reserveFactor",
              "type": "uint256"
            },
            {
              "internalType": "bool",
              "name": "usageAsCollateralEnabled",
              "type": "bool"
            },
            {
              "internalType": "bool",
              "name": "borrowingEnabled",
              "type": "bool"
            },
            {
              "internalType": "bool",
              "name": "stableBorrowRateEnabled",
              "type": "bool"
            },
            {
              "internalType": "bool",
              "name": "isActive",
              "type": "bool"
            },
            {
              "internalType": "bool",
              "name": "isFrozen",
              "type": "bool"
            },
            {
              "internalType": "uint128",
              "name": "liquidityIndex",
              "type": "uint128"
            },
            {
              "internalType": "uint128",
              "name": "variableBorrowIndex",
              "type": "uint128"
            },
            {
              "internalType": "uint128",
              "name": "liquidityRate",
              "type": "uint128"
            },
            {
              "internalType": "uint128",
              "name": "variableBorrowRate",
              "type": "uint128"
            },
            {
              "internalType": "uint128",
              "name": "stableBorrowRate",
              "type": "uint128"
            },
            {
              "internalType": "uint40",
              "name": "lastUpdateTimestamp",
              "type": "uint40"
            },
            {
              "internalType": "address",
              "name": "lTokenAddress",
              "type": "address"
            },
            {
              "internalType": "address",
              "name": "stableDebtTokenAddress",
              "type": "address"
            },
            {
              "internalType": "address",
              "name": "variableDebtTokenAddress",
              "type": "address"
            },
            {
              "internalType": "address",
              "name": "interestRateStrategyAddress",
              "type": "address"
            },
            {
              "internalType": "uint256",
              "name": "availableLiquidity",
              "type": "uint256"
            },
            {
              "internalType": "uint256",
              "name": "totalPrincipalStableDebt",
              "type": "uint256"
            },
            {
              "internalType": "uint256",
              "name": "averageStableRate",
              "type": "uint256"
            },
            {
              "internalType": "uint256",
              "name": "stableDebtLastUpdateTimestamp",
              "type": "uint256"
            },
            {
              "internalType": "uint256",
              "name": "totalScaledVariableDebt",
              "type": "uint256"
            },
            {
              "internalType": "uint256",
              "name": "priceInMarketReferenceCurrency",
              "type": "uint256"
            },
            {
              "internalType": "uint256",
              "name": "variableRateSlope1",
              "type": "uint256"
            },
            {
              "internalType": "uint256",
              "name": "variableRateSlope2",
              "type": "uint256"
            },
            {
              "internalType": "uint256",
              "name": "stableRateSlope1",
              "type": "uint256"
            },
            {
              "internalType": "uint256",
              "name": "stableRateSlope2",
              "type": "uint256"
            }
          ],
          "internalType": "struct IUiPoolDataProviderV2.AggregatedReserveData",
          "name": "",
          "type": "tuple"
        }
      ],
      "stateMutability": "view",
      "type": "function"
    },
    {
      "inputs": [],
      "name": "networkBaseTokenPriceInUsdProxyAggregatorAdapter",
      "outputs": [
        {
          "internalType": "contract IPriceAggregatorAdapter",
          "name": "",
          "type": "address"
        }
      ],
      "stateMutability": "view",
      "type": "function"
    }
  ],
  "bytecode": "0x60c06040523480156200001157600080fd5b506040516200367438038062003674833981016040819052620000349162000053565b6001600160601b0319606092831b8116608052911b1660a052620000aa565b6000806040838503121562000066578182fd5b8251620000738162000091565b6020840151909250620000868162000091565b809150509250929050565b6001600160a01b0381168114620000a757600080fd5b50565b60805160601c60a05160601c61358c620000e8600039806108355280611a9b52806124375250806108085280611bc5528061240a525061358c6000f3fe608060405234801561001057600080fd5b50600436106101005760003560e01c806359e721a111610097578063cd66697a11610066578063cd66697a14610238578063d67c39b114610240578063ec489c2114610253578063f1a389241461027457610100565b806359e721a1146101dd57806377b8bbe3146101f05780637cb374bd146102035780639201de551461021857610100565b806335b519ec116100d357806335b519ec146101775780633cea4b471461018a57806351974cc01461019d578063586c1442146101bd57610100565b80630496f53a146101055780630feb158614610123578063105935ed14610144578063203d360914610164575b600080fd5b61010d610287565b60405161011a91906134cb565b60405180910390f35b610136610131366004612e2f565b610293565b60405161011a9291906134a9565b610157610152366004612e2f565b6108d5565b60405161011a9190613496565b610157610172366004612e2f565b610a26565b610157610185366004612e2f565b610bd8565b610157610198366004612e2f565b610d84565b6101b06101ab366004612e2f565b6110cc565b60405161011a91906133f6565b6101d06101cb366004612e13565b611708565b60405161011a9190613338565b6101576101eb366004612e2f565b6117fb565b6101576101fe366004612e2f565b611951565b61020b611a99565b60405161011a9190613324565b61022b610226366004612dfb565b611abd565b60405161011a9190613483565b61020b611bc3565b61015761024e366004612e2f565b611be7565b610266610261366004612e13565b611d85565b60405161011a929190613385565b610157610282366004612e2f565b6124d5565b670de0b6b3a764000081565b61029b612a77565b6102a3612bd6565b6000846001600160a01b031663fca513a86040518163ffffffff1660e01b815260040160206040518083038186803b1580156102de57600080fd5b505afa1580156102f2573d6000803e3d6000fd5b505050506040513d601f19601f820116820180604052508101906103169190612d34565b90506000856001600160a01b0316630261bf8b6040518163ffffffff1660e01b815260040160206040518083038186803b15801561035357600080fd5b505afa158015610367573d6000803e3d6000fd5b505050506040513d601f19601f8201168201806040525081019061038b9190612d34565b9050610395612a77565b6001600160a01b03861681526103a9612c01565b81516040516335ea6a7560e01b81526001600160a01b038516916335ea6a75916103d69190600401613324565b6101806040518083038186803b1580156103ef57600080fd5b505afa158015610403573d6000803e3d6000fd5b505050506040513d601f19601f820116820180604052508101906104279190612f0b565b60208101516001600160801b039081166101a085015260408083015182166101c0860152606083015182166101e08601526080830151821661020086015260a083015190911661022085015260c082015164ffffffffff1661024085015260e08201516001600160a01b03908116610260860152610100830151811661028086015261012083015181166102a086015261014083015181166102c08601528451915163b3596f0760e01b815292935086169163b3596f07916104eb91600401613324565b60206040518083038186803b15801561050357600080fd5b505afa158015610517573d6000803e3d6000fd5b505050506040513d601f19601f8201168201806040525081019061053b9190612e67565b61038083015281516102608301516040516370a0823160e01b81526001600160a01b03909216916370a082319161057491600401613324565b60206040518083038186803b15801561058c57600080fd5b505afa1580156105a0573d6000803e3d6000fd5b505050506040513d601f19601f820116820180604052508101906105c49190612e67565b826102e00181815250508161028001516001600160a01b031663797743386040518163ffffffff1660e01b815260040160806040518083038186803b15801561060c57600080fd5b505afa158015610620573d6000803e3d6000fd5b505050506040513d601f19601f820116820180604052508101906106449190613021565b64ffffffffff16610340860152610320850152506103008301526102a08201516040805163b1bf962d60e01b815290516001600160a01b039092169163b1bf962d91600480820192602092909190829003018186803b1580156106a657600080fd5b505afa1580156106ba573d6000803e3d6000fd5b505050506040513d601f19601f820116820180604052508101906106de9190612e67565b8261036001818152505081600001516001600160a01b03166395d89b416040518163ffffffff1660e01b815260040160006040518083038186803b15801561072557600080fd5b505afa158015610739573d6000803e3d6000fd5b505050506040513d6000823e601f3d908101601f191682016040526107619190810190612e7f565b6040830152805161077190612785565b60e0870152606086015260c085015260a084015260808301528051610795906127b0565b1515610140860152151561012085015215156101808401521515610160830152608082015115156101008301526102c08201516107d1906127ec565b6104008601526103e08501526103c08401526103a08301526107f1612bd6565b60405163e9833c2f60e01b81526001600160a01b037f0000000000000000000000000000000000000000000000000000000000000000169063e9833c2f9061085d907f000000000000000000000000000000000000000000000000000000000000000090600401613324565b60206040518083038186803b15801561087557600080fd5b505afa158015610889573d6000803e3d6000fd5b505050506040513d601f19601f820116820180604052508101906108ad9190612e67565b6040820152600860608201526305f5e100808252602082015291989197509095505050505050565b6108dd612a77565b6000836001600160a01b0316630261bf8b6040518163ffffffff1660e01b815260040160206040518083038186803b15801561091857600080fd5b505afa15801561092c573d6000803e3d6000fd5b505050506040513d601f19601f820116820180604052508101906109509190612d34565b905061095a612a77565b6001600160a01b038416815261096e612c01565b81516040516335ea6a7560e01b81526001600160a01b038516916335ea6a759161099b9190600401613324565b6101806040518083038186803b1580156109b457600080fd5b505afa1580156109c8573d6000803e3d6000fd5b505050506040513d601f19601f820116820180604052508101906109ec9190612f0b565b90506109fb81600001516127b0565b1515610140860152151561012085015215156101808401521515610160830152509150505b92915050565b610a2e612a77565b6000836001600160a01b0316630261bf8b6040518163ffffffff1660e01b815260040160206040518083038186803b158015610a6957600080fd5b505afa158015610a7d573d6000803e3d6000fd5b505050506040513d601f19601f82011682018060405250810190610aa19190612d34565b9050610aab612a77565b6001600160a01b0384168152610abf612c01565b81516040516335ea6a7560e01b81526001600160a01b038516916335ea6a7591610aec9190600401613324565b6101806040518083038186803b158015610b0557600080fd5b505afa158015610b19573d6000803e3d6000fd5b505050506040513d601f19601f82011682018060405250810190610b3d9190612f0b565b90508161028001516001600160a01b031663797743386040518163ffffffff1660e01b815260040160806040518083038186803b158015610b7d57600080fd5b505afa158015610b91573d6000803e3d6000fd5b505050506040513d601f19601f82011682018060405250810190610bb59190613021565b64ffffffffff166103408601526103208501525061030083015250949350505050565b610be0612a77565b6000836001600160a01b0316630261bf8b6040518163ffffffff1660e01b815260040160206040518083038186803b158015610c1b57600080fd5b505afa158015610c2f573d6000803e3d6000fd5b505050506040513d601f19601f82011682018060405250810190610c539190612d34565b9050610c5d612a77565b6001600160a01b0384168152610c71612c01565b81516040516335ea6a7560e01b81526001600160a01b038516916335ea6a7591610c9e9190600401613324565b6101806040518083038186803b158015610cb757600080fd5b505afa158015610ccb573d6000803e3d6000fd5b505050506040513d601f19601f82011682018060405250810190610cef9190612f0b565b82516102608401516040516370a0823160e01b81529293506001600160a01b03909116916370a0823191610d2591600401613324565b60206040518083038186803b158015610d3d57600080fd5b505afa158015610d51573d6000803e3d6000fd5b505050506040513d601f19601f82011682018060405250810190610d759190612e67565b6102e083015250949350505050565b610d8c612a77565b6000836001600160a01b0316630261bf8b6040518163ffffffff1660e01b815260040160206040518083038186803b158015610dc757600080fd5b505afa158015610ddb573d6000803e3d6000fd5b505050506040513d601f19601f82011682018060405250810190610dff9190612d34565b9050610e09612a77565b6001600160a01b0384168152610e1d612c01565b81516040516335ea6a7560e01b81526001600160a01b038516916335ea6a7591610e4a9190600401613324565b6101806040518083038186803b158015610e6357600080fd5b505afa158015610e77573d6000803e3d6000fd5b505050506040513d601f19601f82011682018060405250810190610e9b9190612f0b565b82516102608401516040516370a0823160e01b81529293506001600160a01b03909116916370a0823191610ed191600401613324565b60206040518083038186803b158015610ee957600080fd5b505afa158015610efd573d6000803e3d6000fd5b505050506040513d601f19601f82011682018060405250810190610f219190612e67565b826102e00181815250508161028001516001600160a01b031663797743386040518163ffffffff1660e01b815260040160806040518083038186803b158015610f6957600080fd5b505afa158015610f7d573d6000803e3d6000fd5b505050506040513d601f19601f82011682018060405250810190610fa19190613021565b64ffffffffff16610340860152610320850152506103008301526102a08201516040805163b1bf962d60e01b815290516001600160a01b039092169163b1bf962d91600480820192602092909190829003018186803b15801561100357600080fd5b505afa158015611017573d6000803e3d6000fd5b505050506040513d601f19601f8201168201806040525081019061103b9190612e67565b8261036001818152505081600001516001600160a01b03166395d89b416040518163ffffffff1660e01b815260040160006040518083038186803b15801561108257600080fd5b505afa158015611096573d6000803e3d6000fd5b505050506040513d6000823e601f3d908101601f191682016040526110be9190810190612e7f565b604083015250949350505050565b60606000836001600160a01b0316630261bf8b6040518163ffffffff1660e01b815260040160206040518083038186803b15801561110957600080fd5b505afa15801561111d573d6000803e3d6000fd5b505050506040513d601f19601f820116820180604052508101906111419190612d34565b90506060816001600160a01b031663d1946dbc6040518163ffffffff1660e01b815260040160006040518083038186803b15801561117e57600080fd5b505afa158015611192573d6000803e3d6000fd5b505050506040513d6000823e601f3d908101601f191682016040526111ba9190810190612d50565b90506111c4612c6c565b604051634417a58360e01b81526001600160a01b03841690634417a583906111f0908890600401613324565b60206040518083038186803b15801561120857600080fd5b505afa15801561121c573d6000803e3d6000fd5b505050506040513d601f19601f820116820180604052508101906112409190613006565b905060606001600160a01b03861661125957600061125c565b82515b67ffffffffffffffff8111801561127257600080fd5b506040519080825280602002602001820160405280156112ac57816020015b611299612c7f565b8152602001906001900390816112915790505b50905060005b83518110156116fd576112c3612c01565b856001600160a01b03166335ea6a758684815181106112de57fe5b60200260200101516040518263ffffffff1660e01b81526004016113029190613324565b6101806040518083038186803b15801561131b57600080fd5b505afa15801561132f573d6000803e3d6000fd5b505050506040513d601f19601f820116820180604052508101906113539190612f0b565b905084828151811061136157fe5b602002602001015183838151811061137557fe5b60209081029190910101516001600160a01b03918216905260e0820151604051630ed1279f60e11b8152911690631da24f3e906113b6908b90600401613324565b60206040518083038186803b1580156113ce57600080fd5b505afa1580156113e2573d6000803e3d6000fd5b505050506040513d601f19601f820116820180604052508101906114069190612e67565b83838151811061141257fe5b602090810291909101810151015261142a84836129c5565b83838151811061143657fe5b60209081029190910101519015156040909101526114548483612a26565b156116f4578061012001516001600160a01b0316631da24f3e896040518263ffffffff1660e01b815260040161148a9190613324565b60206040518083038186803b1580156114a257600080fd5b505afa1580156114b6573d6000803e3d6000fd5b505050506040513d601f19601f820116820180604052508101906114da9190612e67565b8383815181106114e657fe5b602002602001015160800181815250508061010001516001600160a01b031663c634dfaa896040518263ffffffff1660e01b81526004016115279190613324565b60206040518083038186803b15801561153f57600080fd5b505afa158015611553573d6000803e3d6000fd5b505050506040513d601f19601f820116820180604052508101906115779190612e67565b83838151811061158357fe5b602002602001015160a001818152505082828151811061159f57fe5b602002602001015160a001516000146116f4578061010001516001600160a01b031663e78c9b3b896040518263ffffffff1660e01b81526004016115e39190613324565b60206040518083038186803b1580156115fb57600080fd5b505afa15801561160f573d6000803e3d6000fd5b505050506040513d601f19601f820116820180604052508101906116339190612e67565b83838151811061163f57fe5b602002602001015160600181815250508061010001516001600160a01b03166379ce6b8c896040518263ffffffff1660e01b81526004016116809190613324565b60206040518083038186803b15801561169857600080fd5b505afa1580156116ac573d6000803e3d6000fd5b505050506040513d601f19601f820116820180604052508101906116d09190613061565b64ffffffffff168383815181106116e357fe5b602002602001015160c00181815250505b506001016112b2565b509695505050505050565b60606000826001600160a01b0316630261bf8b6040518163ffffffff1660e01b815260040160206040518083038186803b15801561174557600080fd5b505afa158015611759573d6000803e3d6000fd5b505050506040513d601f19601f8201168201806040525081019061177d9190612d34565b9050806001600160a01b031663d1946dbc6040518163ffffffff1660e01b815260040160006040518083038186803b1580156117b857600080fd5b505afa1580156117cc573d6000803e3d6000fd5b505050506040513d6000823e601f3d908101601f191682016040526117f49190810190612d50565b9392505050565b611803612a77565b6000836001600160a01b0316630261bf8b6040518163ffffffff1660e01b815260040160206040518083038186803b15801561183e57600080fd5b505afa158015611852573d6000803e3d6000fd5b505050506040513d601f19601f820116820180604052508101906118769190612d34565b9050611880612a77565b6001600160a01b0384168152611894612c01565b81516040516335ea6a7560e01b81526001600160a01b038516916335ea6a75916118c19190600401613324565b6101806040518083038186803b1580156118da57600080fd5b505afa1580156118ee573d6000803e3d6000fd5b505050506040513d601f19601f820116820180604052508101906119129190612f0b565b905081600001516001600160a01b03166395d89b416040518163ffffffff1660e01b815260040160006040518083038186803b15801561108257600080fd5b611959612a77565b6000836001600160a01b0316630261bf8b6040518163ffffffff1660e01b815260040160206040518083038186803b15801561199457600080fd5b505afa1580156119a8573d6000803e3d6000fd5b505050506040513d601f19601f820116820180604052508101906119cc9190612d34565b90506119d6612a77565b6001600160a01b03841681526119ea612c01565b81516040516335ea6a7560e01b81526001600160a01b038516916335ea6a7591611a179190600401613324565b6101806040518083038186803b158015611a3057600080fd5b505afa158015611a44573d6000803e3d6000fd5b505050506040513d601f19601f82011682018060405250810190611a689190612f0b565b9050611a778160000151612785565b60e0870152606086015260c085015260a0840152608083015250949350505050565b7f000000000000000000000000000000000000000000000000000000000000000081565b606060005b60208160ff16108015611af05750828160ff1660208110611adf57fe5b1a60f81b6001600160f81b03191615155b15611afd57600101611ac2565b60608160ff1667ffffffffffffffff81118015611b1957600080fd5b506040519080825280601f01601f191660200182016040528015611b44576020820181803683370190505b509050600091505b60208260ff16108015611b7a5750838260ff1660208110611b6957fe5b1a60f81b6001600160f81b03191615155b156117f457838260ff1660208110611b8e57fe5b1a60f81b818360ff1681518110611ba157fe5b60200101906001600160f81b031916908160001a905350600190910190611b4c565b7f000000000000000000000000000000000000000000000000000000000000000081565b611bef612a77565b6000836001600160a01b0316630261bf8b6040518163ffffffff1660e01b815260040160206040518083038186803b158015611c2a57600080fd5b505afa158015611c3e573d6000803e3d6000fd5b505050506040513d601f19601f82011682018060405250810190611c629190612d34565b9050611c6c612a77565b6001600160a01b0384168152611c80612c01565b81516040516335ea6a7560e01b81526001600160a01b038516916335ea6a7591611cad9190600401613324565b6101806040518083038186803b158015611cc657600080fd5b505afa158015611cda573d6000803e3d6000fd5b505050506040513d601f19601f82011682018060405250810190611cfe9190612f0b565b9050816102a001516001600160a01b031663b1bf962d6040518163ffffffff1660e01b815260040160206040518083038186803b158015611d3e57600080fd5b505afa158015611d52573d6000803e3d6000fd5b505050506040513d601f19601f82011682018060405250810190611d769190612e67565b61036083015250949350505050565b6060611d8f612bd6565b6000836001600160a01b031663fca513a86040518163ffffffff1660e01b815260040160206040518083038186803b158015611dca57600080fd5b505afa158015611dde573d6000803e3d6000fd5b505050506040513d601f19601f82011682018060405250810190611e029190612d34565b90506000846001600160a01b0316630261bf8b6040518163ffffffff1660e01b815260040160206040518083038186803b158015611e3f57600080fd5b505afa158015611e53573d6000803e3d6000fd5b505050506040513d601f19601f82011682018060405250810190611e779190612d34565b90506060816001600160a01b031663d1946dbc6040518163ffffffff1660e01b815260040160006040518083038186803b158015611eb457600080fd5b505afa158015611ec8573d6000803e3d6000fd5b505050506040513d6000823e601f3d908101601f19168201604052611ef09190810190612d50565b90506060815167ffffffffffffffff81118015611f0c57600080fd5b50604051908082528060200260200182016040528015611f4657816020015b611f33612a77565b815260200190600190039081611f2b5790505b50905060005b82518110156123ea57611f5d612a77565b828281518110611f6957fe5b60200260200101519050838281518110611f7f57fe5b60209081029190910101516001600160a01b03168152611f9d612c01565b81516040516335ea6a7560e01b81526001600160a01b038816916335ea6a7591611fca9190600401613324565b6101806040518083038186803b158015611fe357600080fd5b505afa158015611ff7573d6000803e3d6000fd5b505050506040513d601f19601f8201168201806040525081019061201b9190612f0b565b60208101516001600160801b039081166101a085015260408083015182166101c0860152606083015182166101e08601526080830151821661020086015260a083015190911661022085015260c082015164ffffffffff1661024085015260e08201516001600160a01b03908116610260860152610100830151811661028086015261012083015181166102a086015261014083015181166102c08601528451915163b3596f0760e01b815292935089169163b3596f07916120df91600401613324565b60206040518083038186803b1580156120f757600080fd5b505afa15801561210b573d6000803e3d6000fd5b505050506040513d601f19601f8201168201806040525081019061212f9190612e67565b61038083015281516102608301516040516370a0823160e01b81526001600160a01b03909216916370a082319161216891600401613324565b60206040518083038186803b15801561218057600080fd5b505afa158015612194573d6000803e3d6000fd5b505050506040513d601f19601f820116820180604052508101906121b89190612e67565b826102e00181815250508161028001516001600160a01b031663797743386040518163ffffffff1660e01b815260040160806040518083038186803b15801561220057600080fd5b505afa158015612214573d6000803e3d6000fd5b505050506040513d601f19601f820116820180604052508101906122389190613021565b64ffffffffff16610340860152610320850152506103008301526102a08201516040805163b1bf962d60e01b815290516001600160a01b039092169163b1bf962d91600480820192602092909190829003018186803b15801561229a57600080fd5b505afa1580156122ae573d6000803e3d6000fd5b505050506040513d601f19601f820116820180604052508101906122d29190612e67565b8261036001818152505081600001516001600160a01b03166395d89b416040518163ffffffff1660e01b815260040160006040518083038186803b15801561231957600080fd5b505afa15801561232d573d6000803e3d6000fd5b505050506040513d6000823e601f3d908101601f191682016040526123559190810190612e7f565b6040830152805161236590612785565b60e0870152606086015260c085015260a084015260808301528051612389906127b0565b1515610140860152151561012085015215156101808401521515610160830152608082015115156101008301526102c08201516123c5906127ec565b6104008601526103e08501526103c08401526103a09092019190915250600101611f4c565b506123f3612bd6565b60405163e9833c2f60e01b81526001600160a01b037f0000000000000000000000000000000000000000000000000000000000000000169063e9833c2f9061245f907f000000000000000000000000000000000000000000000000000000000000000090600401613324565b60206040518083038186803b15801561247757600080fd5b505afa15801561248b573d6000803e3d6000fd5b505050506040513d601f19601f820116820180604052508101906124af9190612e67565b6040820152600860608201526305f5e10080825260208201529095509350505050915091565b6124dd612a77565b6000836001600160a01b031663fca513a86040518163ffffffff1660e01b815260040160206040518083038186803b15801561251857600080fd5b505afa15801561252c573d6000803e3d6000fd5b505050506040513d601f19601f820116820180604052508101906125509190612d34565b90506000846001600160a01b0316630261bf8b6040518163ffffffff1660e01b815260040160206040518083038186803b15801561258d57600080fd5b505afa1580156125a1573d6000803e3d6000fd5b505050506040513d601f19601f820116820180604052508101906125c59190612d34565b90506125cf612a77565b6001600160a01b03851681526125e3612c01565b81516040516335ea6a7560e01b81526001600160a01b038516916335ea6a75916126109190600401613324565b6101806040518083038186803b15801561262957600080fd5b505afa15801561263d573d6000803e3d6000fd5b505050506040513d601f19601f820116820180604052508101906126619190612f0b565b60208101516001600160801b039081166101a085015260408083015182166101c0860152606083015182166101e08601526080830151821661020086015260a083015190911661022085015260c082015164ffffffffff1661024085015260e08201516001600160a01b03908116610260860152610100830151811661028086015261012083015181166102a086015261014083015181166102c08601528451915163b3596f0760e01b815292935086169163b3596f079161272591600401613324565b60206040518083038186803b15801561273d57600080fd5b505afa158015612751573d6000803e3d6000fd5b505050506040513d601f19601f820116820180604052508101906127759190612e67565b6103808301525095945050505050565b5161ffff80821692601083901c821692602081901c831692603082901c60ff169260409290921c1690565b51670100000000000000811615159167020000000000000082161515916704000000000000008116151591670800000000000000909116151590565b600080600080846001600160a01b0316637b832f586040518163ffffffff1660e01b815260040160206040518083038186803b15801561282b57600080fd5b505afa15801561283f573d6000803e3d6000fd5b505050506040513d601f19601f820116820180604052508101906128639190612e67565b856001600160a01b03166365614f816040518163ffffffff1660e01b815260040160206040518083038186803b15801561289c57600080fd5b505afa1580156128b0573d6000803e3d6000fd5b505050506040513d601f19601f820116820180604052508101906128d49190612e67565b866001600160a01b0316630bdf953f6040518163ffffffff1660e01b815260040160206040518083038186803b15801561290d57600080fd5b505afa158015612921573d6000803e3d6000fd5b505050506040513d601f19601f820116820180604052508101906129459190612e67565b876001600160a01b031663ccab01a36040518163ffffffff1660e01b815260040160206040518083038186803b15801561297e57600080fd5b505afa158015612992573d6000803e3d6000fd5b505050506040513d601f19601f820116820180604052508101906129b69190612e67565b93509350935093509193509193565b60006080821060405180604001604052806002815260200161373760f01b81525090612a0d5760405162461bcd60e51b8152600401612a049190613483565b60405180910390fd5b5050815160016002830281019190911c16151592915050565b60006080821060405180604001604052806002815260200161373760f01b81525090612a655760405162461bcd60e51b8152600401612a049190613483565b50509051600160029092021c16151590565b60405180610420016040528060006001600160a01b031681526020016060815260200160608152602001600081526020016000815260200160008152602001600081526020016000815260200160001515815260200160001515815260200160001515815260200160001515815260200160001515815260200160006001600160801b0316815260200160006001600160801b0316815260200160006001600160801b0316815260200160006001600160801b0316815260200160006001600160801b03168152602001600064ffffffffff16815260200160006001600160a01b0316815260200160006001600160a01b0316815260200160006001600160a01b0316815260200160006001600160a01b03168152602001600081526020016000815260200160008152602001600081526020016000815260200160008152602001600081526020016000815260200160008152602001600081525090565b6040518060800160405280600081526020016000815260200160008152602001600060ff1681525090565b604051806101800160405280612c15612c6c565b815260006020820181905260408201819052606082018190526080820181905260a0820181905260c0820181905260e082018190526101008201819052610120820181905261014082018190526101609091015290565b6040518060200160405280600081525090565b6040518060e0016040528060006001600160a01b0316815260200160008152602001600015158152602001600081526020016000815260200160008152602001600081525090565b8051610a208161352b565b600060208284031215612ce3578081fd5b612ced60206134d4565b9151825250919050565b80516001600160801b0381168114610a2057600080fd5b805164ffffffffff81168114610a2057600080fd5b805160ff81168114610a2057600080fd5b600060208284031215612d45578081fd5b81516117f48161352b565b60006020808385031215612d62578182fd5b825167ffffffffffffffff80821115612d79578384fd5b818501915085601f830112612d8c578384fd5b815181811115612d9a578485fd5b8381029150612daa8483016134d4565b8181528481019084860184860187018a1015612dc4578788fd5b8795505b83861015612dee57612dda8a82612cc7565b835260019590950194918601918601612dc8565b5098975050505050505050565b600060208284031215612e0c578081fd5b5035919050565b600060208284031215612e24578081fd5b81356117f48161352b565b60008060408385031215612e41578081fd5b8235612e4c8161352b565b91506020830135612e5c8161352b565b809150509250929050565b600060208284031215612e78578081fd5b5051919050565b600060208284031215612e90578081fd5b815167ffffffffffffffff80821115612ea7578283fd5b818401915084601f830112612eba578283fd5b815181811115612ec8578384fd5b612edb601f8201601f19166020016134d4565b9150808252856020828501011115612ef1578384fd5b612f028160208401602086016134fb565b50949350505050565b6000610180808385031215612f1e578182fd5b612f27816134d4565b9050612f338484612cd2565b8152612f428460208501612cf7565b6020820152612f548460408501612cf7565b6040820152612f668460608501612cf7565b6060820152612f788460808501612cf7565b6080820152612f8a8460a08501612cf7565b60a0820152612f9c8460c08501612d0e565b60c0820152612fae8460e08501612cc7565b60e0820152610100612fc285828601612cc7565b90820152610120612fd585858301612cc7565b90820152610140612fe885858301612cc7565b90820152610160612ffb85858301612d23565b908201529392505050565b600060208284031215613017578081fd5b6117f48383612cd2565b60008060008060808587031215613036578182fd5b845193506020850151925060408501519150606085015161305681613543565b939692955090935050565b600060208284031215613072578081fd5b81516117f481613543565b6001600160a01b03169052565b15159052565b600081518084526130a88160208601602086016134fb565b601f01601f19169290920160200192915050565b60006104206130cc84845161307d565b60208301518160208601526130e382860182613090565b915050604083015184820360408601526130fd8282613090565b915050606083015160608501526080830151608085015260a083015160a085015260c083015160c085015260e083015160e0850152610100808401516131458287018261308a565b50506101208084015161315a8287018261308a565b50506101408084015161316f8287018261308a565b5050610160808401516131848287018261308a565b5050610180808401516131998287018261308a565b50506101a0808401516131ae8287018261330c565b50506101c0808401516131c38287018261330c565b50506101e0808401516131d88287018261330c565b5050610200808401516131ed8287018261330c565b5050610220808401516132028287018261330c565b50506102408084015161321782870182613319565b50506102608084015161322c8287018261307d565b5050610280808401516132418287018261307d565b50506102a0808401516132568287018261307d565b50506102c08084015161326b8287018261307d565b50506102e08381015190850152610300808401519085015261032080840151908501526103408084015190850152610360808401519085015261038080840151908501526103a080840151908501526103c080840151908501526103e080840151908501526104009283015192909301919091525090565b80518252602081015160208301526040810151604083015260ff60608201511660608301525050565b6001600160801b03169052565b64ffffffffff169052565b6001600160a01b0391909116815260200190565b6020808252825182820181905260009190848201906040850190845b818110156133795783516001600160a01b031683529284019291840191600101613354565b50909695505050505050565b600060a0820160a0835280855180835260c0850191506020925060c0838202860101838801855b838110156133da5760bf198884030185526133c88383516130bc565b948601949250908501906001016133ac565b50508094505050506133ee818401856132e3565b509392505050565b602080825282518282018190526000919060409081850190868401855b8281101561347657815180516001600160a01b03168552868101518786015285810151151586860152606080820151908601526080808201519086015260a0808201519086015260c0908101519085015260e09093019290850190600101613413565b5091979650505050505050565b6000602082526117f46020830184613090565b6000602082526117f460208301846130bc565b600060a082526134bc60a08301856130bc565b90506117f460208301846132e3565b90815260200190565b60405181810167ffffffffffffffff811182821017156134f357600080fd5b604052919050565b60005b838110156135165781810151838201526020016134fe565b83811115613525576000848401525b50505050565b6001600160a01b038116811461354057600080fd5b50565b64ffffffffff8116811461354057600080fdfea26469706673582212204451718ff8bea8a3d011ef3dfb8a9e97176cf986a90943e19d422fe5d6e4b1b364736f6c634300060c0033",
  "linkReferences": {},
  "deployedLinkReferences": {}
}