{
  "_format": "hh-sol-artifact-1",
  "contractName": "LToken",
  "sourceName": "contracts/protocol/tokenization/LToken.sol",
  "abi": [
    {
      "anonymous": false,
      "inputs": [
        {
          "indexed": true,
          "internalType": "address",
          "name": "owner",
          "type": "address"
        },
        {
          "indexed": true,
          "internalType": "address",
          "name": "spender",
          "type": "address"
        },
        {
          "indexed": false,
          "internalType": "uint256",
          "name": "value",
          "type": "uint256"
        }
      ],
      "name": "Approval",
      "type": "event"
    },
    {
      "anonymous": false,
      "inputs": [
        {
          "indexed": true,
          "internalType": "address",
          "name": "from",
          "type": "address"
        },
        {
          "indexed": true,
          "internalType": "address",
          "name": "to",
          "type": "address"
        },
        {
          "indexed": false,
          "internalType": "uint256",
          "name": "value",
          "type": "uint256"
        },
        {
          "indexed": false,
          "internalType": "uint256",
          "name": "index",
          "type": "uint256"
        }
      ],
      "name": "BalanceTransfer",
      "type": "event"
    },
    {
      "anonymous": false,
      "inputs": [
        {
          "indexed": true,
          "internalType": "address",
          "name": "from",
          "type": "address"
        },
        {
          "indexed": true,
          "internalType": "address",
          "name": "target",
          "type": "address"
        },
        {
          "indexed": false,
          "internalType": "uint256",
          "name": "value",
          "type": "uint256"
        },
        {
          "indexed": false,
          "internalType": "uint256",
          "name": "index",
          "type": "uint256"
        }
      ],
      "name": "Burn",
      "type": "event"
    },
    {
      "anonymous": false,
      "inputs": [
        {
          "indexed": true,
          "internalType": "address",
          "name": "underlyingAsset",
          "type": "address"
        },
        {
          "indexed": true,
          "internalType": "address",
          "name": "pool",
          "type": "address"
        },
        {
          "indexed": false,
          "internalType": "address",
          "name": "treasury",
          "type": "address"
        },
        {
          "indexed": false,
          "internalType": "address",
          "name": "incentivesController",
          "type": "address"
        },
        {
          "indexed": false,
          "internalType": "uint8",
          "name": "lTokenDecimals",
          "type": "uint8"
        },
        {
          "indexed": false,
          "internalType": "string",
          "name": "lTokenName",
          "type": "string"
        },
        {
          "indexed": false,
          "internalType": "string",
          "name": "lTokenSymbol",
          "type": "string"
        },
        {
          "indexed": false,
          "internalType": "bytes",
          "name": "params",
          "type": "bytes"
        }
      ],
      "name": "Initialized",
      "type": "event"
    },
    {
      "anonymous": false,
      "inputs": [
        {
          "indexed": true,
          "internalType": "address",
          "name": "from",
          "type": "address"
        },
        {
          "indexed": false,
          "internalType": "uint256",
          "name": "value",
          "type": "uint256"
        },
        {
          "indexed": false,
          "internalType": "uint256",
          "name": "index",
          "type": "uint256"
        }
      ],
      "name": "Mint",
      "type": "event"
    },
    {
      "anonymous": false,
      "inputs": [
        {
          "indexed": true,
          "internalType": "address",
          "name": "from",
          "type": "address"
        },
        {
          "indexed": true,
          "internalType": "address",
          "name": "to",
          "type": "address"
        },
        {
          "indexed": false,
          "internalType": "uint256",
          "name": "value",
          "type": "uint256"
        }
      ],
      "name": "Transfer",
      "type": "event"
    },
    {
      "inputs": [],
      "name": "EIP712_REVISION",
      "outputs": [
        {
          "internalType": "bytes",
          "name": "",
          "type": "bytes"
        }
      ],
      "stateMutability": "view",
      "type": "function"
    },
    {
      "inputs": [],
      "name": "LTOKEN_REVISION",
      "outputs": [
        {
          "internalType": "uint256",
          "name": "",
          "type": "uint256"
        }
      ],
      "stateMutability": "view",
      "type": "function"
    },
    {
      "inputs": [],
      "name": "PERMIT_TYPEHASH",
      "outputs": [
        {
          "internalType": "bytes32",
          "name": "",
          "type": "bytes32"
        }
      ],
      "stateMutability": "view",
      "type": "function"
    },
    {
      "inputs": [],
      "name": "POOL",
      "outputs": [
        {
          "internalType": "contract ILendingPool",
          "name": "",
          "type": "address"
        }
      ],
      "stateMutability": "view",
      "type": "function"
    },
    {
      "inputs": [],
      "name": "RESERVE_TREASURY_ADDRESS",
      "outputs": [
        {
          "internalType": "address",
          "name": "",
          "type": "address"
        }
      ],
      "stateMutability": "view",
      "type": "function"
    },
    {
      "inputs": [],
      "name": "UNDERLYING_ASSET_ADDRESS",
      "outputs": [
        {
          "internalType": "address",
          "name": "",
          "type": "address"
        }
      ],
      "stateMutability": "view",
      "type": "function"
    },
    {
      "inputs": [
        {
          "internalType": "address",
          "name": "",
          "type": "address"
        }
      ],
      "name": "_nonces",
      "outputs": [
        {
          "internalType": "uint256",
          "name": "",
          "type": "uint256"
        }
      ],
      "stateMutability": "view",
      "type": "function"
    },
    {
      "inputs": [
        {
          "internalType": "address",
          "name": "owner",
          "type": "address"
        },
        {
          "internalType": "address",
          "name": "spender",
          "type": "address"
        }
      ],
      "name": "allowance",
      "outputs": [
        {
          "internalType": "uint256",
          "name": "",
          "type": "uint256"
        }
      ],
      "stateMutability": "view",
      "type": "function"
    },
    {
      "inputs": [
        {
          "internalType": "address",
          "name": "spender",
          "type": "address"
        },
        {
          "internalType": "uint256",
          "name": "amount",
          "type": "uint256"
        }
      ],
      "name": "approve",
      "outputs": [
        {
          "internalType": "bool",
          "name": "",
          "type": "bool"
        }
      ],
      "stateMutability": "nonpayable",
      "type": "function"
    },
    {
      "inputs": [
        {
          "internalType": "address",
          "name": "user",
          "type": "address"
        }
      ],
      "name": "balanceOf",
      "outputs": [
        {
          "internalType": "uint256",
          "name": "",
          "type": "uint256"
        }
      ],
      "stateMutability": "view",
      "type": "function"
    },
    {
      "inputs": [
        {
          "internalType": "address",
          "name": "user",
          "type": "address"
        },
        {
          "internalType": "address",
          "name": "receiverOfUnderlying",
          "type": "address"
        },
        {
          "internalType": "uint256",
          "name": "amount",
          "type": "uint256"
        },
        {
          "internalType": "uint256",
          "name": "index",
          "type": "uint256"
        }
      ],
      "name": "burn",
      "outputs": [],
      "stateMutability": "nonpayable",
      "type": "function"
    },
    {
      "inputs": [],
      "name": "decimals",
      "outputs": [
        {
          "internalType": "uint8",
          "name": "",
          "type": "uint8"
        }
      ],
      "stateMutability": "view",
      "type": "function"
    },
    {
      "inputs": [
        {
          "internalType": "address",
          "name": "spender",
          "type": "address"
        },
        {
          "internalType": "uint256",
          "name": "subtractedValue",
          "type": "uint256"
        }
      ],
      "name": "decreaseAllowance",
      "outputs": [
        {
          "internalType": "bool",
          "name": "",
          "type": "bool"
        }
      ],
      "stateMutability": "nonpayable",
      "type": "function"
    },
    {
      "inputs": [],
      "name": "getIncentivesController",
      "outputs": [
        {
          "internalType": "contract IStarlayIncentivesController",
          "name": "",
          "type": "address"
        }
      ],
      "stateMutability": "view",
      "type": "function"
    },
    {
      "inputs": [
        {
          "internalType": "address",
          "name": "user",
          "type": "address"
        }
      ],
      "name": "getScaledUserBalanceAndSupply",
      "outputs": [
        {
          "internalType": "uint256",
          "name": "",
          "type": "uint256"
        },
        {
          "internalType": "uint256",
          "name": "",
          "type": "uint256"
        }
      ],
      "stateMutability": "view",
      "type": "function"
    },
    {
      "inputs": [
        {
          "internalType": "address",
          "name": "user",
          "type": "address"
        },
        {
          "internalType": "uint256",
          "name": "amount",
          "type": "uint256"
        }
      ],
      "name": "handleRepayment",
      "outputs": [],
      "stateMutability": "nonpayable",
      "type": "function"
    },
    {
      "inputs": [
        {
          "internalType": "address",
          "name": "spender",
          "type": "address"
        },
        {
          "internalType": "uint256",
          "name": "addedValue",
          "type": "uint256"
        }
      ],
      "name": "increaseAllowance",
      "outputs": [
        {
          "internalType": "bool",
          "name": "",
          "type": "bool"
        }
      ],
      "stateMutability": "nonpayable",
      "type": "function"
    },
    {
      "inputs": [
        {
          "internalType": "contract ILendingPool",
          "name": "pool",
          "type": "address"
        },
        {
          "internalType": "address",
          "name": "treasury",
          "type": "address"
        },
        {
          "internalType": "address",
          "name": "underlyingAsset",
          "type": "address"
        },
        {
          "internalType": "contract IStarlayIncentivesController",
          "name": "incentivesController",
          "type": "address"
        },
        {
          "internalType": "uint8",
          "name": "lTokenDecimals",
          "type": "uint8"
        },
        {
          "internalType": "string",
          "name": "lTokenName",
          "type": "string"
        },
        {
          "internalType": "string",
          "name": "lTokenSymbol",
          "type": "string"
        },
        {
          "internalType": "bytes",
          "name": "params",
          "type": "bytes"
        }
      ],
      "name": "initialize",
      "outputs": [],
      "stateMutability": "nonpayable",
      "type": "function"
    },
    {
      "inputs": [
        {
          "internalType": "address",
          "name": "user",
          "type": "address"
        },
        {
          "internalType": "uint256",
          "name": "amount",
          "type": "uint256"
        },
        {
          "internalType": "uint256",
          "name": "index",
          "type": "uint256"
        }
      ],
      "name": "mint",
      "outputs": [
        {
          "internalType": "bool",
          "name": "",
          "type": "bool"
        }
      ],
      "stateMutability": "nonpayable",
      "type": "function"
    },
    {
      "inputs": [
        {
          "internalType": "uint256",
          "name": "amount",
          "type": "uint256"
        },
        {
          "internalType": "uint256",
          "name": "index",
          "type": "uint256"
        }
      ],
      "name": "mintToTreasury",
      "outputs": [],
      "stateMutability": "nonpayable",
      "type": "function"
    },
    {
      "inputs": [],
      "name": "name",
      "outputs": [
        {
          "internalType": "string",
          "name": "",
          "type": "string"
        }
      ],
      "stateMutability": "view",
      "type": "function"
    },
    {
      "inputs": [
        {
          "internalType": "address",
          "name": "owner",
          "type": "address"
        },
        {
          "internalType": "address",
          "name": "spender",
          "type": "address"
        },
        {
          "internalType": "uint256",
          "name": "value",
          "type": "uint256"
        },
        {
          "internalType": "uint256",
          "name": "deadline",
          "type": "uint256"
        },
        {
          "internalType": "uint8",
          "name": "v",
          "type": "uint8"
        },
        {
          "internalType": "bytes32",
          "name": "r",
          "type": "bytes32"
        },
        {
          "internalType": "bytes32",
          "name": "s",
          "type": "bytes32"
        }
      ],
      "name": "permit",
      "outputs": [],
      "stateMutability": "nonpayable",
      "type": "function"
    },
    {
      "inputs": [
        {
          "internalType": "address",
          "name": "user",
          "type": "address"
        }
      ],
      "name": "scaledBalanceOf",
      "outputs": [
        {
          "internalType": "uint256",
          "name": "",
          "type": "uint256"
        }
      ],
      "stateMutability": "view",
      "type": "function"
    },
    {
      "inputs": [],
      "name": "scaledTotalSupply",
      "outputs": [
        {
          "internalType": "uint256",
          "name": "",
          "type": "uint256"
        }
      ],
      "stateMutability": "view",
      "type": "function"
    },
    {
      "inputs": [],
      "name": "symbol",
      "outputs": [
        {
          "internalType": "string",
          "name": "",
          "type": "string"
        }
      ],
      "stateMutability": "view",
      "type": "function"
    },
    {
      "inputs": [],
      "name": "totalSupply",
      "outputs": [
        {
          "internalType": "uint256",
          "name": "",
          "type": "uint256"
        }
      ],
      "stateMutability": "view",
      "type": "function"
    },
    {
      "inputs": [
        {
          "internalType": "address",
          "name": "recipient",
          "type": "address"
        },
        {
          "internalType": "uint256",
          "name": "amount",
          "type": "uint256"
        }
      ],
      "name": "transfer",
      "outputs": [
        {
          "internalType": "bool",
          "name": "",
          "type": "bool"
        }
      ],
      "stateMutability": "nonpayable",
      "type": "function"
    },
    {
      "inputs": [
        {
          "internalType": "address",
          "name": "sender",
          "type": "address"
        },
        {
          "internalType": "address",
          "name": "recipient",
          "type": "address"
        },
        {
          "internalType": "uint256",
          "name": "amount",
          "type": "uint256"
        }
      ],
      "name": "transferFrom",
      "outputs": [
        {
          "internalType": "bool",
          "name": "",
          "type": "bool"
        }
      ],
      "stateMutability": "nonpayable",
      "type": "function"
    },
    {
      "inputs": [
        {
          "internalType": "address",
          "name": "from",
          "type": "address"
        },
        {
          "internalType": "address",
          "name": "to",
          "type": "address"
        },
        {
          "internalType": "uint256",
          "name": "value",
          "type": "uint256"
        }
      ],
      "name": "transferOnLiquidation",
      "outputs": [],
      "stateMutability": "nonpayable",
      "type": "function"
    },
    {
      "inputs": [
        {
          "internalType": "address",
          "name": "target",
          "type": "address"
        },
        {
          "internalType": "uint256",
          "name": "amount",
          "type": "uint256"
        }
      ],
      "name": "transferUnderlyingTo",
      "outputs": [
        {
          "internalType": "uint256",
          "name": "",
          "type": "uint256"
        }
      ],
      "stateMutability": "nonpayable",
      "type": "function"
    }
  ],
  "bytecode": "0x6080604052600080553480156200001557600080fd5b50604080518082018252600b8082526a131513d2d15397d253541360aa1b60208084018281528551808701909652928552840152815191929160009162000060916037919062000094565b5081516200007690603890602085019062000094565b506039805460ff191660ff9290921691909117905550620001309050565b828054600181600116156101000203166002900490600052602060002090601f016020900481019282601f10620000d757805160ff191683800117855562000107565b8280016001018555821562000107579182015b8281111562000107578251825591602001919060010190620000ea565b506200011592915062000119565b5090565b5b808211156200011557600081556001016200011a565b61292780620001406000396000f3fe608060405234801561001057600080fd5b50600436106101da5760003560e01c80637816037611610104578063b16a19de116100a2578063d7020d0a11610071578063d7020d0a146106e0578063dd62ed3e1461071c578063e0eb48271461074a578063f866c31914610752576101da565b8063b16a19de14610659578063b1bf962d14610661578063b9844d8d14610669578063d505accf1461068f576101da565b806395d89b41116100de57806395d89b41146105f1578063a457c2d7146105f9578063a9059cbb14610625578063ae16733514610651576101da565b8063781603761461059a5780637df5bd3b146105a257806388dd91a1146105c5576101da565b806323b872dd1161017c5780634efecaa51161014b5780634efecaa51461051c57806370a08231146105485780637535d2461461056e57806375d2641314610592576101da565b806323b872dd1461049457806330adf81f146104ca578063313ce567146104d257806339509351146104f0576101da565b8063156e29f6116101b8578063156e29f6146102db57806318160ddd1461030d578063183fb413146103275780631da24f3e1461046e576101da565b806306fdde03146101df578063095ea7b31461025c5780630afbcdc91461029c575b600080fd5b6101e7610788565b6040805160208082528351818301528351919283929083019185019080838360005b83811015610221578181015183820152602001610209565b50505050905090810190601f16801561024e5780820380516001836020036101000a031916815260200191505b509250505060405180910390f35b6102886004803603604081101561027257600080fd5b506001600160a01b03813516906020013561081f565b604080519115158252519081900360200190f35b6102c2600480360360208110156102b257600080fd5b50356001600160a01b031661083d565b6040805192835260208301919091528051918290030190f35b610288600480360360608110156102f157600080fd5b506001600160a01b03813516906020810135906040013561085a565b610315610a28565b60408051918252519081900360200190f35b61046c600480360361010081101561033e57600080fd5b6001600160a01b038235811692602081013582169260408201358316926060830135169160ff6080820135169181019060c0810160a082013564010000000081111561038957600080fd5b82018360208201111561039b57600080fd5b803590602001918460018302840111640100000000831117156103bd57600080fd5b9193909290916020810190356401000000008111156103db57600080fd5b8201836020820111156103ed57600080fd5b8035906020019184600183028401116401000000008311171561040f57600080fd5b91939092909160208101903564010000000081111561042d57600080fd5b82018360208201111561043f57600080fd5b8035906020019184600183028401116401000000008311171561046157600080fd5b509092509050610ad2565b005b6103156004803603602081101561048457600080fd5b50356001600160a01b0316610e90565b610288600480360360608110156104aa57600080fd5b506001600160a01b03813581169160208101359091169060400135610e9b565b610315610f5b565b6104da610f7f565b6040805160ff9092168252519081900360200190f35b6102886004803603604081101561050657600080fd5b506001600160a01b038135169060200135610f88565b6103156004803603604081101561053257600080fd5b506001600160a01b038135169060200135610fd6565b6103156004803603602081101561055e57600080fd5b50356001600160a01b031661107c565b61057661110b565b604080516001600160a01b039092168252519081900360200190f35b61057661111a565b6101e7611129565b61046c600480360360408110156105b857600080fd5b5080359060200135611146565b61046c600480360360408110156105db57600080fd5b506001600160a01b03813516906020013561126d565b6101e76112f7565b6102886004803603604081101561060f57600080fd5b506001600160a01b038135169060200135611358565b6102886004803603604081101561063b57600080fd5b506001600160a01b0381351690602001356113c0565b61057661141d565b61057661142c565b61031561143b565b6103156004803603602081101561067f57600080fd5b50356001600160a01b0316611445565b61046c600480360360e08110156106a557600080fd5b506001600160a01b03813581169160208101359091169060408101359060608101359060ff6080820135169060a08101359060c00135611457565b61046c600480360360808110156106f657600080fd5b506001600160a01b03813581169160208101359091169060408101359060600135611754565b6103156004803603604081101561073257600080fd5b506001600160a01b03813581169160200135166118f9565b610315611924565b61046c6004803603606081101561076857600080fd5b506001600160a01b03813581169160208101359091169060400135611929565b60378054604080516020601f60026000196101006001881615020190951694909404938401819004810282018101909252828152606093909290918301828280156108145780601f106107e957610100808354040283529160200191610814565b820191906000526020600020905b8154815290600101906020018083116107f757829003601f168201915b505050505090505b90565b600061083361082c6119fa565b84846119fe565b5060015b92915050565b60008061084983611aea565b610851611b05565b91509150915091565b603b546000906001600160a01b03166108716119fa565b6001600160a01b03161460405180604001604052806002815260200161323960f01b8152509061091f5760405162461bcd60e51b81526004018080602001828103825283818151815260200191508051906020019080838360005b838110156108e45781810151838201526020016108cc565b50505050905090810190601f1680156109115780820380516001836020036101000a031916815260200191505b509250505060405180910390fd5b50600061092b85611aea565b905060006109398585611b0b565b6040805180820190915260028152611a9b60f11b6020820152909150816109a15760405162461bcd60e51b81526020600482018181528351602484015283519092839260449091019190850190808383600083156108e45781810151838201526020016108cc565b506109ac8682611c12565b6040805186815290516001600160a01b038816916000916000805160206128198339815191529181900360200190a3604080518681526020810186905281516001600160a01b038916927f4c209b5fc8ad50758f13e2e1088ba56a560dff690a1c6fef26394f4c03821c4f928290030190a25015949350505050565b600080610a33611b05565b905080610a4457600091505061081c565b603b54603d546040805163d15e005360e01b81526001600160a01b0392831660048201529051610acc93929092169163d15e005391602480820192602092909190829003018186803b158015610a9957600080fd5b505afa158015610aad573d6000803e3d6000fd5b505050506040513d6020811015610ac357600080fd5b50518290611d63565b91505090565b6000610adc611e21565b60015490915060ff1680610af35750610af3611e26565b80610aff575060005481115b610b3a5760405162461bcd60e51b815260040180806020018281038252602e8152602001806127eb602e913960400191505060405180910390fd5b60015460ff16158015610b59576001805460ff19168117905560008290555b6001600160a01b038c16610bb4576040805162461bcd60e51b815260206004820181905260248201527f747265617375727920616464726573732063616e6e6f7420626520656d707479604482015290519081900360640190fd5b6001600160a01b038b16610bf95760405162461bcd60e51b815260040180806020018281038252602781526020018061279c6027913960400191505060405180910390fd5b6001600160a01b038d16610c54576040805162461bcd60e51b815260206004820152601c60248201527f706f6f6c20616464726573732063616e6e6f7420626520656d70747900000000604482015290519081900360640190fd5b610c9388888080601f016020809104026020016040519081016040528093929190818152602001838380828437600092019190915250611e2c92505050565b610cd286868080601f016020809104026020016040519081016040528093929190818152602001838380828437600092019190915250611e3f92505050565b610cdb89611e52565b8c603b60006101000a8154816001600160a01b0302191690836001600160a01b031602179055508b603c60006101000a8154816001600160a01b0302191690836001600160a01b031602179055508a603d60006101000a8154816001600160a01b0302191690836001600160a01b0316021790555089603e60006101000a8154816001600160a01b0302191690836001600160a01b031602179055508c6001600160a01b03168b6001600160a01b03167fb19e051f8af41150ccccb3fc2c2d8d15f4a4cf434f32a559ba75fe73d6eea20b8e8d8d8d8d8d8d8d8d604051808a6001600160a01b03168152602001896001600160a01b031681526020018860ff16815260200180602001806020018060200184810384528a8a82818152602001925080828437600083820152601f01601f191690910185810384528881526020019050888880828437600083820152601f01601f191690910185810383528681526020019050868680828437600083820152604051601f909101601f19169092018290039e50909c50505050505050505050505050a38015610e81576001805460ff191690555b50505050505050505050505050565b600061083782611aea565b6000610ea8848484611e68565b610f1884610eb46119fa565b610f13856040518060600160405280602881526020016127c3602891396001600160a01b038a16600090815260356020526040812090610ef26119fa565b6001600160a01b031681526020810191909152604001600020549190611e75565b6119fe565b826001600160a01b0316846001600160a01b0316600080516020612819833981519152846040518082815260200191505060405180910390a35060019392505050565b7f6e71edae12b1b97f4d1f60370fef10105fa2faae0126114a169c64845d6126c981565b60395460ff1690565b6000610833610f956119fa565b84610f138560356000610fa66119fa565b6001600160a01b03908116825260208083019390935260409182016000908120918c168152925290205490611ecf565b603b546000906001600160a01b0316610fed6119fa565b6001600160a01b03161460405180604001604052806002815260200161323960f01b8152509061105e5760405162461bcd60e51b81526020600482018181528351602484015283519092839260449091019190850190808383600083156108e45781810151838201526020016108cc565b50603d54611076906001600160a01b03168484611f30565b50919050565b603b54603d546040805163d15e005360e01b81526001600160a01b039283166004820152905160009361083793169163d15e0053916024808301926020929190829003018186803b1580156110d057600080fd5b505afa1580156110e4573d6000803e3d6000fd5b505050506040513d60208110156110fa57600080fd5b505161110584611aea565b90611d63565b603b546001600160a01b031690565b6000611124611f82565b905090565b604051806040016040528060018152602001603160f81b81525081565b603b546001600160a01b031661115a6119fa565b6001600160a01b03161460405180604001604052806002815260200161323960f01b815250906111cb5760405162461bcd60e51b81526020600482018181528351602484015283519092839260449091019190850190808383600083156108e45781810151838201526020016108cc565b50816111d657611269565b603c546001600160a01b03166111f5816111f08585611b0b565b611c12565b6040805184815290516001600160a01b038316916000916000805160206128198339815191529181900360200190a3604080518481526020810184905281516001600160a01b038416927f4c209b5fc8ad50758f13e2e1088ba56a560dff690a1c6fef26394f4c03821c4f928290030190a2505b5050565b603b546001600160a01b03166112816119fa565b6001600160a01b03161460405180604001604052806002815260200161323960f01b815250906112f25760405162461bcd60e51b81526020600482018181528351602484015283519092839260449091019190850190808383600083156108e45781810151838201526020016108cc565b505050565b60388054604080516020601f60026000196101006001881615020190951694909404938401819004810282018101909252828152606093909290918301828280156108145780601f106107e957610100808354040283529160200191610814565b60006108336113656119fa565b84610f13856040518060600160405280602581526020016128cd602591396035600061138f6119fa565b6001600160a01b03908116825260208083019390935260409182016000908120918d16815292529020549190611e75565b60006113d46113cd6119fa565b8484611e68565b826001600160a01b03166113e66119fa565b6001600160a01b0316600080516020612819833981519152846040518082815260200191505060405180910390a350600192915050565b603c546001600160a01b031690565b603d546001600160a01b031690565b6000611124611b05565b603a6020526000908152604090205481565b6001600160a01b0387166114a2576040805162461bcd60e51b815260206004820152600d60248201526c24a72b20a624a22fa7aba722a960991b604482015290519081900360640190fd5b834211156114ec576040805162461bcd60e51b815260206004820152601260248201527124a72b20a624a22fa2ac2824a920aa24a7a760711b604482015290519081900360640190fd5b6001600160a01b0387166000908152603a60205260408120549046907f8b73c3c69bb8fe3d512ecc4cf759cc79239f7b179b0ffacaa9a75d522b39400f611531610788565b80516020918201206040805180820182526001808252603160f81b91850191909152815180850195909552848201929092527fc89efdaa54c0f20c7adf612882df0950f5a951637e0307cdcb4c672f298b8bc66060850152608084018690523060a0808601919091528151808603909101815260c0850182528051908401207f6e71edae12b1b97f4d1f60370fef10105fa2faae0126114a169c64845d6126c960e08601526001600160a01b038f81166101008701528e1661012086015261014085018d905261016085018890526101808086018d9052825180870390910181526101a08601835280519085012061190160f01b6101c08701526101c286018290526101e2808701919091528251808703909101815261020286018084528151918601919091206000909152610222860180845281905260ff8c1661024287015261026286018b905261028286018a90529151909550909391926102a2808401939192601f1981019281900390910190855afa1580156116b5573d6000803e3d6000fd5b505050602060405103516001600160a01b03168b6001600160a01b031614611718576040805162461bcd60e51b8152602060048201526011602482015270494e56414c49445f5349474e415455524560781b604482015290519081900360640190fd5b611723846001611ecf565b6001600160a01b038c166000908152603a60205260409020556117478b8b8b6119fe565b5050505050505050505050565b603b546001600160a01b03166117686119fa565b6001600160a01b03161460405180604001604052806002815260200161323960f01b815250906117d95760405162461bcd60e51b81526020600482018181528351602484015283519092839260449091019190850190808383600083156108e45781810151838201526020016108cc565b5060006117e68383611b0b565b60408051808201909152600281526106a760f31b60208201529091508161184e5760405162461bcd60e51b81526020600482018181528351602484015283519092839260449091019190850190808383600083156108e45781810151838201526020016108cc565b506118598582611f91565b603d54611870906001600160a01b03168585611f30565b6040805184815290516000916001600160a01b038816916000805160206128198339815191529181900360200190a3836001600160a01b0316856001600160a01b03167f5d624aa9c148153ab3446c1b154f660ee7701e549fe9b62dab7171b1c80e6fa28585604051808381526020018281526020019250505060405180910390a35050505050565b6001600160a01b03918216600090815260356020908152604080832093909416825291909152205490565b600181565b603b546001600160a01b031661193d6119fa565b6001600160a01b03161460405180604001604052806002815260200161323960f01b815250906119ae5760405162461bcd60e51b81526020600482018181528351602484015283519092839260449091019190850190808383600083156108e45781810151838201526020016108cc565b506119bc8383836000612035565b816001600160a01b0316836001600160a01b0316600080516020612819833981519152836040518082815260200191505060405180910390a3505050565b3390565b6001600160a01b038316611a435760405162461bcd60e51b815260040180806020018281038252602481526020018061287f6024913960400191505060405180910390fd5b6001600160a01b038216611a885760405162461bcd60e51b81526004018080602001828103825260228152602001806127546022913960400191505060405180910390fd5b6001600160a01b03808416600081815260356020908152604080832094871680845294825291829020859055815185815291517f8c5be1e5ebec7d5bd14f71427d1e84f3dd0314c0f7b2291e5b200ac8c7c3b9259281900390910190a3505050565b6001600160a01b031660009081526034602052604090205490565b60365490565b604080518082019091526002815261035360f41b602082015260009082611b735760405162461bcd60e51b81526020600482018181528351602484015283519092839260449091019190850190808383600083156108e45781810151838201526020016108cc565b5060408051808201909152600280825261068760f31b60208301528304906b033b2e3c9fd0803ce8000000821904851115611bef5760405162461bcd60e51b81526020600482018181528351602484015283519092839260449091019190850190808383600083156108e45781810151838201526020016108cc565b5082816b033b2e3c9fd0803ce800000086020181611c0957fe5b04949350505050565b6001600160a01b038216611c6d576040805162461bcd60e51b815260206004820152601f60248201527f45524332303a206d696e7420746f20746865207a65726f206164647265737300604482015290519081900360640190fd5b611c79600083836112f2565b603654611c868183611ecf565b6036556001600160a01b038316600090815260346020526040902054611cac8184611ecf565b6001600160a01b038516600090815260346020526040812091909155611cd0611f82565b6001600160a01b031614611d5d57611ce6611f82565b6001600160a01b03166331873e2e8584846040518463ffffffff1660e01b815260040180846001600160a01b031681526020018381526020018281526020019350505050600060405180830381600087803b158015611d4457600080fd5b505af1158015611d58573d6000803e3d6000fd5b505050505b50505050565b6000821580611d70575081155b15611d7d57506000610837565b816b019d971e4fe8401e740000001981611d9357fe5b0483111560405180604001604052806002815260200161068760f31b81525090611dfe5760405162461bcd60e51b81526020600482018181528351602484015283519092839260449091019190850190808383600083156108e45781810151838201526020016108cc565b50506b033b2e3c9fd0803ce800000091026b019d971e4fe8401e74000000010490565b600190565b303b1590565b805161126990603790602084019061267b565b805161126990603890602084019061267b565b6039805460ff191660ff92909216919091179055565b6112f28383836001612035565b60008184841115611ec75760405162461bcd60e51b81526020600482018181528351602484015283519092839260449091019190850190808383600083156108e45781810151838201526020016108cc565b505050900390565b600082820183811015611f29576040805162461bcd60e51b815260206004820152601b60248201527f536166654d6174683a206164646974696f6e206f766572666c6f770000000000604482015290519081900360640190fd5b9392505050565b604080516001600160a01b038416602482015260448082018490528251808303909101815260649091019091526020810180516001600160e01b031663a9059cbb60e01b1790526112f29084906121de565b603e546001600160a01b031690565b6001600160a01b038216611fd65760405162461bcd60e51b81526004018080602001828103825260218152602001806128396021913960400191505060405180910390fd5b611fe2826000836112f2565b603654611fef8183612396565b6036556001600160a01b0383166000908152603460209081526040918290205482516060810190935260228084529092611cac9286929061273290830139839190611e75565b603d54603b546040805163d15e005360e01b81526001600160a01b03938416600482018190529151919390921691600091839163d15e0053916024808301926020929190829003018186803b15801561208d57600080fd5b505afa1580156120a1573d6000803e3d6000fd5b505050506040513d60208110156120b757600080fd5b5051905060006120ca826111058a611aea565b905060006120db836111058a611aea565b90506120f189896120ec8a87611b0b565b6123d8565b8515612180576040805163d5ed393360e01b81526001600160a01b0387811660048301528b811660248301528a81166044830152606482018a90526084820185905260a4820184905291519186169163d5ed39339160c48082019260009290919082900301818387803b15801561216757600080fd5b505af115801561217b573d6000803e3d6000fd5b505050505b876001600160a01b0316896001600160a01b03167f4beccb90f994c31aced7a23b5611020728a23d8ec5cddd1a3e9d97b96fda86668986604051808381526020018281526020019250505060405180910390a3505050505050505050565b6121f0826001600160a01b031661263f565b612241576040805162461bcd60e51b815260206004820152601f60248201527f5361666545524332303a2063616c6c20746f206e6f6e2d636f6e747261637400604482015290519081900360640190fd5b60006060836001600160a01b0316836040518082805190602001908083835b6020831061227f5780518252601f199092019160209182019101612260565b6001836020036101000a0380198251168184511680821785525050505050509050019150506000604051808303816000865af19150503d80600081146122e1576040519150601f19603f3d011682016040523d82523d6000602084013e6122e6565b606091505b50915091508161233d576040805162461bcd60e51b815260206004820181905260248201527f5361666545524332303a206c6f772d6c6576656c2063616c6c206661696c6564604482015290519081900360640190fd5b805115611d5d5780806020019051602081101561235957600080fd5b5051611d5d5760405162461bcd60e51b815260040180806020018281038252602a8152602001806128a3602a913960400191505060405180910390fd5b6000611f2983836040518060400160405280601e81526020017f536166654d6174683a207375627472616374696f6e206f766572666c6f770000815250611e75565b6001600160a01b03831661241d5760405162461bcd60e51b815260040180806020018281038252602581526020018061285a6025913960400191505060405180910390fd5b6001600160a01b0382166124625760405162461bcd60e51b815260040180806020018281038252602381526020018061270f6023913960400191505060405180910390fd5b61246d8383836112f2565b600060346000856001600160a01b03166001600160a01b031681526020019081526020016000205490506124bc8260405180606001604052806026815260200161277660269139839190611e75565b6001600160a01b0380861660009081526034602052604080822093909355908516815220546124eb8184611ecf565b6001600160a01b03851660009081526034602052604081209190915561250f611f82565b6001600160a01b03161461263857603654612528611f82565b6001600160a01b03166331873e2e8783866040518463ffffffff1660e01b815260040180846001600160a01b031681526020018381526020018281526020019350505050600060405180830381600087803b15801561258657600080fd5b505af115801561259a573d6000803e3d6000fd5b50505050846001600160a01b0316866001600160a01b031614612636576125bf611f82565b6001600160a01b03166331873e2e8683856040518463ffffffff1660e01b815260040180846001600160a01b031681526020018381526020018281526020019350505050600060405180830381600087803b15801561261d57600080fd5b505af1158015612631573d6000803e3d6000fd5b505050505b505b5050505050565b6000813f7fc5d2460186f7233c927e7db2dcc703c0e500b653ca82273b7bfad8045d85a47081811480159061267357508115155b949350505050565b828054600181600116156101000203166002900490600052602060002090601f016020900481019282601f106126bc57805160ff19168380011785556126e9565b828001600101855582156126e9579182015b828111156126e95782518255916020019190600101906126ce565b506126f59291506126f9565b5090565b5b808211156126f557600081556001016126fa56fe45524332303a207472616e7366657220746f20746865207a65726f206164647265737345524332303a206275726e20616d6f756e7420657863656564732062616c616e636545524332303a20617070726f766520746f20746865207a65726f206164647265737345524332303a207472616e7366657220616d6f756e7420657863656564732062616c616e6365756e6465726c79696e67417373657420616464726573732063616e6e6f7420626520656d70747945524332303a207472616e7366657220616d6f756e74206578636565647320616c6c6f77616e6365436f6e747261637420696e7374616e63652068617320616c7265616479206265656e20696e697469616c697a6564ddf252ad1be2c89b69c2b068fc378daa952ba7f163c4a11628f55a4df523b3ef45524332303a206275726e2066726f6d20746865207a65726f206164647265737345524332303a207472616e736665722066726f6d20746865207a65726f206164647265737345524332303a20617070726f76652066726f6d20746865207a65726f20616464726573735361666545524332303a204552433230206f7065726174696f6e20646964206e6f74207375636365656445524332303a2064656372656173656420616c6c6f77616e63652062656c6f77207a65726fa26469706673582212202ad33c21e0cfc8f94e7656cd360e91fcc049f63f4bdabe3c2e9245f159f8e77a64736f6c634300060c0033",
  "linkReferences": {},
  "deployedLinkReferences": {}
}