{
  "_format": "hh-sol-artifact-1",
  "contractName": "StarlayOracle",
  "sourceName": "contracts/misc/StarlayOracle.sol",
  "abi": [
    {
      "inputs": [
        {
          "internalType": "address",
          "name": "priceAggregatorAdapter",
          "type": "address"
        },
        {
          "internalType": "address",
          "name": "fallbackOracle",
          "type": "address"
        },
        {
          "internalType": "address",
          "name": "baseCurrency",
          "type": "address"
        },
        {
          "internalType": "uint256",
          "name": "baseCurrencyUnit",
          "type": "uint256"
        }
      ],
      "stateMutability": "nonpayable",
      "type": "constructor"
    },
    {
      "anonymous": false,
      "inputs": [
        {
          "indexed": true,
          "internalType": "address",
          "name": "priceAggregator",
          "type": "address"
        }
      ],
      "name": "AssetSourceUpdated",
      "type": "event"
    },
    {
      "anonymous": false,
      "inputs": [
        {
          "indexed": true,
          "internalType": "address",
          "name": "baseCurrency",
          "type": "address"
        },
        {
          "indexed": false,
          "internalType": "uint256",
          "name": "baseCurrencyUnit",
          "type": "uint256"
        }
      ],
      "name": "BaseCurrencySet",
      "type": "event"
    },
    {
      "anonymous": false,
      "inputs": [
        {
          "indexed": true,
          "internalType": "address",
          "name": "fallbackOracle",
          "type": "address"
        }
      ],
      "name": "FallbackOracleUpdated",
      "type": "event"
    },
    {
      "anonymous": false,
      "inputs": [
        {
          "indexed": true,
          "internalType": "address",
          "name": "previousOwner",
          "type": "address"
        },
        {
          "indexed": true,
          "internalType": "address",
          "name": "newOwner",
          "type": "address"
        }
      ],
      "name": "OwnershipTransferred",
      "type": "event"
    },
    {
      "inputs": [],
      "name": "BASE_CURRENCY",
      "outputs": [
        {
          "internalType": "address",
          "name": "",
          "type": "address"
        }
      ],
      "stateMutability": "view",
      "type": "function"
    },
    {
      "inputs": [],
      "name": "BASE_CURRENCY_UNIT",
      "outputs": [
        {
          "internalType": "uint256",
          "name": "",
          "type": "uint256"
        }
      ],
      "stateMutability": "view",
      "type": "function"
    },
    {
      "inputs": [
        {
          "internalType": "address",
          "name": "asset",
          "type": "address"
        }
      ],
      "name": "getAssetPrice",
      "outputs": [
        {
          "internalType": "uint256",
          "name": "",
          "type": "uint256"
        }
      ],
      "stateMutability": "view",
      "type": "function"
    },
    {
      "inputs": [
        {
          "internalType": "address[]",
          "name": "assets",
          "type": "address[]"
        }
      ],
      "name": "getAssetsPrices",
      "outputs": [
        {
          "internalType": "uint256[]",
          "name": "",
          "type": "uint256[]"
        }
      ],
      "stateMutability": "view",
      "type": "function"
    },
    {
      "inputs": [],
      "name": "getFallbackOracle",
      "outputs": [
        {
          "internalType": "address",
          "name": "",
          "type": "address"
        }
      ],
      "stateMutability": "view",
      "type": "function"
    },
    {
      "inputs": [],
      "name": "owner",
      "outputs": [
        {
          "internalType": "address",
          "name": "",
          "type": "address"
        }
      ],
      "stateMutability": "view",
      "type": "function"
    },
    {
      "inputs": [],
      "name": "renounceOwnership",
      "outputs": [],
      "stateMutability": "nonpayable",
      "type": "function"
    },
    {
      "inputs": [
        {
          "internalType": "address",
          "name": "fallbackOracle",
          "type": "address"
        }
      ],
      "name": "setFallbackOracle",
      "outputs": [],
      "stateMutability": "nonpayable",
      "type": "function"
    },
    {
      "inputs": [
        {
          "internalType": "address",
          "name": "priceAggregator",
          "type": "address"
        }
      ],
      "name": "setPriceAggregator",
      "outputs": [],
      "stateMutability": "nonpayable",
      "type": "function"
    },
    {
      "inputs": [
        {
          "internalType": "address",
          "name": "newOwner",
          "type": "address"
        }
      ],
      "name": "transferOwnership",
      "outputs": [],
      "stateMutability": "nonpayable",
      "type": "function"
    }
  ],
  "bytecode": "0x60c060405234801561001057600080fd5b50604051610a19380380610a198339818101604052608081101561003357600080fd5b5080516020820151604083015160609093015191929091600061005461010f565b600080546001600160a01b0319166001600160a01b0383169081178255604051929350917f8be0079c531659141344cd1fd0a4f28419497f9722a3daafe3b4186f6b6457e0908290a3506100a783610113565b6100b08461015d565b6001600160601b0319606083901b1660805260a08190526040805182815290516001600160a01b038416917fe27c4c1372396a3d15a9922f74f9dfc7c72b1ad6d63868470787249c356454c1919081900360200190a2505050506101a7565b3390565b600180546001600160a01b0319166001600160a01b0383169081179091556040517fce7a780d33665b1ea097af5f155e3821b809ecbaa839d3b33aa83ba28168cefb90600090a250565b600280546001600160a01b0319166001600160a01b0383169081179091556040517fc4439bc964d6232a275de14d02a2a09e1bbe352315d0f1aae1cfa52610299f3990600090a250565b60805160601c60a0516108426101d7600039806103cb52806104d852508061049d528061061452506108426000f3fe608060405234801561001057600080fd5b506004361061009e5760003560e01c80638da5cb5b116100665780638da5cb5b146101375780639d23d9f21461013f578063b3596f07146101ff578063e19f470014610225578063f2fde38b1461022d5761009e565b8063170aee73146100a35780635070e837146100cb5780636210308c146100f1578063715018a6146101155780638c89b64f1461011d575b600080fd5b6100c9600480360360208110156100b957600080fd5b50356001600160a01b0316610253565b005b6100c9600480360360208110156100e157600080fd5b50356001600160a01b03166102b7565b6100f9610318565b604080516001600160a01b039092168252519081900360200190f35b6100c9610327565b6101256103c9565b60408051918252519081900360200190f35b6100f96103ed565b6101af6004803603602081101561015557600080fd5b81019060208101813564010000000081111561017057600080fd5b82018360208201111561018257600080fd5b803590602001918460208302840111640100000000831117156101a457600080fd5b5090925090506103fc565b60408051602080825283518183015283519192839290830191858101910280838360005b838110156101eb5781810151838201526020016101d3565b505050509050019250505060405180910390f35b6101256004803603602081101561021557600080fd5b50356001600160a01b0316610499565b6100f9610612565b6100c96004803603602081101561024357600080fd5b50356001600160a01b0316610636565b61025b61072e565b6000546001600160a01b039081169116146102ab576040805162461bcd60e51b815260206004820181905260248201526000805160206107ed833981519152604482015290519081900360640190fd5b6102b481610732565b50565b6102bf61072e565b6000546001600160a01b0390811691161461030f576040805162461bcd60e51b815260206004820181905260248201526000805160206107ed833981519152604482015290519081900360640190fd5b6102b48161077c565b6001546001600160a01b031690565b61032f61072e565b6000546001600160a01b0390811691161461037f576040805162461bcd60e51b815260206004820181905260248201526000805160206107ed833981519152604482015290519081900360640190fd5b600080546040516001600160a01b03909116907f8be0079c531659141344cd1fd0a4f28419497f9722a3daafe3b4186f6b6457e0908390a3600080546001600160a01b0319169055565b7f000000000000000000000000000000000000000000000000000000000000000081565b6000546001600160a01b031690565b6060808267ffffffffffffffff8111801561041657600080fd5b50604051908082528060200260200182016040528015610440578160200160208202803683370190505b50905060005b838110156104915761047285858381811061045d57fe5b905060200201356001600160a01b0316610499565b82828151811061047e57fe5b6020908102919091010152600101610446565b509392505050565b60007f00000000000000000000000000000000000000000000000000000000000000006001600160a01b0316826001600160a01b031614156104fc57507f000000000000000000000000000000000000000000000000000000000000000061060d565b6002546040805163e9833c2f60e01b81526001600160a01b0385811660048301529151600093929092169163e9833c2f91602480820192602092909190829003018186803b15801561054d57600080fd5b505afa158015610561573d6000803e3d6000fd5b505050506040513d602081101561057757600080fd5b50519050600081131561058b57905061060d565b6001546040805163b3596f0760e01b81526001600160a01b0386811660048301529151919092169163b3596f07916024808301926020929190829003018186803b1580156105d857600080fd5b505afa1580156105ec573d6000803e3d6000fd5b505050506040513d602081101561060257600080fd5b5051915061060d9050565b919050565b7f000000000000000000000000000000000000000000000000000000000000000081565b61063e61072e565b6000546001600160a01b0390811691161461068e576040805162461bcd60e51b815260206004820181905260248201526000805160206107ed833981519152604482015290519081900360640190fd5b6001600160a01b0381166106d35760405162461bcd60e51b81526004018080602001828103825260268152602001806107c76026913960400191505060405180910390fd5b600080546040516001600160a01b03808516939216917f8be0079c531659141344cd1fd0a4f28419497f9722a3daafe3b4186f6b6457e091a3600080546001600160a01b0319166001600160a01b0392909216919091179055565b3390565b600180546001600160a01b0319166001600160a01b0383169081179091556040517fce7a780d33665b1ea097af5f155e3821b809ecbaa839d3b33aa83ba28168cefb90600090a250565b600280546001600160a01b0319166001600160a01b0383169081179091556040517fc4439bc964d6232a275de14d02a2a09e1bbe352315d0f1aae1cfa52610299f3990600090a25056fe4f776e61626c653a206e6577206f776e657220697320746865207a65726f20616464726573734f776e61626c653a2063616c6c6572206973206e6f7420746865206f776e6572a26469706673582212201379b45f368c8ddf746becb49f3ccea4024a33d9c0b59fbe6c09b8d81575141164736f6c634300060c0033",
  "linkReferences": {},
  "deployedLinkReferences": {}
}