{
  "_format": "hh-sol-artifact-1",
  "contractName": "DelegationAwareLToken",
  "sourceName": "contracts/protocol/tokenization/DelegationAwareLToken.sol",
  "abi": [
    {
      "anonymous": false,
      "inputs": [
        {
          "indexed": true,
          "internalType": "address",
          "name": "owner",
          "type": "address"
        },
        {
          "indexed": true,
          "internalType": "address",
          "name": "spender",
          "type": "address"
        },
        {
          "indexed": false,
          "internalType": "uint256",
          "name": "value",
          "type": "uint256"
        }
      ],
      "name": "Approval",
      "type": "event"
    },
    {
      "anonymous": false,
      "inputs": [
        {
          "indexed": true,
          "internalType": "address",
          "name": "from",
          "type": "address"
        },
        {
          "indexed": true,
          "internalType": "address",
          "name": "to",
          "type": "address"
        },
        {
          "indexed": false,
          "internalType": "uint256",
          "name": "value",
          "type": "uint256"
        },
        {
          "indexed": false,
          "internalType": "uint256",
          "name": "index",
          "type": "uint256"
        }
      ],
      "name": "BalanceTransfer",
      "type": "event"
    },
    {
      "anonymous": false,
      "inputs": [
        {
          "indexed": true,
          "internalType": "address",
          "name": "from",
          "type": "address"
        },
        {
          "indexed": true,
          "internalType": "address",
          "name": "target",
          "type": "address"
        },
        {
          "indexed": false,
          "internalType": "uint256",
          "name": "value",
          "type": "uint256"
        },
        {
          "indexed": false,
          "internalType": "uint256",
          "name": "index",
          "type": "uint256"
        }
      ],
      "name": "Burn",
      "type": "event"
    },
    {
      "anonymous": false,
      "inputs": [
        {
          "indexed": true,
          "internalType": "address",
          "name": "underlyingAsset",
          "type": "address"
        },
        {
          "indexed": true,
          "internalType": "address",
          "name": "pool",
          "type": "address"
        },
        {
          "indexed": false,
          "internalType": "address",
          "name": "treasury",
          "type": "address"
        },
        {
          "indexed": false,
          "internalType": "address",
          "name": "incentivesController",
          "type": "address"
        },
        {
          "indexed": false,
          "internalType": "uint8",
          "name": "lTokenDecimals",
          "type": "uint8"
        },
        {
          "indexed": false,
          "internalType": "string",
          "name": "lTokenName",
          "type": "string"
        },
        {
          "indexed": false,
          "internalType": "string",
          "name": "lTokenSymbol",
          "type": "string"
        },
        {
          "indexed": false,
          "internalType": "bytes",
          "name": "params",
          "type": "bytes"
        }
      ],
      "name": "Initialized",
      "type": "event"
    },
    {
      "anonymous": false,
      "inputs": [
        {
          "indexed": true,
          "internalType": "address",
          "name": "from",
          "type": "address"
        },
        {
          "indexed": false,
          "internalType": "uint256",
          "name": "value",
          "type": "uint256"
        },
        {
          "indexed": false,
          "internalType": "uint256",
          "name": "index",
          "type": "uint256"
        }
      ],
      "name": "Mint",
      "type": "event"
    },
    {
      "anonymous": false,
      "inputs": [
        {
          "indexed": true,
          "internalType": "address",
          "name": "from",
          "type": "address"
        },
        {
          "indexed": true,
          "internalType": "address",
          "name": "to",
          "type": "address"
        },
        {
          "indexed": false,
          "internalType": "uint256",
          "name": "value",
          "type": "uint256"
        }
      ],
      "name": "Transfer",
      "type": "event"
    },
    {
      "inputs": [],
      "name": "EIP712_REVISION",
      "outputs": [
        {
          "internalType": "bytes",
          "name": "",
          "type": "bytes"
        }
      ],
      "stateMutability": "view",
      "type": "function"
    },
    {
      "inputs": [],
      "name": "LTOKEN_REVISION",
      "outputs": [
        {
          "internalType": "uint256",
          "name": "",
          "type": "uint256"
        }
      ],
      "stateMutability": "view",
      "type": "function"
    },
    {
      "inputs": [],
      "name": "PERMIT_TYPEHASH",
      "outputs": [
        {
          "internalType": "bytes32",
          "name": "",
          "type": "bytes32"
        }
      ],
      "stateMutability": "view",
      "type": "function"
    },
    {
      "inputs": [],
      "name": "POOL",
      "outputs": [
        {
          "internalType": "contract ILendingPool",
          "name": "",
          "type": "address"
        }
      ],
      "stateMutability": "view",
      "type": "function"
    },
    {
      "inputs": [],
      "name": "RESERVE_TREASURY_ADDRESS",
      "outputs": [
        {
          "internalType": "address",
          "name": "",
          "type": "address"
        }
      ],
      "stateMutability": "view",
      "type": "function"
    },
    {
      "inputs": [],
      "name": "UNDERLYING_ASSET_ADDRESS",
      "outputs": [
        {
          "internalType": "address",
          "name": "",
          "type": "address"
        }
      ],
      "stateMutability": "view",
      "type": "function"
    },
    {
      "inputs": [
        {
          "internalType": "address",
          "name": "",
          "type": "address"
        }
      ],
      "name": "_nonces",
      "outputs": [
        {
          "internalType": "uint256",
          "name": "",
          "type": "uint256"
        }
      ],
      "stateMutability": "view",
      "type": "function"
    },
    {
      "inputs": [
        {
          "internalType": "address",
          "name": "owner",
          "type": "address"
        },
        {
          "internalType": "address",
          "name": "spender",
          "type": "address"
        }
      ],
      "name": "allowance",
      "outputs": [
        {
          "internalType": "uint256",
          "name": "",
          "type": "uint256"
        }
      ],
      "stateMutability": "view",
      "type": "function"
    },
    {
      "inputs": [
        {
          "internalType": "address",
          "name": "spender",
          "type": "address"
        },
        {
          "internalType": "uint256",
          "name": "amount",
          "type": "uint256"
        }
      ],
      "name": "approve",
      "outputs": [
        {
          "internalType": "bool",
          "name": "",
          "type": "bool"
        }
      ],
      "stateMutability": "nonpayable",
      "type": "function"
    },
    {
      "inputs": [
        {
          "internalType": "address",
          "name": "user",
          "type": "address"
        }
      ],
      "name": "balanceOf",
      "outputs": [
        {
          "internalType": "uint256",
          "name": "",
          "type": "uint256"
        }
      ],
      "stateMutability": "view",
      "type": "function"
    },
    {
      "inputs": [
        {
          "internalType": "address",
          "name": "user",
          "type": "address"
        },
        {
          "internalType": "address",
          "name": "receiverOfUnderlying",
          "type": "address"
        },
        {
          "internalType": "uint256",
          "name": "amount",
          "type": "uint256"
        },
        {
          "internalType": "uint256",
          "name": "index",
          "type": "uint256"
        }
      ],
      "name": "burn",
      "outputs": [],
      "stateMutability": "nonpayable",
      "type": "function"
    },
    {
      "inputs": [],
      "name": "decimals",
      "outputs": [
        {
          "internalType": "uint8",
          "name": "",
          "type": "uint8"
        }
      ],
      "stateMutability": "view",
      "type": "function"
    },
    {
      "inputs": [
        {
          "internalType": "address",
          "name": "spender",
          "type": "address"
        },
        {
          "internalType": "uint256",
          "name": "subtractedValue",
          "type": "uint256"
        }
      ],
      "name": "decreaseAllowance",
      "outputs": [
        {
          "internalType": "bool",
          "name": "",
          "type": "bool"
        }
      ],
      "stateMutability": "nonpayable",
      "type": "function"
    },
    {
      "inputs": [
        {
          "internalType": "address",
          "name": "delegatee",
          "type": "address"
        }
      ],
      "name": "delegateUnderlyingTo",
      "outputs": [],
      "stateMutability": "nonpayable",
      "type": "function"
    },
    {
      "inputs": [],
      "name": "getIncentivesController",
      "outputs": [
        {
          "internalType": "contract IStarlayIncentivesController",
          "name": "",
          "type": "address"
        }
      ],
      "stateMutability": "view",
      "type": "function"
    },
    {
      "inputs": [
        {
          "internalType": "address",
          "name": "user",
          "type": "address"
        }
      ],
      "name": "getScaledUserBalanceAndSupply",
      "outputs": [
        {
          "internalType": "uint256",
          "name": "",
          "type": "uint256"
        },
        {
          "internalType": "uint256",
          "name": "",
          "type": "uint256"
        }
      ],
      "stateMutability": "view",
      "type": "function"
    },
    {
      "inputs": [
        {
          "internalType": "address",
          "name": "user",
          "type": "address"
        },
        {
          "internalType": "uint256",
          "name": "amount",
          "type": "uint256"
        }
      ],
      "name": "handleRepayment",
      "outputs": [],
      "stateMutability": "nonpayable",
      "type": "function"
    },
    {
      "inputs": [
        {
          "internalType": "address",
          "name": "spender",
          "type": "address"
        },
        {
          "internalType": "uint256",
          "name": "addedValue",
          "type": "uint256"
        }
      ],
      "name": "increaseAllowance",
      "outputs": [
        {
          "internalType": "bool",
          "name": "",
          "type": "bool"
        }
      ],
      "stateMutability": "nonpayable",
      "type": "function"
    },
    {
      "inputs": [
        {
          "internalType": "contract ILendingPool",
          "name": "pool",
          "type": "address"
        },
        {
          "internalType": "address",
          "name": "treasury",
          "type": "address"
        },
        {
          "internalType": "address",
          "name": "underlyingAsset",
          "type": "address"
        },
        {
          "internalType": "contract IStarlayIncentivesController",
          "name": "incentivesController",
          "type": "address"
        },
        {
          "internalType": "uint8",
          "name": "lTokenDecimals",
          "type": "uint8"
        },
        {
          "internalType": "string",
          "name": "lTokenName",
          "type": "string"
        },
        {
          "internalType": "string",
          "name": "lTokenSymbol",
          "type": "string"
        },
        {
          "internalType": "bytes",
          "name": "params",
          "type": "bytes"
        }
      ],
      "name": "initialize",
      "outputs": [],
      "stateMutability": "nonpayable",
      "type": "function"
    },
    {
      "inputs": [
        {
          "internalType": "address",
          "name": "user",
          "type": "address"
        },
        {
          "internalType": "uint256",
          "name": "amount",
          "type": "uint256"
        },
        {
          "internalType": "uint256",
          "name": "index",
          "type": "uint256"
        }
      ],
      "name": "mint",
      "outputs": [
        {
          "internalType": "bool",
          "name": "",
          "type": "bool"
        }
      ],
      "stateMutability": "nonpayable",
      "type": "function"
    },
    {
      "inputs": [
        {
          "internalType": "uint256",
          "name": "amount",
          "type": "uint256"
        },
        {
          "internalType": "uint256",
          "name": "index",
          "type": "uint256"
        }
      ],
      "name": "mintToTreasury",
      "outputs": [],
      "stateMutability": "nonpayable",
      "type": "function"
    },
    {
      "inputs": [],
      "name": "name",
      "outputs": [
        {
          "internalType": "string",
          "name": "",
          "type": "string"
        }
      ],
      "stateMutability": "view",
      "type": "function"
    },
    {
      "inputs": [
        {
          "internalType": "address",
          "name": "owner",
          "type": "address"
        },
        {
          "internalType": "address",
          "name": "spender",
          "type": "address"
        },
        {
          "internalType": "uint256",
          "name": "value",
          "type": "uint256"
        },
        {
          "internalType": "uint256",
          "name": "deadline",
          "type": "uint256"
        },
        {
          "internalType": "uint8",
          "name": "v",
          "type": "uint8"
        },
        {
          "internalType": "bytes32",
          "name": "r",
          "type": "bytes32"
        },
        {
          "internalType": "bytes32",
          "name": "s",
          "type": "bytes32"
        }
      ],
      "name": "permit",
      "outputs": [],
      "stateMutability": "nonpayable",
      "type": "function"
    },
    {
      "inputs": [
        {
          "internalType": "address",
          "name": "user",
          "type": "address"
        }
      ],
      "name": "scaledBalanceOf",
      "outputs": [
        {
          "internalType": "uint256",
          "name": "",
          "type": "uint256"
        }
      ],
      "stateMutability": "view",
      "type": "function"
    },
    {
      "inputs": [],
      "name": "scaledTotalSupply",
      "outputs": [
        {
          "internalType": "uint256",
          "name": "",
          "type": "uint256"
        }
      ],
      "stateMutability": "view",
      "type": "function"
    },
    {
      "inputs": [],
      "name": "symbol",
      "outputs": [
        {
          "internalType": "string",
          "name": "",
          "type": "string"
        }
      ],
      "stateMutability": "view",
      "type": "function"
    },
    {
      "inputs": [],
      "name": "totalSupply",
      "outputs": [
        {
          "internalType": "uint256",
          "name": "",
          "type": "uint256"
        }
      ],
      "stateMutability": "view",
      "type": "function"
    },
    {
      "inputs": [
        {
          "internalType": "address",
          "name": "recipient",
          "type": "address"
        },
        {
          "internalType": "uint256",
          "name": "amount",
          "type": "uint256"
        }
      ],
      "name": "transfer",
      "outputs": [
        {
          "internalType": "bool",
          "name": "",
          "type": "bool"
        }
      ],
      "stateMutability": "nonpayable",
      "type": "function"
    },
    {
      "inputs": [
        {
          "internalType": "address",
          "name": "sender",
          "type": "address"
        },
        {
          "internalType": "address",
          "name": "recipient",
          "type": "address"
        },
        {
          "internalType": "uint256",
          "name": "amount",
          "type": "uint256"
        }
      ],
      "name": "transferFrom",
      "outputs": [
        {
          "internalType": "bool",
          "name": "",
          "type": "bool"
        }
      ],
      "stateMutability": "nonpayable",
      "type": "function"
    },
    {
      "inputs": [
        {
          "internalType": "address",
          "name": "from",
          "type": "address"
        },
        {
          "internalType": "address",
          "name": "to",
          "type": "address"
        },
        {
          "internalType": "uint256",
          "name": "value",
          "type": "uint256"
        }
      ],
      "name": "transferOnLiquidation",
      "outputs": [],
      "stateMutability": "nonpayable",
      "type": "function"
    },
    {
      "inputs": [
        {
          "internalType": "address",
          "name": "target",
          "type": "address"
        },
        {
          "internalType": "uint256",
          "name": "amount",
          "type": "uint256"
        }
      ],
      "name": "transferUnderlyingTo",
      "outputs": [
        {
          "internalType": "uint256",
          "name": "",
          "type": "uint256"
        }
      ],
      "stateMutability": "nonpayable",
      "type": "function"
    }
  ],
  "bytecode": "0x6080604052600080553480156200001557600080fd5b50604080518082018252600b8082526a131513d2d15397d253541360aa1b60208084018281528551808701909652928552840152815191929160009162000060916037919062000094565b5081516200007690603890602085019062000094565b506039805460ff191660ff9290921691909117905550620001309050565b828054600181600116156101000203166002900490600052602060002090601f016020900481019282601f10620000d757805160ff191683800117855562000107565b8280016001018555821562000107579182015b8281111562000107578251825591602001919060010190620000ea565b506200011592915062000119565b5090565b5b808211156200011557600081556001016200011a565b612b2b80620001406000396000f3fe608060405234801561001057600080fd5b50600436106101e55760003560e01c806375d264131161010f578063b16a19de116100a2578063d7020d0a11610071578063d7020d0a14610711578063dd62ed3e1461074d578063e0eb48271461077b578063f866c31914610783576101e5565b8063b16a19de1461068a578063b1bf962d14610692578063b9844d8d1461069a578063d505accf146106c0576101e5565b806395d89b41116100de57806395d89b4114610622578063a457c2d71461062a578063a9059cbb14610656578063ae16733514610682576101e5565b806375d26413146105c357806378160376146105cb5780637df5bd3b146105d357806388dd91a1146105f6576101e5565b806323b872dd11610187578063395093511161015657806339509351146105215780634efecaa51461054d57806370a08231146105795780637535d2461461059f576101e5565b806323b872dd1461049f5780632f114618146104d557806330adf81f146104fb578063313ce56714610503576101e5565b8063156e29f6116101c3578063156e29f6146102e657806318160ddd14610318578063183fb413146103325780631da24f3e14610479576101e5565b806306fdde03146101ea578063095ea7b3146102675780630afbcdc9146102a7575b600080fd5b6101f26107b9565b6040805160208082528351818301528351919283929083019185019080838360005b8381101561022c578181015183820152602001610214565b50505050905090810190601f1680156102595780820380516001836020036101000a031916815260200191505b509250505060405180910390f35b6102936004803603604081101561027d57600080fd5b506001600160a01b038135169060200135610850565b604080519115158252519081900360200190f35b6102cd600480360360208110156102bd57600080fd5b50356001600160a01b031661086e565b6040805192835260208301919091528051918290030190f35b610293600480360360608110156102fc57600080fd5b506001600160a01b03813516906020810135906040013561088b565b610320610a59565b60408051918252519081900360200190f35b610477600480360361010081101561034957600080fd5b6001600160a01b038235811692602081013582169260408201358316926060830135169160ff6080820135169181019060c0810160a082013564010000000081111561039457600080fd5b8201836020820111156103a657600080fd5b803590602001918460018302840111640100000000831117156103c857600080fd5b9193909290916020810190356401000000008111156103e657600080fd5b8201836020820111156103f857600080fd5b8035906020019184600183028401116401000000008311171561041a57600080fd5b91939092909160208101903564010000000081111561043857600080fd5b82018360208201111561044a57600080fd5b8035906020019184600183028401116401000000008311171561046c57600080fd5b509092509050610b03565b005b6103206004803603602081101561048f57600080fd5b50356001600160a01b0316610ec1565b610293600480360360608110156104b557600080fd5b506001600160a01b03813581169160208101359091169060400135610ecc565b610477600480360360208110156104eb57600080fd5b50356001600160a01b0316610f8c565b610320611160565b61050b611184565b6040805160ff9092168252519081900360200190f35b6102936004803603604081101561053757600080fd5b506001600160a01b03813516906020013561118d565b6103206004803603604081101561056357600080fd5b506001600160a01b0381351690602001356111db565b6103206004803603602081101561058f57600080fd5b50356001600160a01b0316611281565b6105a7611310565b604080516001600160a01b039092168252519081900360200190f35b6105a761131f565b6101f261132e565b610477600480360360408110156105e957600080fd5b508035906020013561134b565b6104776004803603604081101561060c57600080fd5b506001600160a01b038135169060200135611472565b6101f26114fc565b6102936004803603604081101561064057600080fd5b506001600160a01b03813516906020013561155d565b6102936004803603604081101561066c57600080fd5b506001600160a01b0381351690602001356115c5565b6105a7611622565b6105a7611631565b610320611640565b610320600480360360208110156106b057600080fd5b50356001600160a01b031661164a565b610477600480360360e08110156106d657600080fd5b506001600160a01b03813581169160208101359091169060408101359060608101359060ff6080820135169060a08101359060c0013561165c565b6104776004803603608081101561072757600080fd5b506001600160a01b03813581169160208101359091169060408101359060600135611959565b6103206004803603604081101561076357600080fd5b506001600160a01b0381358116916020013516611afe565b610320611b29565b6104776004803603606081101561079957600080fd5b506001600160a01b03813581169160208101359091169060400135611b2e565b60378054604080516020601f60026000196101006001881615020190951694909404938401819004810282018101909252828152606093909290918301828280156108455780601f1061081a57610100808354040283529160200191610845565b820191906000526020600020905b81548152906001019060200180831161082857829003601f168201915b505050505090505b90565b600061086461085d611bff565b8484611c03565b5060015b92915050565b60008061087a83611cef565b610882611d0a565b91509150915091565b603b546000906001600160a01b03166108a2611bff565b6001600160a01b03161460405180604001604052806002815260200161323960f01b815250906109505760405162461bcd60e51b81526004018080602001828103825283818151815260200191508051906020019080838360005b838110156109155781810151838201526020016108fd565b50505050905090810190601f1680156109425780820380516001836020036101000a031916815260200191505b509250505060405180910390fd5b50600061095c85611cef565b9050600061096a8585611d10565b6040805180820190915260028152611a9b60f11b6020820152909150816109d25760405162461bcd60e51b81526020600482018181528351602484015283519092839260449091019190850190808383600083156109155781810151838201526020016108fd565b506109dd8682611e17565b6040805186815290516001600160a01b03881691600091600080516020612a1d8339815191529181900360200190a3604080518681526020810186905281516001600160a01b038916927f4c209b5fc8ad50758f13e2e1088ba56a560dff690a1c6fef26394f4c03821c4f928290030190a25015949350505050565b600080610a64611d0a565b905080610a7557600091505061084d565b603b54603d546040805163d15e005360e01b81526001600160a01b0392831660048201529051610afd93929092169163d15e005391602480820192602092909190829003018186803b158015610aca57600080fd5b505afa158015610ade573d6000803e3d6000fd5b505050506040513d6020811015610af457600080fd5b50518290611f68565b91505090565b6000610b0d612026565b60015490915060ff1680610b245750610b2461202b565b80610b30575060005481115b610b6b5760405162461bcd60e51b815260040180806020018281038252602e8152602001806129ef602e913960400191505060405180910390fd5b60015460ff16158015610b8a576001805460ff19168117905560008290555b6001600160a01b038c16610be5576040805162461bcd60e51b815260206004820181905260248201527f747265617375727920616464726573732063616e6e6f7420626520656d707479604482015290519081900360640190fd5b6001600160a01b038b16610c2a5760405162461bcd60e51b81526004018080602001828103825260278152602001806129a06027913960400191505060405180910390fd5b6001600160a01b038d16610c85576040805162461bcd60e51b815260206004820152601c60248201527f706f6f6c20616464726573732063616e6e6f7420626520656d70747900000000604482015290519081900360640190fd5b610cc488888080601f01602080910402602001604051908101604052809392919081815260200183838082843760009201919091525061203192505050565b610d0386868080601f01602080910402602001604051908101604052809392919081815260200183838082843760009201919091525061204492505050565b610d0c89612057565b8c603b60006101000a8154816001600160a01b0302191690836001600160a01b031602179055508b603c60006101000a8154816001600160a01b0302191690836001600160a01b031602179055508a603d60006101000a8154816001600160a01b0302191690836001600160a01b0316021790555089603e60006101000a8154816001600160a01b0302191690836001600160a01b031602179055508c6001600160a01b03168b6001600160a01b03167fb19e051f8af41150ccccb3fc2c2d8d15f4a4cf434f32a559ba75fe73d6eea20b8e8d8d8d8d8d8d8d8d604051808a6001600160a01b03168152602001896001600160a01b031681526020018860ff16815260200180602001806020018060200184810384528a8a82818152602001925080828437600083820152601f01601f191690910185810384528881526020019050888880828437600083820152601f01601f191690910185810383528681526020019050868680828437600083820152604051601f909101601f19169092018290039e50909c50505050505050505050505050a38015610eb2576001805460ff191690555b50505050505050505050505050565b600061086882611cef565b6000610ed984848461206d565b610f4984610ee5611bff565b610f44856040518060600160405280602881526020016129c7602891396001600160a01b038a16600090815260356020526040812090610f23611bff565b6001600160a01b03168152602081019190915260400160002054919061207a565b611c03565b826001600160a01b0316846001600160a01b0316600080516020612a1d833981519152846040518082815260200191505060405180910390a35060019392505050565b603b60009054906101000a90046001600160a01b03166001600160a01b031663fe65acfe6040518163ffffffff1660e01b815260040160206040518083038186803b158015610fda57600080fd5b505afa158015610fee573d6000803e3d6000fd5b505050506040513d602081101561100457600080fd5b5051604080516315d9b46f60e31b815290516001600160a01b039092169163aecda37891600480820192602092909190829003018186803b15801561104857600080fd5b505afa15801561105c573d6000803e3d6000fd5b505050506040513d602081101561107257600080fd5b50516001600160a01b0316611085611bff565b6001600160a01b03161460405180604001604052806002815260200161333360f01b815250906110f65760405162461bcd60e51b81526020600482018181528351602484015283519092839260449091019190850190808383600083156109155781810151838201526020016108fd565b50603d54604080516317066a5760e21b81526001600160a01b03848116600483015291519190921691635c19a95c91602480830192600092919082900301818387803b15801561114557600080fd5b505af1158015611159573d6000803e3d6000fd5b5050505050565b7f6e71edae12b1b97f4d1f60370fef10105fa2faae0126114a169c64845d6126c981565b60395460ff1690565b600061086461119a611bff565b84610f4485603560006111ab611bff565b6001600160a01b03908116825260208083019390935260409182016000908120918c1681529252902054906120d4565b603b546000906001600160a01b03166111f2611bff565b6001600160a01b03161460405180604001604052806002815260200161323960f01b815250906112635760405162461bcd60e51b81526020600482018181528351602484015283519092839260449091019190850190808383600083156109155781810151838201526020016108fd565b50603d5461127b906001600160a01b03168484612135565b50919050565b603b54603d546040805163d15e005360e01b81526001600160a01b039283166004820152905160009361086893169163d15e0053916024808301926020929190829003018186803b1580156112d557600080fd5b505afa1580156112e9573d6000803e3d6000fd5b505050506040513d60208110156112ff57600080fd5b505161130a84611cef565b90611f68565b603b546001600160a01b031690565b6000611329612187565b905090565b604051806040016040528060018152602001603160f81b81525081565b603b546001600160a01b031661135f611bff565b6001600160a01b03161460405180604001604052806002815260200161323960f01b815250906113d05760405162461bcd60e51b81526020600482018181528351602484015283519092839260449091019190850190808383600083156109155781810151838201526020016108fd565b50816113db5761146e565b603c546001600160a01b03166113fa816113f58585611d10565b611e17565b6040805184815290516001600160a01b03831691600091600080516020612a1d8339815191529181900360200190a3604080518481526020810184905281516001600160a01b038416927f4c209b5fc8ad50758f13e2e1088ba56a560dff690a1c6fef26394f4c03821c4f928290030190a2505b5050565b603b546001600160a01b0316611486611bff565b6001600160a01b03161460405180604001604052806002815260200161323960f01b815250906114f75760405162461bcd60e51b81526020600482018181528351602484015283519092839260449091019190850190808383600083156109155781810151838201526020016108fd565b505050565b60388054604080516020601f60026000196101006001881615020190951694909404938401819004810282018101909252828152606093909290918301828280156108455780601f1061081a57610100808354040283529160200191610845565b600061086461156a611bff565b84610f4485604051806060016040528060258152602001612ad16025913960356000611594611bff565b6001600160a01b03908116825260208083019390935260409182016000908120918d1681529252902054919061207a565b60006115d96115d2611bff565b848461206d565b826001600160a01b03166115eb611bff565b6001600160a01b0316600080516020612a1d833981519152846040518082815260200191505060405180910390a350600192915050565b603c546001600160a01b031690565b603d546001600160a01b031690565b6000611329611d0a565b603a6020526000908152604090205481565b6001600160a01b0387166116a7576040805162461bcd60e51b815260206004820152600d60248201526c24a72b20a624a22fa7aba722a960991b604482015290519081900360640190fd5b834211156116f1576040805162461bcd60e51b815260206004820152601260248201527124a72b20a624a22fa2ac2824a920aa24a7a760711b604482015290519081900360640190fd5b6001600160a01b0387166000908152603a60205260408120549046907f8b73c3c69bb8fe3d512ecc4cf759cc79239f7b179b0ffacaa9a75d522b39400f6117366107b9565b80516020918201206040805180820182526001808252603160f81b91850191909152815180850195909552848201929092527fc89efdaa54c0f20c7adf612882df0950f5a951637e0307cdcb4c672f298b8bc66060850152608084018690523060a0808601919091528151808603909101815260c0850182528051908401207f6e71edae12b1b97f4d1f60370fef10105fa2faae0126114a169c64845d6126c960e08601526001600160a01b038f81166101008701528e1661012086015261014085018d905261016085018890526101808086018d9052825180870390910181526101a08601835280519085012061190160f01b6101c08701526101c286018290526101e2808701919091528251808703909101815261020286018084528151918601919091206000909152610222860180845281905260ff8c1661024287015261026286018b905261028286018a90529151909550909391926102a2808401939192601f1981019281900390910190855afa1580156118ba573d6000803e3d6000fd5b505050602060405103516001600160a01b03168b6001600160a01b03161461191d576040805162461bcd60e51b8152602060048201526011602482015270494e56414c49445f5349474e415455524560781b604482015290519081900360640190fd5b6119288460016120d4565b6001600160a01b038c166000908152603a602052604090205561194c8b8b8b611c03565b5050505050505050505050565b603b546001600160a01b031661196d611bff565b6001600160a01b03161460405180604001604052806002815260200161323960f01b815250906119de5760405162461bcd60e51b81526020600482018181528351602484015283519092839260449091019190850190808383600083156109155781810151838201526020016108fd565b5060006119eb8383611d10565b60408051808201909152600281526106a760f31b602082015290915081611a535760405162461bcd60e51b81526020600482018181528351602484015283519092839260449091019190850190808383600083156109155781810151838201526020016108fd565b50611a5e8582612196565b603d54611a75906001600160a01b03168585612135565b6040805184815290516000916001600160a01b03881691600080516020612a1d8339815191529181900360200190a3836001600160a01b0316856001600160a01b03167f5d624aa9c148153ab3446c1b154f660ee7701e549fe9b62dab7171b1c80e6fa28585604051808381526020018281526020019250505060405180910390a35050505050565b6001600160a01b03918216600090815260356020908152604080832093909416825291909152205490565b600181565b603b546001600160a01b0316611b42611bff565b6001600160a01b03161460405180604001604052806002815260200161323960f01b81525090611bb35760405162461bcd60e51b81526020600482018181528351602484015283519092839260449091019190850190808383600083156109155781810151838201526020016108fd565b50611bc1838383600061223a565b816001600160a01b0316836001600160a01b0316600080516020612a1d833981519152836040518082815260200191505060405180910390a3505050565b3390565b6001600160a01b038316611c485760405162461bcd60e51b8152600401808060200182810382526024815260200180612a836024913960400191505060405180910390fd5b6001600160a01b038216611c8d5760405162461bcd60e51b81526004018080602001828103825260228152602001806129586022913960400191505060405180910390fd5b6001600160a01b03808416600081815260356020908152604080832094871680845294825291829020859055815185815291517f8c5be1e5ebec7d5bd14f71427d1e84f3dd0314c0f7b2291e5b200ac8c7c3b9259281900390910190a3505050565b6001600160a01b031660009081526034602052604090205490565b60365490565b604080518082019091526002815261035360f41b602082015260009082611d785760405162461bcd60e51b81526020600482018181528351602484015283519092839260449091019190850190808383600083156109155781810151838201526020016108fd565b5060408051808201909152600280825261068760f31b60208301528304906b033b2e3c9fd0803ce8000000821904851115611df45760405162461bcd60e51b81526020600482018181528351602484015283519092839260449091019190850190808383600083156109155781810151838201526020016108fd565b5082816b033b2e3c9fd0803ce800000086020181611e0e57fe5b04949350505050565b6001600160a01b038216611e72576040805162461bcd60e51b815260206004820152601f60248201527f45524332303a206d696e7420746f20746865207a65726f206164647265737300604482015290519081900360640190fd5b611e7e600083836114f7565b603654611e8b81836120d4565b6036556001600160a01b038316600090815260346020526040902054611eb181846120d4565b6001600160a01b038516600090815260346020526040812091909155611ed5612187565b6001600160a01b031614611f6257611eeb612187565b6001600160a01b03166331873e2e8584846040518463ffffffff1660e01b815260040180846001600160a01b031681526020018381526020018281526020019350505050600060405180830381600087803b158015611f4957600080fd5b505af1158015611f5d573d6000803e3d6000fd5b505050505b50505050565b6000821580611f75575081155b15611f8257506000610868565b816b019d971e4fe8401e740000001981611f9857fe5b0483111560405180604001604052806002815260200161068760f31b815250906120035760405162461bcd60e51b81526020600482018181528351602484015283519092839260449091019190850190808383600083156109155781810151838201526020016108fd565b50506b033b2e3c9fd0803ce800000091026b019d971e4fe8401e74000000010490565b600190565b303b1590565b805161146e90603790602084019061287f565b805161146e90603890602084019061287f565b6039805460ff191660ff92909216919091179055565b6114f7838383600161223a565b600081848411156120cc5760405162461bcd60e51b81526020600482018181528351602484015283519092839260449091019190850190808383600083156109155781810151838201526020016108fd565b505050900390565b60008282018381101561212e576040805162461bcd60e51b815260206004820152601b60248201527f536166654d6174683a206164646974696f6e206f766572666c6f770000000000604482015290519081900360640190fd5b9392505050565b604080516001600160a01b038416602482015260448082018490528251808303909101815260649091019091526020810180516001600160e01b031663a9059cbb60e01b1790526114f79084906123e3565b603e546001600160a01b031690565b6001600160a01b0382166121db5760405162461bcd60e51b8152600401808060200182810382526021815260200180612a3d6021913960400191505060405180910390fd5b6121e7826000836114f7565b6036546121f4818361259b565b6036556001600160a01b0383166000908152603460209081526040918290205482516060810190935260228084529092611eb1928692906129369083013983919061207a565b603d54603b546040805163d15e005360e01b81526001600160a01b03938416600482018190529151919390921691600091839163d15e0053916024808301926020929190829003018186803b15801561229257600080fd5b505afa1580156122a6573d6000803e3d6000fd5b505050506040513d60208110156122bc57600080fd5b5051905060006122cf8261130a8a611cef565b905060006122e08361130a8a611cef565b90506122f689896122f18a87611d10565b6125dd565b8515612385576040805163d5ed393360e01b81526001600160a01b0387811660048301528b811660248301528a81166044830152606482018a90526084820185905260a4820184905291519186169163d5ed39339160c48082019260009290919082900301818387803b15801561236c57600080fd5b505af1158015612380573d6000803e3d6000fd5b505050505b876001600160a01b0316896001600160a01b03167f4beccb90f994c31aced7a23b5611020728a23d8ec5cddd1a3e9d97b96fda86668986604051808381526020018281526020019250505060405180910390a3505050505050505050565b6123f5826001600160a01b0316612843565b612446576040805162461bcd60e51b815260206004820152601f60248201527f5361666545524332303a2063616c6c20746f206e6f6e2d636f6e747261637400604482015290519081900360640190fd5b60006060836001600160a01b0316836040518082805190602001908083835b602083106124845780518252601f199092019160209182019101612465565b6001836020036101000a0380198251168184511680821785525050505050509050019150506000604051808303816000865af19150503d80600081146124e6576040519150601f19603f3d011682016040523d82523d6000602084013e6124eb565b606091505b509150915081612542576040805162461bcd60e51b815260206004820181905260248201527f5361666545524332303a206c6f772d6c6576656c2063616c6c206661696c6564604482015290519081900360640190fd5b805115611f625780806020019051602081101561255e57600080fd5b5051611f625760405162461bcd60e51b815260040180806020018281038252602a815260200180612aa7602a913960400191505060405180910390fd5b600061212e83836040518060400160405280601e81526020017f536166654d6174683a207375627472616374696f6e206f766572666c6f77000081525061207a565b6001600160a01b0383166126225760405162461bcd60e51b8152600401808060200182810382526025815260200180612a5e6025913960400191505060405180910390fd5b6001600160a01b0382166126675760405162461bcd60e51b81526004018080602001828103825260238152602001806129136023913960400191505060405180910390fd5b6126728383836114f7565b600060346000856001600160a01b03166001600160a01b031681526020019081526020016000205490506126c18260405180606001604052806026815260200161297a6026913983919061207a565b6001600160a01b0380861660009081526034602052604080822093909355908516815220546126f081846120d4565b6001600160a01b038516600090815260346020526040812091909155612714612187565b6001600160a01b0316146111595760365461272d612187565b6001600160a01b03166331873e2e8783866040518463ffffffff1660e01b815260040180846001600160a01b031681526020018381526020018281526020019350505050600060405180830381600087803b15801561278b57600080fd5b505af115801561279f573d6000803e3d6000fd5b50505050846001600160a01b0316866001600160a01b03161461283b576127c4612187565b6001600160a01b03166331873e2e8683856040518463ffffffff1660e01b815260040180846001600160a01b031681526020018381526020018281526020019350505050600060405180830381600087803b15801561282257600080fd5b505af1158015612836573d6000803e3d6000fd5b505050505b505050505050565b6000813f7fc5d2460186f7233c927e7db2dcc703c0e500b653ca82273b7bfad8045d85a47081811480159061287757508115155b949350505050565b828054600181600116156101000203166002900490600052602060002090601f016020900481019282601f106128c057805160ff19168380011785556128ed565b828001600101855582156128ed579182015b828111156128ed5782518255916020019190600101906128d2565b506128f99291506128fd565b5090565b5b808211156128f957600081556001016128fe56fe45524332303a207472616e7366657220746f20746865207a65726f206164647265737345524332303a206275726e20616d6f756e7420657863656564732062616c616e636545524332303a20617070726f766520746f20746865207a65726f206164647265737345524332303a207472616e7366657220616d6f756e7420657863656564732062616c616e6365756e6465726c79696e67417373657420616464726573732063616e6e6f7420626520656d70747945524332303a207472616e7366657220616d6f756e74206578636565647320616c6c6f77616e6365436f6e747261637420696e7374616e63652068617320616c7265616479206265656e20696e697469616c697a6564ddf252ad1be2c89b69c2b068fc378daa952ba7f163c4a11628f55a4df523b3ef45524332303a206275726e2066726f6d20746865207a65726f206164647265737345524332303a207472616e736665722066726f6d20746865207a65726f206164647265737345524332303a20617070726f76652066726f6d20746865207a65726f20616464726573735361666545524332303a204552433230206f7065726174696f6e20646964206e6f74207375636365656445524332303a2064656372656173656420616c6c6f77616e63652062656c6f77207a65726fa2646970667358221220a27cc6dc0cd16acaed27e2c14d2ffc068e6115795384973f711797a6bc8e606d64736f6c634300060c0033",
  "linkReferences": {},
  "deployedLinkReferences": {}
}