{
  "_format": "hh-sol-artifact-1",
  "contractName": "LendingPoolConfigurator",
  "sourceName": "contracts/protocol/lendingpool/LendingPoolConfigurator.sol",
  "abi": [
    {
      "anonymous": false,
      "inputs": [
        {
          "indexed": true,
          "internalType": "address",
          "name": "asset",
          "type": "address"
        }
      ],
      "name": "BorrowingDisabledOnReserve",
      "type": "event"
    },
    {
      "anonymous": false,
      "inputs": [
        {
          "indexed": true,
          "internalType": "address",
          "name": "asset",
          "type": "address"
        },
        {
          "indexed": false,
          "internalType": "bool",
          "name": "stableRateEnabled",
          "type": "bool"
        }
      ],
      "name": "BorrowingEnabledOnReserve",
      "type": "event"
    },
    {
      "anonymous": false,
      "inputs": [
        {
          "indexed": true,
          "internalType": "address",
          "name": "asset",
          "type": "address"
        },
        {
          "indexed": false,
          "internalType": "uint256",
          "name": "ltv",
          "type": "uint256"
        },
        {
          "indexed": false,
          "internalType": "uint256",
          "name": "liquidationThreshold",
          "type": "uint256"
        },
        {
          "indexed": false,
          "internalType": "uint256",
          "name": "liquidationBonus",
          "type": "uint256"
        }
      ],
      "name": "CollateralConfigurationChanged",
      "type": "event"
    },
    {
      "anonymous": false,
      "inputs": [
        {
          "indexed": true,
          "internalType": "address",
          "name": "asset",
          "type": "address"
        },
        {
          "indexed": true,
          "internalType": "address",
          "name": "proxy",
          "type": "address"
        },
        {
          "indexed": true,
          "internalType": "address",
          "name": "implementation",
          "type": "address"
        }
      ],
      "name": "LTokenUpgraded",
      "type": "event"
    },
    {
      "anonymous": false,
      "inputs": [
        {
          "indexed": true,
          "internalType": "address",
          "name": "asset",
          "type": "address"
        }
      ],
      "name": "ReserveActivated",
      "type": "event"
    },
    {
      "anonymous": false,
      "inputs": [
        {
          "indexed": true,
          "internalType": "address",
          "name": "asset",
          "type": "address"
        }
      ],
      "name": "ReserveDeactivated",
      "type": "event"
    },
    {
      "anonymous": false,
      "inputs": [
        {
          "indexed": true,
          "internalType": "address",
          "name": "asset",
          "type": "address"
        },
        {
          "indexed": false,
          "internalType": "uint256",
          "name": "decimals",
          "type": "uint256"
        }
      ],
      "name": "ReserveDecimalsChanged",
      "type": "event"
    },
    {
      "anonymous": false,
      "inputs": [
        {
          "indexed": true,
          "internalType": "address",
          "name": "asset",
          "type": "address"
        },
        {
          "indexed": false,
          "internalType": "uint256",
          "name": "factor",
          "type": "uint256"
        }
      ],
      "name": "ReserveFactorChanged",
      "type": "event"
    },
    {
      "anonymous": false,
      "inputs": [
        {
          "indexed": true,
          "internalType": "address",
          "name": "asset",
          "type": "address"
        }
      ],
      "name": "ReserveFrozen",
      "type": "event"
    },
    {
      "anonymous": false,
      "inputs": [
        {
          "indexed": true,
          "internalType": "address",
          "name": "asset",
          "type": "address"
        },
        {
          "indexed": true,
          "internalType": "address",
          "name": "lToken",
          "type": "address"
        },
        {
          "indexed": false,
          "internalType": "address",
          "name": "stableDebtToken",
          "type": "address"
        },
        {
          "indexed": false,
          "internalType": "address",
          "name": "variableDebtToken",
          "type": "address"
        },
        {
          "indexed": false,
          "internalType": "address",
          "name": "interestRateStrategyAddress",
          "type": "address"
        }
      ],
      "name": "ReserveInitialized",
      "type": "event"
    },
    {
      "anonymous": false,
      "inputs": [
        {
          "indexed": true,
          "internalType": "address",
          "name": "asset",
          "type": "address"
        },
        {
          "indexed": false,
          "internalType": "address",
          "name": "strategy",
          "type": "address"
        }
      ],
      "name": "ReserveInterestRateStrategyChanged",
      "type": "event"
    },
    {
      "anonymous": false,
      "inputs": [
        {
          "indexed": true,
          "internalType": "address",
          "name": "asset",
          "type": "address"
        }
      ],
      "name": "ReserveUnfrozen",
      "type": "event"
    },
    {
      "anonymous": false,
      "inputs": [
        {
          "indexed": true,
          "internalType": "address",
          "name": "asset",
          "type": "address"
        },
        {
          "indexed": true,
          "internalType": "address",
          "name": "proxy",
          "type": "address"
        },
        {
          "indexed": true,
          "internalType": "address",
          "name": "implementation",
          "type": "address"
        }
      ],
      "name": "StableDebtTokenUpgraded",
      "type": "event"
    },
    {
      "anonymous": false,
      "inputs": [
        {
          "indexed": true,
          "internalType": "address",
          "name": "asset",
          "type": "address"
        }
      ],
      "name": "StableRateDisabledOnReserve",
      "type": "event"
    },
    {
      "anonymous": false,
      "inputs": [
        {
          "indexed": true,
          "internalType": "address",
          "name": "asset",
          "type": "address"
        }
      ],
      "name": "StableRateEnabledOnReserve",
      "type": "event"
    },
    {
      "anonymous": false,
      "inputs": [
        {
          "indexed": true,
          "internalType": "address",
          "name": "asset",
          "type": "address"
        },
        {
          "indexed": true,
          "internalType": "address",
          "name": "proxy",
          "type": "address"
        },
        {
          "indexed": true,
          "internalType": "address",
          "name": "implementation",
          "type": "address"
        }
      ],
      "name": "VariableDebtTokenUpgraded",
      "type": "event"
    },
    {
      "inputs": [
        {
          "internalType": "address",
          "name": "asset",
          "type": "address"
        }
      ],
      "name": "activateReserve",
      "outputs": [],
      "stateMutability": "nonpayable",
      "type": "function"
    },
    {
      "inputs": [
        {
          "components": [
            {
              "internalType": "address",
              "name": "lTokenImpl",
              "type": "address"
            },
            {
              "internalType": "address",
              "name": "stableDebtTokenImpl",
              "type": "address"
            },
            {
              "internalType": "address",
              "name": "variableDebtTokenImpl",
              "type": "address"
            },
            {
              "internalType": "uint8",
              "name": "underlyingAssetDecimals",
              "type": "uint8"
            },
            {
              "internalType": "address",
              "name": "interestRateStrategyAddress",
              "type": "address"
            },
            {
              "internalType": "address",
              "name": "underlyingAsset",
              "type": "address"
            },
            {
              "internalType": "address",
              "name": "treasury",
              "type": "address"
            },
            {
              "internalType": "address",
              "name": "incentivesController",
              "type": "address"
            },
            {
              "internalType": "string",
              "name": "underlyingAssetName",
              "type": "string"
            },
            {
              "internalType": "string",
              "name": "lTokenName",
              "type": "string"
            },
            {
              "internalType": "string",
              "name": "lTokenSymbol",
              "type": "string"
            },
            {
              "internalType": "string",
              "name": "variableDebtTokenName",
              "type": "string"
            },
            {
              "internalType": "string",
              "name": "variableDebtTokenSymbol",
              "type": "string"
            },
            {
              "internalType": "string",
              "name": "stableDebtTokenName",
              "type": "string"
            },
            {
              "internalType": "string",
              "name": "stableDebtTokenSymbol",
              "type": "string"
            },
            {
              "internalType": "bytes",
              "name": "params",
              "type": "bytes"
            }
          ],
          "internalType": "struct ILendingPoolConfigurator.InitReserveInput[]",
          "name": "input",
          "type": "tuple[]"
        }
      ],
      "name": "batchInitReserve",
      "outputs": [],
      "stateMutability": "nonpayable",
      "type": "function"
    },
    {
      "inputs": [
        {
          "internalType": "address",
          "name": "asset",
          "type": "address"
        },
        {
          "internalType": "uint256",
          "name": "ltv",
          "type": "uint256"
        },
        {
          "internalType": "uint256",
          "name": "liquidationThreshold",
          "type": "uint256"
        },
        {
          "internalType": "uint256",
          "name": "liquidationBonus",
          "type": "uint256"
        }
      ],
      "name": "configureReserveAsCollateral",
      "outputs": [],
      "stateMutability": "nonpayable",
      "type": "function"
    },
    {
      "inputs": [
        {
          "internalType": "address",
          "name": "asset",
          "type": "address"
        }
      ],
      "name": "deactivateReserve",
      "outputs": [],
      "stateMutability": "nonpayable",
      "type": "function"
    },
    {
      "inputs": [
        {
          "internalType": "address",
          "name": "asset",
          "type": "address"
        }
      ],
      "name": "disableBorrowingOnReserve",
      "outputs": [],
      "stateMutability": "nonpayable",
      "type": "function"
    },
    {
      "inputs": [
        {
          "internalType": "address",
          "name": "asset",
          "type": "address"
        }
      ],
      "name": "disableReserveStableRate",
      "outputs": [],
      "stateMutability": "nonpayable",
      "type": "function"
    },
    {
      "inputs": [
        {
          "internalType": "address",
          "name": "asset",
          "type": "address"
        },
        {
          "internalType": "bool",
          "name": "stableBorrowRateEnabled",
          "type": "bool"
        }
      ],
      "name": "enableBorrowingOnReserve",
      "outputs": [],
      "stateMutability": "nonpayable",
      "type": "function"
    },
    {
      "inputs": [
        {
          "internalType": "address",
          "name": "asset",
          "type": "address"
        }
      ],
      "name": "enableReserveStableRate",
      "outputs": [],
      "stateMutability": "nonpayable",
      "type": "function"
    },
    {
      "inputs": [
        {
          "internalType": "address",
          "name": "asset",
          "type": "address"
        }
      ],
      "name": "freezeReserve",
      "outputs": [],
      "stateMutability": "nonpayable",
      "type": "function"
    },
    {
      "inputs": [
        {
          "internalType": "contract ILendingPoolAddressesProvider",
          "name": "provider",
          "type": "address"
        }
      ],
      "name": "initialize",
      "outputs": [],
      "stateMutability": "nonpayable",
      "type": "function"
    },
    {
      "inputs": [
        {
          "internalType": "bool",
          "name": "val",
          "type": "bool"
        }
      ],
      "name": "setPoolPause",
      "outputs": [],
      "stateMutability": "nonpayable",
      "type": "function"
    },
    {
      "inputs": [
        {
          "internalType": "address",
          "name": "asset",
          "type": "address"
        },
        {
          "internalType": "uint256",
          "name": "reserveFactor",
          "type": "uint256"
        }
      ],
      "name": "setReserveFactor",
      "outputs": [],
      "stateMutability": "nonpayable",
      "type": "function"
    },
    {
      "inputs": [
        {
          "internalType": "address",
          "name": "asset",
          "type": "address"
        },
        {
          "internalType": "address",
          "name": "rateStrategyAddress",
          "type": "address"
        }
      ],
      "name": "setReserveInterestRateStrategyAddress",
      "outputs": [],
      "stateMutability": "nonpayable",
      "type": "function"
    },
    {
      "inputs": [
        {
          "internalType": "address",
          "name": "asset",
          "type": "address"
        }
      ],
      "name": "unfreezeReserve",
      "outputs": [],
      "stateMutability": "nonpayable",
      "type": "function"
    },
    {
      "inputs": [
        {
          "components": [
            {
              "internalType": "address",
              "name": "asset",
              "type": "address"
            },
            {
              "internalType": "address",
              "name": "treasury",
              "type": "address"
            },
            {
              "internalType": "address",
              "name": "incentivesController",
              "type": "address"
            },
            {
              "internalType": "string",
              "name": "name",
              "type": "string"
            },
            {
              "internalType": "string",
              "name": "symbol",
              "type": "string"
            },
            {
              "internalType": "address",
              "name": "implementation",
              "type": "address"
            },
            {
              "internalType": "bytes",
              "name": "params",
              "type": "bytes"
            }
          ],
          "internalType": "struct ILendingPoolConfigurator.UpdateLTokenInput",
          "name": "input",
          "type": "tuple"
        }
      ],
      "name": "updateLToken",
      "outputs": [],
      "stateMutability": "nonpayable",
      "type": "function"
    },
    {
      "inputs": [
        {
          "components": [
            {
              "internalType": "address",
              "name": "asset",
              "type": "address"
            },
            {
              "internalType": "address",
              "name": "incentivesController",
              "type": "address"
            },
            {
              "internalType": "string",
              "name": "name",
              "type": "string"
            },
            {
              "internalType": "string",
              "name": "symbol",
              "type": "string"
            },
            {
              "internalType": "address",
              "name": "implementation",
              "type": "address"
            },
            {
              "internalType": "bytes",
              "name": "params",
              "type": "bytes"
            }
          ],
          "internalType": "struct ILendingPoolConfigurator.UpdateDebtTokenInput",
          "name": "input",
          "type": "tuple"
        }
      ],
      "name": "updateStableDebtToken",
      "outputs": [],
      "stateMutability": "nonpayable",
      "type": "function"
    },
    {
      "inputs": [
        {
          "components": [
            {
              "internalType": "address",
              "name": "asset",
              "type": "address"
            },
            {
              "internalType": "address",
              "name": "incentivesController",
              "type": "address"
            },
            {
              "internalType": "string",
              "name": "name",
              "type": "string"
            },
            {
              "internalType": "string",
              "name": "symbol",
              "type": "string"
            },
            {
              "internalType": "address",
              "name": "implementation",
              "type": "address"
            },
            {
              "internalType": "bytes",
              "name": "params",
              "type": "bytes"
            }
          ],
          "internalType": "struct ILendingPoolConfigurator.UpdateDebtTokenInput",
          "name": "input",
          "type": "tuple"
        }
      ],
      "name": "updateVariableDebtToken",
      "outputs": [],
      "stateMutability": "nonpayable",
      "type": "function"
    }
  ],
  "bytecode": "0x60806040526000805534801561001457600080fd5b50613e13806100246000396000f3fe608060405234801561001057600080fd5b506004361061010b5760003560e01c8063a8dc0f45116100a2578063c4d66de811610071578063c4d66de8146101f6578063cef84c5114610209578063eede87c11461021c578063ef1f93731461022f578063f53a2515146102425761010b565b8063a8dc0f45146101aa578063ad4e6432146101bd578063b75d6f34146101d0578063bf344183146101e35761010b565b80637626cde3116100de5780637626cde31461015e5780637641f3d9146101715780637aca76eb146101845780637c4e560b146101975761010b565b80631d2118f9146101105780631df74959146101255780633e72a454146101385780634b4e67531461014b575b600080fd5b61012361011e366004612f40565b610255565b005b6101236101333660046131eb565b6103c7565b610123610146366004612f01565b6106fd565b610123610159366004612fa9565b6108f8565b61012361016c3660046131b3565b610af7565b61012361017f36600461307d565b610da4565b610123610192366004612f01565b610ec9565b6101236101a5366004612fd4565b6110bb565b6101236101b8366004612f01565b6113e4565b6101236101cb3660046131b3565b6115d6565b6101236101de366004612f01565b611883565b6101236101f1366004612f01565b611a75565b610123610204366004612f01565b611c67565b61012361021736600461300e565b611d99565b61012361022a366004612f78565b611ea5565b61012361023d366004612f01565b6120a2565b610123610250366004612f01565b612294565b603454604080516315d9b46f60e31b8152905133926001600160a01b03169163aecda378916004808301926020929190829003018186803b15801561029957600080fd5b505afa1580156102ad573d6000803e3d6000fd5b505050506040513d601f19601f820116820180604052508101906102d19190612f24565b6001600160a01b03161460405180604001604052806002815260200161333360f01b8152509061031d5760405162461bcd60e51b8152600401610314919061351a565b60405180910390fd5b50603554604051631d2118f960e01b81526001600160a01b0390911690631d2118f99061035090859085906004016132e0565b600060405180830381600087803b15801561036a57600080fd5b505af115801561037e573d6000803e3d6000fd5b50505050816001600160a01b03167f5644b64ebb0ce18c4032248ca52f58355469092ff072866c3dcd8640e817d6a5826040516103bb91906132cc565b60405180910390a25050565b603454604080516315d9b46f60e31b8152905133926001600160a01b03169163aecda378916004808301926020929190829003018186803b15801561040b57600080fd5b505afa15801561041f573d6000803e3d6000fd5b505050506040513d601f19601f820116820180604052508101906104439190612f24565b6001600160a01b03161460405180604001604052806002815260200161333360f01b815250906104865760405162461bcd60e51b8152600401610314919061351a565b506035546001600160a01b031661049b612e0f565b6001600160a01b0382166335ea6a756104b76020860186612f01565b6040518263ffffffff1660e01b81526004016104d391906132cc565b6101806040518083038186803b1580156104ec57600080fd5b505afa158015610500573d6000803e3d6000fd5b505050506040513d601f19601f8201168201806040525081019061052491906130b8565b905060006105b86001600160a01b03841663c44b11f76105476020880188612f01565b6040518263ffffffff1660e01b815260040161056391906132cc565b60206040518083038186803b15801561057b57600080fd5b505afa15801561058f573d6000803e3d6000fd5b505050506040513d601f19601f820116820180604052508101906105b3919061309d565b612486565b5093506060925063183fb41360e01b91508590506105dc6040880160208901612f01565b6105e96020890189612f01565b6105f960608a0160408b01612f01565b8661060760608c018c6135e6565b61061460808e018e6135e6565b8e8060c00190610624919061359a565b60405160240161063e9b9a9998979695949392919061339f565b60408051601f198184030181529190526020810180516001600160e01b03166001600160e01b03199093169290921790915260e08401519091506106929061068c60c0880160a08901612f01565b836124b1565b6106a260c0860160a08701612f01565b60e08401516001600160a01b0391821691166106c16020880188612f01565b6001600160a01b03167f2ce424f6fd0b52e4aedea3eb94baad90073b7967ec719b15cb607d66e9aa9ecf60405160405180910390a45050505050565b603454604080516315d9b46f60e31b8152905133926001600160a01b03169163aecda378916004808301926020929190829003018186803b15801561074157600080fd5b505afa158015610755573d6000803e3d6000fd5b505050506040513d601f19601f820116820180604052508101906107799190612f24565b6001600160a01b03161460405180604001604052806002815260200161333360f01b815250906107bc5760405162461bcd60e51b8152600401610314919061351a565b506107c681612519565b6107ce612e7a565b60355460405163c44b11f760e01b81526001600160a01b039091169063c44b11f7906107fe9085906004016132cc565b60206040518083038186803b15801561081657600080fd5b505afa15801561082a573d6000803e3d6000fd5b505050506040513d601f19601f8201168201806040525081019061084e919061309d565b905061085b81600061267a565b6035548151604051635c69493b60e11b81526001600160a01b039092169163b8d292769161088e9186919060040161337b565b600060405180830381600087803b1580156108a857600080fd5b505af11580156108bc573d6000803e3d6000fd5b50506040516001600160a01b03851692507f6f60cf8bd0f218cabe1ea3150bd07b0b758c35c4cfdf7138017a283e65564d5e9150600090a25050565b603454604080516315d9b46f60e31b8152905133926001600160a01b03169163aecda378916004808301926020929190829003018186803b15801561093c57600080fd5b505afa158015610950573d6000803e3d6000fd5b505050506040513d601f19601f820116820180604052508101906109749190612f24565b6001600160a01b03161460405180604001604052806002815260200161333360f01b815250906109b75760405162461bcd60e51b8152600401610314919061351a565b506109c0612e7a565b60355460405163c44b11f760e01b81526001600160a01b039091169063c44b11f7906109f09086906004016132cc565b60206040518083038186803b158015610a0857600080fd5b505afa158015610a1c573d6000803e3d6000fd5b505050506040513d601f19601f82011682018060405250810190610a40919061309d565b9050610a4c81836126a8565b6035548151604051635c69493b60e11b81526001600160a01b039092169163b8d2927691610a7f9187919060040161337b565b600060405180830381600087803b158015610a9957600080fd5b505af1158015610aad573d6000803e3d6000fd5b50505050826001600160a01b03167f2694ccb0b585b6a54b8d8b4a47aa874b05c257b43d34e98aee50838be00d340583604051610aea919061357b565b60405180910390a2505050565b603454604080516315d9b46f60e31b8152905133926001600160a01b03169163aecda378916004808301926020929190829003018186803b158015610b3b57600080fd5b505afa158015610b4f573d6000803e3d6000fd5b505050506040513d601f19601f82011682018060405250810190610b739190612f24565b6001600160a01b03161460405180604001604052806002815260200161333360f01b81525090610bb65760405162461bcd60e51b8152600401610314919061351a565b506035546001600160a01b0316610bcb612e0f565b6001600160a01b0382166335ea6a75610be76020860186612f01565b6040518263ffffffff1660e01b8152600401610c0391906132cc565b6101806040518083038186803b158015610c1c57600080fd5b505afa158015610c30573d6000803e3d6000fd5b505050506040513d601f19601f82011682018060405250810190610c5491906130b8565b90506000610c776001600160a01b03841663c44b11f76105476020880188612f01565b50935060609250636111764560e11b9150859050610c986020880188612f01565b610ca86040890160208a01612f01565b85610cb660408b018b6135e6565b610cc360608d018d6135e6565b610cd060a08f018f61359a565b604051602401610ce99a99989796959493929190613467565b60408051601f198184030181529190526020810180516001600160e01b03166001600160e01b031990931692909217909152610100840151909150610d389061068c60a0880160808901612f01565b610d4860a0860160808701612f01565b6101008401516001600160a01b039182169116610d686020880188612f01565b6001600160a01b03167f7a943a5b6c214bf7726c069a878b1e2a8e7371981d516048b84e03743e67bc2860405160405180910390a45050505050565b60345460408051636ee554f560e11b8152905133926001600160a01b03169163ddcaa9ea916004808301926020929190829003018186803b158015610de857600080fd5b505afa158015610dfc573d6000803e3d6000fd5b505050506040513d601f19601f82011682018060405250810190610e209190612f24565b6001600160a01b031614604051806040016040528060028152602001611b9b60f11b81525090610e635760405162461bcd60e51b8152600401610314919061351a565b5060355460405163bedb86fb60e01b81526001600160a01b039091169063bedb86fb90610e94908490600401613394565b600060405180830381600087803b158015610eae57600080fd5b505af1158015610ec2573d6000803e3d6000fd5b5050505050565b603454604080516315d9b46f60e31b8152905133926001600160a01b03169163aecda378916004808301926020929190829003018186803b158015610f0d57600080fd5b505afa158015610f21573d6000803e3d6000fd5b505050506040513d601f19601f82011682018060405250810190610f459190612f24565b6001600160a01b03161460405180604001604052806002815260200161333360f01b81525090610f885760405162461bcd60e51b8152600401610314919061351a565b50610f91612e7a565b60355460405163c44b11f760e01b81526001600160a01b039091169063c44b11f790610fc19085906004016132cc565b60206040518083038186803b158015610fd957600080fd5b505afa158015610fed573d6000803e3d6000fd5b505050506040513d601f19601f82011682018060405250810190611011919061309d565b905061101e8160016126ff565b6035548151604051635c69493b60e11b81526001600160a01b039092169163b8d29276916110519186919060040161337b565b600060405180830381600087803b15801561106b57600080fd5b505af115801561107f573d6000803e3d6000fd5b50506040516001600160a01b03851692507f85dc710add8a0914461a7dc5a63f6fc529a7700f8c6089a3faf5e93256ccf12a9150600090a25050565b603454604080516315d9b46f60e31b8152905133926001600160a01b03169163aecda378916004808301926020929190829003018186803b1580156110ff57600080fd5b505afa158015611113573d6000803e3d6000fd5b505050506040513d601f19601f820116820180604052508101906111379190612f24565b6001600160a01b03161460405180604001604052806002815260200161333360f01b8152509061117a5760405162461bcd60e51b8152600401610314919061351a565b50611183612e7a565b60355460405163c44b11f760e01b81526001600160a01b039091169063c44b11f7906111b39088906004016132cc565b60206040518083038186803b1580156111cb57600080fd5b505afa1580156111df573d6000803e3d6000fd5b505050506040513d601f19601f82011682018060405250810190611203919061309d565b90508284111560405180604001604052806002815260200161373560f01b815250906112425760405162461bcd60e51b8152600401610314919061351a565b5082156112d357604080518082019091526002815261373560f01b602082015261271083116112845760405162461bcd60e51b8152600401610314919061351a565b50612710611292848461272d565b111560405180604001604052806002815260200161373560f01b815250906112cd5760405162461bcd60e51b8152600401610314919061351a565b50611315565b604080518082019091526002815261373560f01b6020820152821561130b5760405162461bcd60e51b8152600401610314919061351a565b5061131585612519565b61131f81856127a4565b61132981846127ed565b611333818361283e565b6035548151604051635c69493b60e11b81526001600160a01b039092169163b8d29276916113669189919060040161337b565b600060405180830381600087803b15801561138057600080fd5b505af1158015611394573d6000803e3d6000fd5b50505050846001600160a01b03167f637febbda9275aea2e85c0ff690444c8d87eb2e8339bbede9715abcc89cb09958585856040516113d593929190613584565b60405180910390a25050505050565b603454604080516315d9b46f60e31b8152905133926001600160a01b03169163aecda378916004808301926020929190829003018186803b15801561142857600080fd5b505afa15801561143c573d6000803e3d6000fd5b505050506040513d601f19601f820116820180604052508101906114609190612f24565b6001600160a01b03161460405180604001604052806002815260200161333360f01b815250906114a35760405162461bcd60e51b8152600401610314919061351a565b506114ac612e7a565b60355460405163c44b11f760e01b81526001600160a01b039091169063c44b11f7906114dc9085906004016132cc565b60206040518083038186803b1580156114f457600080fd5b505afa158015611508573d6000803e3d6000fd5b505050506040513d601f19601f8201168201806040525081019061152c919061309d565b9050611539816000612891565b6035548151604051635c69493b60e11b81526001600160a01b039092169163b8d292769161156c9186919060040161337b565b600060405180830381600087803b15801561158657600080fd5b505af115801561159a573d6000803e3d6000fd5b50506040516001600160a01b03851692507fe9a7e5fd4fc8ea18e602350324bf48e8f05d12434af0ce0be05743e6a5fdcb9e9150600090a25050565b603454604080516315d9b46f60e31b8152905133926001600160a01b03169163aecda378916004808301926020929190829003018186803b15801561161a57600080fd5b505afa15801561162e573d6000803e3d6000fd5b505050506040513d601f19601f820116820180604052508101906116529190612f24565b6001600160a01b03161460405180604001604052806002815260200161333360f01b815250906116955760405162461bcd60e51b8152600401610314919061351a565b506035546001600160a01b03166116aa612e0f565b6001600160a01b0382166335ea6a756116c66020860186612f01565b6040518263ffffffff1660e01b81526004016116e291906132cc565b6101806040518083038186803b1580156116fb57600080fd5b505afa15801561170f573d6000803e3d6000fd5b505050506040513d601f19601f8201168201806040525081019061173391906130b8565b905060006117566001600160a01b03841663c44b11f76105476020880188612f01565b50935060609250636111764560e11b91508590506117776020880188612f01565b6117876040890160208a01612f01565b8561179560408b018b6135e6565b6117a260608d018d6135e6565b6117af60a08f018f61359a565b6040516024016117c89a99989796959493929190613467565b60408051601f198184030181529190526020810180516001600160e01b03166001600160e01b0319909316929092179091526101208401519091506118179061068c60a0880160808901612f01565b61182760a0860160808701612f01565b6101208401516001600160a01b0391821691166118476020880188612f01565b6001600160a01b03167f9439658a562a5c46b1173589df89cf001483d685bad28aedaff4a88656292d8160405160405180910390a45050505050565b603454604080516315d9b46f60e31b8152905133926001600160a01b03169163aecda378916004808301926020929190829003018186803b1580156118c757600080fd5b505afa1580156118db573d6000803e3d6000fd5b505050506040513d601f19601f820116820180604052508101906118ff9190612f24565b6001600160a01b03161460405180604001604052806002815260200161333360f01b815250906119425760405162461bcd60e51b8152600401610314919061351a565b5061194b612e7a565b60355460405163c44b11f760e01b81526001600160a01b039091169063c44b11f79061197b9085906004016132cc565b60206040518083038186803b15801561199357600080fd5b505afa1580156119a7573d6000803e3d6000fd5b505050506040513d601f19601f820116820180604052508101906119cb919061309d565b90506119d881600161267a565b6035548151604051635c69493b60e11b81526001600160a01b039092169163b8d2927691611a0b9186919060040161337b565b600060405180830381600087803b158015611a2557600080fd5b505af1158015611a39573d6000803e3d6000fd5b50506040516001600160a01b03851692507f35b80cd8ea3440e9a8454f116fa658b858da1b64c86c48451f4559cefcdfb56c9150600090a25050565b603454604080516315d9b46f60e31b8152905133926001600160a01b03169163aecda378916004808301926020929190829003018186803b158015611ab957600080fd5b505afa158015611acd573d6000803e3d6000fd5b505050506040513d601f19601f82011682018060405250810190611af19190612f24565b6001600160a01b03161460405180604001604052806002815260200161333360f01b81525090611b345760405162461bcd60e51b8152600401610314919061351a565b50611b3d612e7a565b60355460405163c44b11f760e01b81526001600160a01b039091169063c44b11f790611b6d9085906004016132cc565b60206040518083038186803b158015611b8557600080fd5b505afa158015611b99573d6000803e3d6000fd5b505050506040513d601f19601f82011682018060405250810190611bbd919061309d565b9050611bca8160016128bf565b6035548151604051635c69493b60e11b81526001600160a01b039092169163b8d2927691611bfd9186919060040161337b565b600060405180830381600087803b158015611c1757600080fd5b505af1158015611c2b573d6000803e3d6000fd5b50506040516001600160a01b03851692507f8dee2b2f3e98319ae6347eda521788f73f4086c9be9a594942b370b137fb8cb19150600090a25050565b6000611c716128ed565b60015490915060ff1680611c885750611c886128f2565b80611c94575060005481115b611cb05760405162461bcd60e51b81526004016103149061352d565b60015460ff16158015611ccf576001805460ff19168117905560008290555b603480546001600160a01b0319166001600160a01b03858116919091179182905560408051630261bf8b60e01b815290519290911691630261bf8b91600480820192602092909190829003018186803b158015611d2b57600080fd5b505afa158015611d3f573d6000803e3d6000fd5b505050506040513d601f19601f82011682018060405250810190611d639190612f24565b603580546001600160a01b0319166001600160a01b03929092169190911790558015611d94576001805460ff191690555b505050565b603454604080516315d9b46f60e31b8152905133926001600160a01b03169163aecda378916004808301926020929190829003018186803b158015611ddd57600080fd5b505afa158015611df1573d6000803e3d6000fd5b505050506040513d601f19601f82011682018060405250810190611e159190612f24565b6001600160a01b03161460405180604001604052806002815260200161333360f01b81525090611e585760405162461bcd60e51b8152600401610314919061351a565b506035546001600160a01b031660005b82811015611e9f57611e9782858584818110611e8057fe5b9050602002810190611e9291906135fc565b6128f8565b600101611e68565b50505050565b603454604080516315d9b46f60e31b8152905133926001600160a01b03169163aecda378916004808301926020929190829003018186803b158015611ee957600080fd5b505afa158015611efd573d6000803e3d6000fd5b505050506040513d601f19601f82011682018060405250810190611f219190612f24565b6001600160a01b03161460405180604001604052806002815260200161333360f01b81525090611f645760405162461bcd60e51b8152600401610314919061351a565b50611f6d612e7a565b60355460405163c44b11f760e01b81526001600160a01b039091169063c44b11f790611f9d9086906004016132cc565b60206040518083038186803b158015611fb557600080fd5b505afa158015611fc9573d6000803e3d6000fd5b505050506040513d601f19601f82011682018060405250810190611fed919061309d565b9050611ffa816001612891565b61200481836128bf565b6035548151604051635c69493b60e11b81526001600160a01b039092169163b8d29276916120379187919060040161337b565b600060405180830381600087803b15801561205157600080fd5b505af1158015612065573d6000803e3d6000fd5b50505050826001600160a01b03167fab2f7f9e5ca2772fafa94f355c1842a80ae6b9e41f83083098d81f67d7a0b50883604051610aea9190613394565b603454604080516315d9b46f60e31b8152905133926001600160a01b03169163aecda378916004808301926020929190829003018186803b1580156120e657600080fd5b505afa1580156120fa573d6000803e3d6000fd5b505050506040513d601f19601f8201168201806040525081019061211e9190612f24565b6001600160a01b03161460405180604001604052806002815260200161333360f01b815250906121615760405162461bcd60e51b8152600401610314919061351a565b5061216a612e7a565b60355460405163c44b11f760e01b81526001600160a01b039091169063c44b11f79061219a9085906004016132cc565b60206040518083038186803b1580156121b257600080fd5b505afa1580156121c6573d6000803e3d6000fd5b505050506040513d601f19601f820116820180604052508101906121ea919061309d565b90506121f78160006126ff565b6035548151604051635c69493b60e11b81526001600160a01b039092169163b8d292769161222a9186919060040161337b565b600060405180830381600087803b15801561224457600080fd5b505af1158015612258573d6000803e3d6000fd5b50506040516001600160a01b03851692507f838ecdc4709a31a26db48b0c853212cedde3f725f07030079d793fb0719647609150600090a25050565b603454604080516315d9b46f60e31b8152905133926001600160a01b03169163aecda378916004808301926020929190829003018186803b1580156122d857600080fd5b505afa1580156122ec573d6000803e3d6000fd5b505050506040513d601f19601f820116820180604052508101906123109190612f24565b6001600160a01b03161460405180604001604052806002815260200161333360f01b815250906123535760405162461bcd60e51b8152600401610314919061351a565b5061235c612e7a565b60355460405163c44b11f760e01b81526001600160a01b039091169063c44b11f79061238c9085906004016132cc565b60206040518083038186803b1580156123a457600080fd5b505afa1580156123b8573d6000803e3d6000fd5b505050506040513d601f19601f820116820180604052508101906123dc919061309d565b90506123e98160006128bf565b6035548151604051635c69493b60e11b81526001600160a01b039092169163b8d292769161241c9186919060040161337b565b600060405180830381600087803b15801561243657600080fd5b505af115801561244a573d6000803e3d6000fd5b50506040516001600160a01b03851692507f8bbf35441ac2c607ddecadd3d8ee58636d32f217fad201fb2655581502dd84e39150600090a25050565b5161ffff80821692601083901c821692602081901c831692603082901c60ff169260409290921c1690565b60405163278f794360e11b815283906001600160a01b03821690634f1ef286906124e1908690869060040161334f565b600060405180830381600087803b1580156124fb57600080fd5b505af115801561250f573d6000803e3d6000fd5b5050505050505050565b612521612e0f565b6035546040516335ea6a7560e01b81526001600160a01b03909116906335ea6a75906125519085906004016132cc565b6101806040518083038186803b15801561256a57600080fd5b505afa15801561257e573d6000803e3d6000fd5b505050506040513d601f19601f820116820180604052508101906125a291906130b8565b90506000826001600160a01b03166370a082318360e001516040518263ffffffff1660e01b81526004016125d691906132cc565b60206040518083038186803b1580156125ee57600080fd5b505afa158015612602573d6000803e3d6000fd5b505050506040513d601f19601f820116820180604052508101906126269190613223565b905080158015612641575060608201516001600160801b0316155b604051806040016040528060028152602001610ccd60f21b81525090611e9f5760405162461bcd60e51b8152600401610314919061351a565b60388161268857600061268b565b60015b8351670100000000000000191660ff9190911690911b1790915250565b604080518082019091526002815261373160f01b602082015261ffff8211156126e45760405162461bcd60e51b8152600401610314919061351a565b50815169ffff0000000000000000191660409190911b179052565b60398161270d576000612710565b60015b8351670200000000000000191660ff9190911690911b1790915250565b600082158061273a575081155b156127475750600061279e565b81611388198161275357fe5b0483111560405180604001604052806002815260200161068760f31b815250906127905760405162461bcd60e51b8152600401610314919061351a565b505061271061138882840201045b92915050565b604080518082019091526002815261363760f01b602082015261ffff8211156127e05760405162461bcd60e51b8152600401610314919061351a565b50815161ffff1916179052565b60408051808201909152600281526106c760f31b602082015261ffff8211156128295760405162461bcd60e51b8152600401610314919061351a565b50815163ffff0000191660109190911b179052565b604080518082019091526002815261363960f01b602082015261ffff82111561287a5760405162461bcd60e51b8152600401610314919061351a565b50815165ffff00000000191660209190911b179052565b603a8161289f5760006128a2565b60015b8351670400000000000000191660ff9190911690911b1790915250565b603b816128cd5760006128d0565b60015b8351670800000000000000191660ff9190911690911b1790915250565b600190565b303b1590565b60006129cf61290a6020840184612f01565b63183fb41360e01b8561292360e0870160c08801612f01565b61293360c0880160a08901612f01565b612944610100890160e08a01612f01565b61295460808a0160608b0161323b565b6129626101208b018b6135e6565b6129706101408d018d6135e6565b61297e6101e08f018f61359a565b6040516024016129989b9a99989796959493929190613420565b60408051601f198184030181529190526020810180516001600160e01b03166001600160e01b031990931692909217909152612d1a565b90506000612a636129e66040850160208601612f01565b636111764560e11b866129ff60c0880160a08901612f01565b612a10610100890160e08a01612f01565b612a2060808a0160608b0161323b565b612a2e6101a08b018b6135e6565b612a3c6101c08d018d6135e6565b612a4a6101e08f018f61359a565b6040516024016129989a999897969594939291906134dc565b90506000612ae1612a7a6060860160408701612f01565b636111764560e11b87612a9360c0890160a08a01612f01565b612aa46101008a0160e08b01612f01565b612ab460808b0160608c0161323b565b612ac26101608c018c6135e6565b612ad06101808e018e6135e6565b8e806101e00190612a4a919061359a565b90506001600160a01b038516637a708e92612b0260c0870160a08801612f01565b858585612b1560a08b0160808c01612f01565b6040518663ffffffff1660e01b8152600401612b3595949392919061331d565b600060405180830381600087803b158015612b4f57600080fd5b505af1158015612b63573d6000803e3d6000fd5b50505050612b6f612e7a565b6001600160a01b03861663c44b11f7612b8e60c0880160a08901612f01565b6040518263ffffffff1660e01b8152600401612baa91906132cc565b60206040518083038186803b158015612bc257600080fd5b505afa158015612bd6573d6000803e3d6000fd5b505050506040513d601f19601f82011682018060405250810190612bfa919061309d565b9050612c19612c0f608087016060880161323b565b829060ff16612dbc565b612c2481600161267a565b612c2f8160006126ff565b6001600160a01b03861663b8d29276612c4e60c0880160a08901612f01565b83516040516001600160e01b031960e085901b168152612c7292919060040161337b565b600060405180830381600087803b158015612c8c57600080fd5b505af1158015612ca0573d6000803e3d6000fd5b5050506001600160a01b0385169050612cbf60c0870160a08801612f01565b6001600160a01b03167f3a0ca721fc364424566385a1aa271ed508cc2c0949c2272575fb3013a163a45f8585612cfb60a08b0160808c01612f01565b604051612d0a939291906132fa565b60405180910390a3505050505050565b60008030604051612d2a90612e8d565b612d3491906132cc565b604051809103906000f080158015612d50573d6000803e3d6000fd5b5060405163347d5e2560e21b81529091506001600160a01b0382169063d1f5789490612d82908790879060040161334f565b600060405180830381600087803b158015612d9c57600080fd5b505af1158015612db0573d6000803e3d6000fd5b50929695505050505050565b604080518082019091526002815261037360f41b602082015260ff821115612df75760405162461bcd60e51b8152600401610314919061351a565b50815166ff000000000000191660309190911b179052565b604051806101800160405280612e23612e7a565b815260006020820181905260408201819052606082018190526080820181905260a0820181905260c0820181905260e082018190526101008201819052610120820181905261014082018190526101609091015290565b6040518060200160405280600081525090565b6107738061366b83390190565b805161279e81613643565b600060208284031215612eb6578081fd5b612ec0602061361c565b9151825250919050565b80516001600160801b038116811461279e57600080fd5b805164ffffffffff8116811461279e57600080fd5b805161279e8161365b565b600060208284031215612f12578081fd5b8135612f1d81613643565b9392505050565b600060208284031215612f35578081fd5b8151612f1d81613643565b60008060408385031215612f52578081fd5b8235612f5d81613643565b91506020830135612f6d81613643565b809150509250929050565b60008060408385031215612f8a578182fd5b8235612f9581613643565b915060208301358015158114612f6d578182fd5b60008060408385031215612fbb578182fd5b8235612fc681613643565b946020939093013593505050565b60008060008060808587031215612fe9578182fd5b8435612ff481613643565b966020860135965060408601359560600135945092505050565b60008060208385031215613020578182fd5b823567ffffffffffffffff80821115613037578384fd5b818501915085601f83011261304a578384fd5b813581811115613058578485fd5b866020808302850101111561306b578485fd5b60209290920196919550909350505050565b60006020828403121561308e578081fd5b81358015158114612f1d578182fd5b6000602082840312156130ae578081fd5b612f1d8383612ea5565b60006101808083850312156130cb578182fd5b6130d48161361c565b90506130e08484612ea5565b81526130ef8460208501612eca565b60208201526131018460408501612eca565b60408201526131138460608501612eca565b60608201526131258460808501612eca565b60808201526131378460a08501612eca565b60a08201526131498460c08501612ee1565b60c082015261315b8460e08501612e9a565b60e082015261010061316f85828601612e9a565b9082015261012061318285858301612e9a565b9082015261014061319585858301612e9a565b908201526101606131a885858301612ef6565b908201529392505050565b6000602082840312156131c4578081fd5b813567ffffffffffffffff8111156131da578182fd5b820160c08185031215612f1d578182fd5b6000602082840312156131fc578081fd5b813567ffffffffffffffff811115613212578182fd5b820160e08185031215612f1d578182fd5b600060208284031215613234578081fd5b5051919050565b60006020828403121561324c578081fd5b8135612f1d8161365b565b60008284528282602086013780602084860101526020601f19601f85011685010190509392505050565b60008151808452815b818110156132a65760208185018101518683018201520161328a565b818111156132b75782602083870101525b50601f01601f19169290920160200192915050565b6001600160a01b0391909116815260200190565b6001600160a01b0392831681529116602082015260400190565b6001600160a01b0393841681529183166020830152909116604082015260600190565b6001600160a01b0395861681529385166020850152918416604084015283166060830152909116608082015260a00190565b6001600160a01b038316815260406020820181905260009061337390830184613281565b949350505050565b6001600160a01b03929092168252602082015260400190565b901515815260200190565b6001600160a01b038c811682528b811660208301528a81166040830152891660608201526080810188905261010060a082018190526000906133e4838201898b613257565b905082810360c08401526133f9818789613257565b905082810360e084015261340e818587613257565b9e9d5050505050505050505050505050565b6001600160a01b038c811682528b811660208301528a811660408301528916606082015260ff8816608082015261010060a082018190526000906133e4838201898b613257565b6001600160a01b038b811682528a81166020830152891660408201526060810188905260e0608082018190526000906134a3908301888a613257565b82810360a08401526134b6818789613257565b905082810360c08401526134cb818587613257565b9d9c50505050505050505050505050565b6001600160a01b038b811682528a811660208301528916604082015260ff8816606082015260e0608082018190526000906134a3908301888a613257565b600060208252612f1d6020830184613281565b6020808252602e908201527f436f6e747261637420696e7374616e63652068617320616c726561647920626560408201526d195b881a5b9a5d1a585b1a5e995960921b606082015260800190565b90815260200190565b9283526020830191909152604082015260600190565b6000808335601e198436030181126135b0578283fd5b83018035915067ffffffffffffffff8211156135ca578283fd5b6020019150368190038213156135df57600080fd5b9250929050565b6000808335601e198436030181126135b0578182fd5b600082356101fe19833603018112613612578182fd5b9190910192915050565b60405181810167ffffffffffffffff8111828210171561363b57600080fd5b604052919050565b6001600160a01b038116811461365857600080fd5b50565b60ff8116811461365857600080fdfe60a060405234801561001057600080fd5b506040516107733803806107738339818101604052602081101561003357600080fd5b5051606081901b6001600160601b0319166080526001600160a01b03166106f36100806000398061022852806102725280610331528061045e528061048752806105af52506106f36000f3fe60806040526004361061004a5760003560e01c80633659cfe6146100545780634f1ef286146100875780635c60da1b14610107578063d1f5789414610138578063f851a440146101ee575b610052610203565b005b34801561006057600080fd5b506100526004803603602081101561007757600080fd5b50356001600160a01b031661021d565b6100526004803603604081101561009d57600080fd5b6001600160a01b0382351691908101906040810160208201356401000000008111156100c857600080fd5b8201836020820111156100da57600080fd5b803590602001918460018302840111640100000000831117156100fc57600080fd5b509092509050610267565b34801561011357600080fd5b5061011c610324565b604080516001600160a01b039092168252519081900360200190f35b6100526004803603604081101561014e57600080fd5b6001600160a01b03823516919081019060408101602082013564010000000081111561017957600080fd5b82018360208201111561018b57600080fd5b803590602001918460018302840111640100000000831117156101ad57600080fd5b91908080601f016020809104026020016040519081016040528093929190818152602001838380828437600092019190915250929550610371945050505050565b3480156101fa57600080fd5b5061011c610451565b61020b6104ab565b61021b6102166104b3565b6104d8565b565b336001600160a01b037f000000000000000000000000000000000000000000000000000000000000000016141561025c57610257816104fc565b610264565b610264610203565b50565b336001600160a01b037f0000000000000000000000000000000000000000000000000000000000000000161415610317576102a1836104fc565b6000836001600160a01b031683836040518083838082843760405192019450600093509091505080830381855af49150503d80600081146102fe576040519150601f19603f3d011682016040523d82523d6000602084013e610303565b606091505b505090508061031157600080fd5b5061031f565b61031f610203565b505050565b6000336001600160a01b037f00000000000000000000000000000000000000000000000000000000000000001614156103665761035f6104b3565b905061036e565b61036e610203565b90565b600061037b6104b3565b6001600160a01b03161461038e57600080fd5b6103978261053c565b80511561044d576000826001600160a01b0316826040518082805190602001908083835b602083106103da5780518252601f1990920191602091820191016103bb565b6001836020036101000a038019825116818451168082178552505050505050905001915050600060405180830381855af49150503d806000811461043a576040519150601f19603f3d011682016040523d82523d6000602084013e61043f565b606091505b505090508061031f57600080fd5b5050565b6000336001600160a01b037f000000000000000000000000000000000000000000000000000000000000000016141561036657507f000000000000000000000000000000000000000000000000000000000000000061036e565b61021b6105a4565b7f360894a13ba1a3210667c828492db98dca3e2076cc3735a920a3ca505d382bbc5490565b3660008037600080366000845af43d6000803e8080156104f7573d6000f35b3d6000fd5b6105058161053c565b6040516001600160a01b038216907fbc7cd75a20ee27fd9adebab32041f755214dbc6bffa90cc0225b39da2e5c2d3b90600090a250565b61054581610614565b6105805760405162461bcd60e51b815260040180806020018281038252603b815260200180610683603b913960400191505060405180910390fd5b7f360894a13ba1a3210667c828492db98dca3e2076cc3735a920a3ca505d382bbc55565b336001600160a01b037f000000000000000000000000000000000000000000000000000000000000000016141561060c5760405162461bcd60e51b81526004018080602001828103825260328152602001806106516032913960400191505060405180910390fd5b61021b61021b565b6000813f7fc5d2460186f7233c927e7db2dcc703c0e500b653ca82273b7bfad8045d85a47081811480159061064857508115155b94935050505056fe43616e6e6f742063616c6c2066616c6c6261636b2066756e6374696f6e2066726f6d207468652070726f78792061646d696e43616e6e6f742073657420612070726f787920696d706c656d656e746174696f6e20746f2061206e6f6e2d636f6e74726163742061646472657373a2646970667358221220173da2068f03da5c99b5b531e9b2dde1af37c8a846c6aed5c6653801a3f5389e64736f6c634300060c0033a264697066735822122051b471e6cafe7f923b8ff2667f08102264632ba7767d9ac26de24e2f2627c70164736f6c634300060c0033",
  "linkReferences": {},
  "deployedLinkReferences": {}
}