{
  "_format": "hh-sol-artifact-1",
  "contractName": "PriceAggregatorAdapterDiaImpl",
  "sourceName": "contracts/misc/PriceAggregatorAdapterDiaImpl.sol",
  "abi": [
    {
      "inputs": [
        {
          "internalType": "address",
          "name": "aggregator",
          "type": "address"
        },
        {
          "internalType": "string",
          "name": "baseTokenSymbol",
          "type": "string"
        }
      ],
      "stateMutability": "nonpayable",
      "type": "constructor"
    },
    {
      "anonymous": false,
      "inputs": [
        {
          "indexed": false,
          "internalType": "address",
          "name": "aggregator",
          "type": "address"
        }
      ],
      "name": "AggregatorUpdated",
      "type": "event"
    },
    {
      "anonymous": false,
      "inputs": [
        {
          "indexed": false,
          "internalType": "address[]",
          "name": "assets",
          "type": "address[]"
        },
        {
          "indexed": false,
          "internalType": "string[]",
          "name": "tokenSymbols",
          "type": "string[]"
        }
      ],
      "name": "AssetSourcesUpdated",
      "type": "event"
    },
    {
      "anonymous": false,
      "inputs": [
        {
          "indexed": true,
          "internalType": "address",
          "name": "previousOwner",
          "type": "address"
        },
        {
          "indexed": true,
          "internalType": "address",
          "name": "newOwner",
          "type": "address"
        }
      ],
      "name": "OwnershipTransferred",
      "type": "event"
    },
    {
      "inputs": [
        {
          "internalType": "address",
          "name": "asset",
          "type": "address"
        }
      ],
      "name": "currentPrice",
      "outputs": [
        {
          "internalType": "int256",
          "name": "",
          "type": "int256"
        }
      ],
      "stateMutability": "view",
      "type": "function"
    },
    {
      "inputs": [],
      "name": "owner",
      "outputs": [
        {
          "internalType": "address",
          "name": "",
          "type": "address"
        }
      ],
      "stateMutability": "view",
      "type": "function"
    },
    {
      "inputs": [],
      "name": "renounceOwnership",
      "outputs": [],
      "stateMutability": "nonpayable",
      "type": "function"
    },
    {
      "inputs": [
        {
          "internalType": "address",
          "name": "aggregator",
          "type": "address"
        }
      ],
      "name": "setAggregator",
      "outputs": [],
      "stateMutability": "nonpayable",
      "type": "function"
    },
    {
      "inputs": [
        {
          "internalType": "address[]",
          "name": "assets",
          "type": "address[]"
        },
        {
          "internalType": "string[]",
          "name": "tokenSymbols",
          "type": "string[]"
        }
      ],
      "name": "setAssetSources",
      "outputs": [],
      "stateMutability": "nonpayable",
      "type": "function"
    },
    {
      "inputs": [
        {
          "internalType": "address",
          "name": "",
          "type": "address"
        }
      ],
      "name": "symbols",
      "outputs": [
        {
          "internalType": "string",
          "name": "",
          "type": "string"
        }
      ],
      "stateMutability": "view",
      "type": "function"
    },
    {
      "inputs": [
        {
          "internalType": "address",
          "name": "newOwner",
          "type": "address"
        }
      ],
      "name": "transferOwnership",
      "outputs": [],
      "stateMutability": "nonpayable",
      "type": "function"
    }
  ],
  "bytecode": "0x60c060405260016080819052602f60f81b60a0908152620000249160029190620000e8565b503480156200003257600080fd5b5060405162000e4938038062000e49833981016040819052620000559162000184565b600062000061620000e4565b600080546001600160a01b0319166001600160a01b0383169081178255604051929350917f8be0079c531659141344cd1fd0a4f28419497f9722a3daafe3b4186f6b6457e0908290a350600180546001600160a01b0319166001600160a01b0384161790558051620000db906003906020840190620000e8565b50505062000294565b3390565b828054600181600116156101000203166002900490600052602060002090601f016020900481019282601f106200012b57805160ff19168380011785556200015b565b828001600101855582156200015b579182015b828111156200015b5782518255916020019190600101906200013e565b50620001699291506200016d565b5090565b5b808211156200016957600081556001016200016e565b6000806040838503121562000197578182fd5b82516001600160a01b0381168114620001ae578283fd5b60208401519092506001600160401b0380821115620001cb578283fd5b818501915085601f830112620001df578283fd5b815181811115620001ee578384fd5b62000203601f8201601f19166020016200023a565b91508082528660208285010111156200021a578384fd5b6200022d81602084016020860162000261565b5080925050509250929050565b6040518181016001600160401b03811182821017156200025957600080fd5b604052919050565b60005b838110156200027e57818101518382015260200162000264565b838111156200028e576000848401525b50505050565b610ba580620002a46000396000f3fe608060405234801561001057600080fd5b506004361061007d5760003560e01c80638da5cb5b1161005b5780638da5cb5b146100c8578063e9833c2f146100dd578063f2fde38b146100fd578063f9120af6146101105761007d565b806350695a021461008257806364bb7dce146100ab578063715018a6146100c0575b600080fd5b61009561009036600461075d565b610123565b6040516100a291906109fd565b60405180910390f35b6100be6100b936600461077f565b6101be565b005b6100be61024b565b6100d06102ca565b6040516100a291906108fd565b6100f06100eb36600461075d565b6102d9565b6040516100a291906109f4565b6100be61010b36600461075d565b61044f565b6100be61011e36600461075d565b610505565b60046020908152600091825260409182902080548351601f6002600019610100600186161502019093169290920491820184900484028101840190945280845290918301828280156101b65780601f1061018b576101008083540402835291602001916101b6565b820191906000526020600020905b81548152906001019060200180831161019957829003601f168201915b505050505081565b6101c6610590565b6000546001600160a01b039081169116146101fc5760405162461bcd60e51b81526004016101f390610a76565b60405180910390fd5b61020884848484610594565b7f8fa8abad491df6ee985786f44578749609a08ec7727bb2eb226af20acd064bbb8484848460405161023d9493929190610911565b60405180910390a150505050565b610253610590565b6000546001600160a01b039081169116146102805760405162461bcd60e51b81526004016101f390610a76565b600080546040516001600160a01b03909116907f8be0079c531659141344cd1fd0a4f28419497f9722a3daafe3b4186f6b6457e0908390a3600080546001600160a01b0319169055565b6000546001600160a01b031690565b6001600160a01b038116600090815260046020526040812054600260001961010060018416150201909116046103115750600061044a565b600180546001600160a01b03848116600090815260046020908152604080832080548251600261010099831615999099026000190190911697909704601f81018490048402880184019092528187529295939094169363960384a0936103d19390929091908301828280156103c75780601f1061039c576101008083540402835291602001916103c7565b820191906000526020600020905b8154815290600101906020018083116103aa57829003601f168201915b5050505050610635565b6040518263ffffffff1660e01b81526004016103ed91906109fd565b604080518083038186803b15801561040457600080fd5b505afa158015610418573d6000803e3d6000fd5b505050506040513d601f19601f8201168201806040525081019061043c91906107e8565b506001600160801b03169150505b919050565b610457610590565b6000546001600160a01b039081169116146104845760405162461bcd60e51b81526004016101f390610a76565b6001600160a01b0381166104aa5760405162461bcd60e51b81526004016101f390610a30565b600080546040516001600160a01b03808516939216917f8be0079c531659141344cd1fd0a4f28419497f9722a3daafe3b4186f6b6457e091a3600080546001600160a01b0319166001600160a01b0392909216919091179055565b61050d610590565b6000546001600160a01b0390811691161461053a5760405162461bcd60e51b81526004016101f390610a76565b600180546001600160a01b0319166001600160a01b0383161790556040517f602cec4b1583b07d071161da5eb9589444d2459201e2fab7753dc941e9351c21906105859083906108fd565b60405180910390a150565b3390565b8281146105b35760405162461bcd60e51b81526004016101f390610aab565b60005b8381101561062e578282828181106105ca57fe5b90506020028101906105dc9190610ae2565b600460008888868181106105ec57fe5b9050602002016020810190610601919061075d565b6001600160a01b031681526020810191909152604001600020610625929091610664565b506001016105b6565b5050505050565b6060816002600360405160200161064e939291906108cc565b6040516020818303038152906040529050919050565b828054600181600116156101000203166002900490600052602060002090601f016020900481019282601f106106a55782800160ff198235161785556106d2565b828001600101855582156106d2579182015b828111156106d25782358255916020019190600101906106b7565b506106de9291506106e2565b5090565b5b808211156106de57600081556001016106e3565b80356001600160a01b038116811461070e57600080fd5b92915050565b60008083601f840112610725578182fd5b50813567ffffffffffffffff81111561073c578182fd5b602083019150836020808302850101111561075657600080fd5b9250929050565b60006020828403121561076e578081fd5b61077883836106f7565b9392505050565b60008060008060408587031215610794578283fd5b843567ffffffffffffffff808211156107ab578485fd5b6107b788838901610714565b909650945060208701359150808211156107cf578384fd5b506107dc87828801610714565b95989497509550505050565b600080604083850312156107fa578182fd5b825161080581610b57565b602084015190925061081681610b57565b809150509250929050565b6001600160a01b0316815260200190565b60008284528282602086013780602084860101526020601f19601f85011685010190509392505050565b6000815460018082166000811461087a5760018114610891576108c3565b60ff198316865260028304607f16860193506108c3565b600283048560005260208060002060005b838110156108bb5781548a8201529085019082016108a2565b505050860193505b50505092915050565b600084516108de818460208901610b27565b6108f36108ed8285018761085c565b8561085c565b9695505050505050565b6001600160a01b0391909116815260200190565b600060408201604083528061092687836109f4565b9050879150825b87811015610959576020830161094c8361094783876106f7565b610821565b909350915060010161092d565b5060209150838103828501528085825282820190508283870283010187855b888110156109e457848303601f190184528135368b9003601e1901811261099d578788fd5b8a01803567ffffffffffffffff8111156109b5578889fd5b8036038c13156109c3578889fd5b6109d085828a8501610832565b958801959450505090850190600101610978565b50909a9950505050505050505050565b90815260200190565b6000602082528251806020840152610a1c816040850160208701610b27565b601f01601f19169190910160400192915050565b60208082526026908201527f4f776e61626c653a206e6577206f776e657220697320746865207a65726f206160408201526564647265737360d01b606082015260800190565b6020808252818101527f4f776e61626c653a2063616c6c6572206973206e6f7420746865206f776e6572604082015260600190565b6020808252601a908201527f494e434f4e53495354454e545f504152414d535f4c454e475448000000000000604082015260600190565b6000808335601e19843603018112610af8578283fd5b83018035915067ffffffffffffffff821115610b12578283fd5b60200191503681900382131561075657600080fd5b60005b83811015610b42578181015183820152602001610b2a565b83811115610b51576000848401525b50505050565b6001600160801b0381168114610b6c57600080fd5b5056fea26469706673582212202890c110392af240d8331a239ebd485b03b15b3ec6e8460524da59cee64b49ca64736f6c634300060c0033",
  "linkReferences": {},
  "deployedLinkReferences": {}
}