{
  "_format": "hh-sol-artifact-1",
  "contractName": "PriceAggregatorAdapterDiaImpl",
  "sourceName": "contracts/misc/PriceAggregatorAdapterDiaImpl.sol",
  "abi": [
    {
      "inputs": [
        {
          "internalType": "address",
          "name": "aggregator",
          "type": "address"
        },
        {
          "internalType": "string",
          "name": "baseTokenSymbol",
          "type": "string"
        }
      ],
      "stateMutability": "nonpayable",
      "type": "constructor"
    },
    {
      "anonymous": false,
      "inputs": [
        {
          "indexed": true,
          "internalType": "address",
          "name": "previousOwner",
          "type": "address"
        },
        {
          "indexed": true,
          "internalType": "address",
          "name": "newOwner",
          "type": "address"
        }
      ],
      "name": "OwnershipTransferred",
      "type": "event"
    },
    {
      "inputs": [
        {
          "internalType": "address",
          "name": "asset",
          "type": "address"
        }
      ],
      "name": "currentPrice",
      "outputs": [
        {
          "internalType": "int256",
          "name": "",
          "type": "int256"
        }
      ],
      "stateMutability": "view",
      "type": "function"
    },
    {
      "inputs": [],
      "name": "owner",
      "outputs": [
        {
          "internalType": "address",
          "name": "",
          "type": "address"
        }
      ],
      "stateMutability": "view",
      "type": "function"
    },
    {
      "inputs": [],
      "name": "renounceOwnership",
      "outputs": [],
      "stateMutability": "nonpayable",
      "type": "function"
    },
    {
      "inputs": [
        {
          "internalType": "address",
          "name": "aggregator",
          "type": "address"
        }
      ],
      "name": "setAggregator",
      "outputs": [],
      "stateMutability": "nonpayable",
      "type": "function"
    },
    {
      "inputs": [
        {
          "internalType": "address[]",
          "name": "assets",
          "type": "address[]"
        },
        {
          "internalType": "string[]",
          "name": "tokenSymbols",
          "type": "string[]"
        }
      ],
      "name": "setAssetSources",
      "outputs": [],
      "stateMutability": "nonpayable",
      "type": "function"
    },
    {
      "inputs": [
        {
          "internalType": "address",
          "name": "",
          "type": "address"
        }
      ],
      "name": "symbols",
      "outputs": [
        {
          "internalType": "string",
          "name": "",
          "type": "string"
        }
      ],
      "stateMutability": "view",
      "type": "function"
    },
    {
      "inputs": [
        {
          "internalType": "address",
          "name": "newOwner",
          "type": "address"
        }
      ],
      "name": "transferOwnership",
      "outputs": [],
      "stateMutability": "nonpayable",
      "type": "function"
    }
  ],
  "bytecode": "0x60c060405260016080819052602f60f81b60a0908152620000249160029190620000e8565b503480156200003257600080fd5b5060405162000ca538038062000ca5833981016040819052620000559162000184565b600062000061620000e4565b600080546001600160a01b0319166001600160a01b0383169081178255604051929350917f8be0079c531659141344cd1fd0a4f28419497f9722a3daafe3b4186f6b6457e0908290a350600180546001600160a01b0319166001600160a01b0384161790558051620000db906003906020840190620000e8565b50505062000294565b3390565b828054600181600116156101000203166002900490600052602060002090601f016020900481019282601f106200012b57805160ff19168380011785556200015b565b828001600101855582156200015b579182015b828111156200015b5782518255916020019190600101906200013e565b50620001699291506200016d565b5090565b5b808211156200016957600081556001016200016e565b6000806040838503121562000197578182fd5b82516001600160a01b0381168114620001ae578283fd5b60208401519092506001600160401b0380821115620001cb578283fd5b818501915085601f830112620001df578283fd5b815181811115620001ee578384fd5b62000203601f8201601f19166020016200023a565b91508082528660208285010111156200021a578384fd5b6200022d81602084016020860162000261565b5080925050509250929050565b6040518181016001600160401b03811182821017156200025957600080fd5b604052919050565b60005b838110156200027e57818101518382015260200162000264565b838111156200028e576000848401525b50505050565b610a0180620002a46000396000f3fe608060405234801561001057600080fd5b506004361061007d5760003560e01c80638da5cb5b1161005b5780638da5cb5b146100c8578063e9833c2f146100dd578063f2fde38b146100fd578063f9120af6146101105761007d565b806350695a021461008257806364bb7dce146100ab578063715018a6146100c0575b600080fd5b6100956100903660046106cf565b610123565b6040516100a2919061085d565b60405180910390f35b6100be6100b93660046106fd565b6101be565b005b6100be61020e565b6100d061028d565b6040516100a29190610840565b6100f06100eb3660046106cf565b61029c565b6040516100a29190610854565b6100be61010b3660046106cf565b610412565b6100be61011e3660046106cf565b6104c8565b60046020908152600091825260409182902080548351601f6002600019610100600186161502019093169290920491820184900484028101840190945280845290918301828280156101b65780601f1061018b576101008083540402835291602001916101b6565b820191906000526020600020905b81548152906001019060200180831161019957829003601f168201915b505050505081565b6101c661051f565b6000546001600160a01b039081169116146101fc5760405162461bcd60e51b81526004016101f3906108d6565b60405180910390fd5b61020884848484610523565b50505050565b61021661051f565b6000546001600160a01b039081169116146102435760405162461bcd60e51b81526004016101f3906108d6565b600080546040516001600160a01b03909116907f8be0079c531659141344cd1fd0a4f28419497f9722a3daafe3b4186f6b6457e0908390a3600080546001600160a01b0319169055565b6000546001600160a01b031690565b6001600160a01b038116600090815260046020526040812054600260001961010060018416150201909116046102d45750600061040d565b600180546001600160a01b03848116600090815260046020908152604080832080548251600261010099831615999099026000190190911697909704601f81018490048402880184019092528187529295939094169363960384a09361039493909290919083018282801561038a5780601f1061035f5761010080835404028352916020019161038a565b820191906000526020600020905b81548152906001019060200180831161036d57829003601f168201915b50505050506105c4565b6040518263ffffffff1660e01b81526004016103b0919061085d565b604080518083038186803b1580156103c757600080fd5b505afa1580156103db573d6000803e3d6000fd5b505050506040513d601f19601f820116820180604052508101906103ff9190610766565b506001600160801b03169150505b919050565b61041a61051f565b6000546001600160a01b039081169116146104475760405162461bcd60e51b81526004016101f3906108d6565b6001600160a01b03811661046d5760405162461bcd60e51b81526004016101f390610890565b600080546040516001600160a01b03808516939216917f8be0079c531659141344cd1fd0a4f28419497f9722a3daafe3b4186f6b6457e091a3600080546001600160a01b0319166001600160a01b0392909216919091179055565b6104d061051f565b6000546001600160a01b039081169116146104fd5760405162461bcd60e51b81526004016101f3906108d6565b600180546001600160a01b0319166001600160a01b0392909216919091179055565b3390565b8281146105425760405162461bcd60e51b81526004016101f39061090b565b60005b838110156105bd5782828281811061055957fe5b905060200281019061056b9190610942565b6004600088888681811061057b57fe5b905060200201602081019061059091906106cf565b6001600160a01b0316815260208101919091526040016000206105b49290916105f3565b50600101610545565b5050505050565b606081600260036040516020016105dd9392919061080f565b6040516020818303038152906040529050919050565b828054600181600116156101000203166002900490600052602060002090601f016020900481019282601f106106345782800160ff19823516178555610661565b82800160010185558215610661579182015b82811115610661578235825591602001919060010190610646565b5061066d929150610671565b5090565b5b8082111561066d5760008155600101610672565b60008083601f840112610697578182fd5b50813567ffffffffffffffff8111156106ae578182fd5b60208301915083602080830285010111156106c857600080fd5b9250929050565b6000602082840312156106e0578081fd5b81356001600160a01b03811681146106f6578182fd5b9392505050565b60008060008060408587031215610712578283fd5b843567ffffffffffffffff80821115610729578485fd5b61073588838901610686565b9096509450602087013591508082111561074d578384fd5b5061075a87828801610686565b95989497509550505050565b60008060408385031215610778578182fd5b8251610783816109b3565b6020840151909250610794816109b3565b809150509250929050565b600081546001808216600081146107bd57600181146107d457610806565b60ff198316865260028304607f1686019350610806565b600283048560005260208060002060005b838110156107fe5781548a8201529085019082016107e5565b505050860193505b50505092915050565b60008451610821818460208901610987565b6108366108308285018761079f565b8561079f565b9695505050505050565b6001600160a01b0391909116815260200190565b90815260200190565b600060208252825180602084015261087c816040850160208701610987565b601f01601f19169190910160400192915050565b60208082526026908201527f4f776e61626c653a206e6577206f776e657220697320746865207a65726f206160408201526564647265737360d01b606082015260800190565b6020808252818101527f4f776e61626c653a2063616c6c6572206973206e6f7420746865206f776e6572604082015260600190565b6020808252601a908201527f494e434f4e53495354454e545f504152414d535f4c454e475448000000000000604082015260600190565b6000808335601e19843603018112610958578283fd5b83018035915067ffffffffffffffff821115610972578283fd5b6020019150368190038213156106c857600080fd5b60005b838110156109a257818101518382015260200161098a565b838111156102085750506000910152565b6001600160801b03811681146109c857600080fd5b5056fea2646970667358221220bb72db0ed6a637fcdc7f71dee153f86591425638e44807c7df2a608bd9b1f11d64736f6c634300060c0033",
  "linkReferences": {},
  "deployedLinkReferences": {}
}