{
  "_format": "hh-sol-artifact-1",
  "contractName": "StakeUIHelper",
  "sourceName": "contracts/misc/StakeUIHelper.sol",
  "abi": [
    {
      "inputs": [
        {
          "internalType": "address",
          "name": "priceOracle",
          "type": "address"
        },
        {
          "internalType": "address",
          "name": "lay",
          "type": "address"
        },
        {
          "internalType": "address",
          "name": "stkLay",
          "type": "address"
        },
        {
          "internalType": "address",
          "name": "mockUsd",
          "type": "address"
        }
      ],
      "stateMutability": "nonpayable",
      "type": "constructor"
    },
    {
      "inputs": [],
      "name": "LAY",
      "outputs": [
        {
          "internalType": "address",
          "name": "",
          "type": "address"
        }
      ],
      "stateMutability": "view",
      "type": "function"
    },
    {
      "inputs": [],
      "name": "MOCK_USD_ADDRESS",
      "outputs": [
        {
          "internalType": "address",
          "name": "",
          "type": "address"
        }
      ],
      "stateMutability": "view",
      "type": "function"
    },
    {
      "inputs": [],
      "name": "PRICE_ORACLE",
      "outputs": [
        {
          "internalType": "contract IPriceOracleGetter",
          "name": "",
          "type": "address"
        }
      ],
      "stateMutability": "view",
      "type": "function"
    },
    {
      "inputs": [],
      "name": "STAKED_LAY",
      "outputs": [
        {
          "internalType": "contract IStakedToken",
          "name": "",
          "type": "address"
        }
      ],
      "stateMutability": "view",
      "type": "function"
    },
    {
      "inputs": [],
      "name": "getGeneralStakeUIData",
      "outputs": [
        {
          "components": [
            {
              "internalType": "uint256",
              "name": "stakeTokenTotalSupply",
              "type": "uint256"
            },
            {
              "internalType": "uint256",
              "name": "stakeCooldownSeconds",
              "type": "uint256"
            },
            {
              "internalType": "uint256",
              "name": "stakeUnstakeWindow",
              "type": "uint256"
            },
            {
              "internalType": "uint256",
              "name": "stakeTokenPriceEth",
              "type": "uint256"
            },
            {
              "internalType": "uint256",
              "name": "rewardTokenPriceEth",
              "type": "uint256"
            },
            {
              "internalType": "uint256",
              "name": "stakeApy",
              "type": "uint256"
            },
            {
              "internalType": "uint128",
              "name": "distributionPerSecond",
              "type": "uint128"
            },
            {
              "internalType": "uint256",
              "name": "distributionEnd",
              "type": "uint256"
            }
          ],
          "internalType": "struct StakeUIHelperI.GeneralStakeUIData",
          "name": "",
          "type": "tuple"
        },
        {
          "internalType": "uint256",
          "name": "",
          "type": "uint256"
        }
      ],
      "stateMutability": "view",
      "type": "function"
    },
    {
      "inputs": [],
      "name": "getStkGeneralLayData",
      "outputs": [
        {
          "components": [
            {
              "internalType": "uint256",
              "name": "stakeTokenTotalSupply",
              "type": "uint256"
            },
            {
              "internalType": "uint256",
              "name": "stakeCooldownSeconds",
              "type": "uint256"
            },
            {
              "internalType": "uint256",
              "name": "stakeUnstakeWindow",
              "type": "uint256"
            },
            {
              "internalType": "uint256",
              "name": "stakeTokenPriceEth",
              "type": "uint256"
            },
            {
              "internalType": "uint256",
              "name": "rewardTokenPriceEth",
              "type": "uint256"
            },
            {
              "internalType": "uint256",
              "name": "stakeApy",
              "type": "uint256"
            },
            {
              "internalType": "uint128",
              "name": "distributionPerSecond",
              "type": "uint128"
            },
            {
              "internalType": "uint256",
              "name": "distributionEnd",
              "type": "uint256"
            }
          ],
          "internalType": "struct StakeUIHelperI.GeneralStakeUIData",
          "name": "",
          "type": "tuple"
        }
      ],
      "stateMutability": "view",
      "type": "function"
    },
    {
      "inputs": [
        {
          "internalType": "address",
          "name": "user",
          "type": "address"
        }
      ],
      "name": "getStkLayData",
      "outputs": [
        {
          "components": [
            {
              "internalType": "uint256",
              "name": "stakeTokenTotalSupply",
              "type": "uint256"
            },
            {
              "internalType": "uint256",
              "name": "stakeCooldownSeconds",
              "type": "uint256"
            },
            {
              "internalType": "uint256",
              "name": "stakeUnstakeWindow",
              "type": "uint256"
            },
            {
              "internalType": "uint256",
              "name": "stakeTokenPriceEth",
              "type": "uint256"
            },
            {
              "internalType": "uint256",
              "name": "rewardTokenPriceEth",
              "type": "uint256"
            },
            {
              "internalType": "uint256",
              "name": "stakeApy",
              "type": "uint256"
            },
            {
              "internalType": "uint128",
              "name": "distributionPerSecond",
              "type": "uint128"
            },
            {
              "internalType": "uint256",
              "name": "distributionEnd",
              "type": "uint256"
            },
            {
              "internalType": "uint256",
              "name": "stakeTokenUserBalance",
              "type": "uint256"
            },
            {
              "internalType": "uint256",
              "name": "underlyingTokenUserBalance",
              "type": "uint256"
            },
            {
              "internalType": "uint256",
              "name": "userCooldown",
              "type": "uint256"
            },
            {
              "internalType": "uint256",
              "name": "userIncentivesToClaim",
              "type": "uint256"
            },
            {
              "internalType": "uint256",
              "name": "userPermitNonce",
              "type": "uint256"
            }
          ],
          "internalType": "struct StakeUIHelperI.AssetUIData",
          "name": "",
          "type": "tuple"
        }
      ],
      "stateMutability": "view",
      "type": "function"
    },
    {
      "inputs": [
        {
          "internalType": "address",
          "name": "user",
          "type": "address"
        }
      ],
      "name": "getStkUserLayData",
      "outputs": [
        {
          "components": [
            {
              "internalType": "uint256",
              "name": "stakeTokenUserBalance",
              "type": "uint256"
            },
            {
              "internalType": "uint256",
              "name": "underlyingTokenUserBalance",
              "type": "uint256"
            },
            {
              "internalType": "uint256",
              "name": "userCooldown",
              "type": "uint256"
            },
            {
              "internalType": "uint256",
              "name": "userIncentivesToClaim",
              "type": "uint256"
            },
            {
              "internalType": "uint256",
              "name": "userPermitNonce",
              "type": "uint256"
            }
          ],
          "internalType": "struct StakeUIHelperI.UserStakeUIData",
          "name": "",
          "type": "tuple"
        }
      ],
      "stateMutability": "view",
      "type": "function"
    },
    {
      "inputs": [
        {
          "internalType": "address",
          "name": "user",
          "type": "address"
        }
      ],
      "name": "getUserStakeUIData",
      "outputs": [
        {
          "components": [
            {
              "internalType": "uint256",
              "name": "stakeTokenUserBalance",
              "type": "uint256"
            },
            {
              "internalType": "uint256",
              "name": "underlyingTokenUserBalance",
              "type": "uint256"
            },
            {
              "internalType": "uint256",
              "name": "userCooldown",
              "type": "uint256"
            },
            {
              "internalType": "uint256",
              "name": "userIncentivesToClaim",
              "type": "uint256"
            },
            {
              "internalType": "uint256",
              "name": "userPermitNonce",
              "type": "uint256"
            }
          ],
          "internalType": "struct StakeUIHelperI.UserStakeUIData",
          "name": "",
          "type": "tuple"
        },
        {
          "internalType": "uint256",
          "name": "",
          "type": "uint256"
        }
      ],
      "stateMutability": "view",
      "type": "function"
    },
    {
      "inputs": [
        {
          "internalType": "address",
          "name": "user",
          "type": "address"
        }
      ],
      "name": "getUserUIData",
      "outputs": [
        {
          "components": [
            {
              "internalType": "uint256",
              "name": "stakeTokenTotalSupply",
              "type": "uint256"
            },
            {
              "internalType": "uint256",
              "name": "stakeCooldownSeconds",
              "type": "uint256"
            },
            {
              "internalType": "uint256",
              "name": "stakeUnstakeWindow",
              "type": "uint256"
            },
            {
              "internalType": "uint256",
              "name": "stakeTokenPriceEth",
              "type": "uint256"
            },
            {
              "internalType": "uint256",
              "name": "rewardTokenPriceEth",
              "type": "uint256"
            },
            {
              "internalType": "uint256",
              "name": "stakeApy",
              "type": "uint256"
            },
            {
              "internalType": "uint128",
              "name": "distributionPerSecond",
              "type": "uint128"
            },
            {
              "internalType": "uint256",
              "name": "distributionEnd",
              "type": "uint256"
            },
            {
              "internalType": "uint256",
              "name": "stakeTokenUserBalance",
              "type": "uint256"
            },
            {
              "internalType": "uint256",
              "name": "underlyingTokenUserBalance",
              "type": "uint256"
            },
            {
              "internalType": "uint256",
              "name": "userCooldown",
              "type": "uint256"
            },
            {
              "internalType": "uint256",
              "name": "userIncentivesToClaim",
              "type": "uint256"
            },
            {
              "internalType": "uint256",
              "name": "userPermitNonce",
              "type": "uint256"
            }
          ],
          "internalType": "struct StakeUIHelperI.AssetUIData",
          "name": "",
          "type": "tuple"
        },
        {
          "internalType": "uint256",
          "name": "",
          "type": "uint256"
        }
      ],
      "stateMutability": "view",
      "type": "function"
    }
  ],
  "bytecode": "0x6101006040523480156200001257600080fd5b50604051620012ca380380620012ca833981016040819052620000359162000130565b6001600160a01b038416620000675760405162461bcd60e51b81526004016200005e90620001c7565b60405180910390fd5b6001600160a01b038316620000905760405162461bcd60e51b81526004016200005e9062000190565b6001600160a01b038216620000b95760405162461bcd60e51b81526004016200005e906200020a565b6001600160a01b038116620000e25760405162461bcd60e51b81526004016200005e9062000241565b6001600160601b0319606094851b811660805292841b831660c05290831b821660e05290911b1660a05262000278565b80516001600160a01b03811681146200012a57600080fd5b92915050565b6000806000806080858703121562000146578384fd5b62000152868662000112565b935062000163866020870162000112565b925062000174866040870162000112565b915062000185866060870162000112565b905092959194509250565b6020808252601b908201527f6c617920616464726573732063616e6e6f7420626520656d7074790000000000604082015260600190565b60208082526023908201527f70726963654f7261636c6520616464726573732063616e6e6f7420626520656d60408201526270747960e81b606082015260800190565b6020808252601e908201527f73746b4c617920616464726573732063616e6e6f7420626520656d7074790000604082015260600190565b6020808252601f908201527f6d6f636b55736420616464726573732063616e6e6f7420626520656d70747900604082015260600190565b60805160601c60a05160601c60c05160601c60e05160601c610fd9620002f16000398061019b528061031552806103a6528061052b52508061033652806103c752806103f7528061072052508061026c528061047052806105075250806101f4528061023f528061044352806106f35250610fd96000f3fe608060405234801561001057600080fd5b506004361061009e5760003560e01c8063809f4c3d11610066578063809f4c3d1461012c578063b0c2bb3a14610134578063b8c0a5b114610155578063e10e0dc61461015d578063f48ba8c2146101655761009e565b806308e12ea3146100a35780630a19399a146100c15780632aa8364a146100d65780632c42e50f146100ec5780633e9a64711461010c575b600080fd5b6100ab610186565b6040516100b89190610f36565b60405180910390f35b6100c96101f2565b6040516100b89190610ef6565b6100de610216565b6040516100b8929190610f45565b6100ff6100fa366004610d32565b610300565b6040516100b89190610f0a565b61011f61011a366004610d32565b610391565b6040516100b89190610f62565b6100c96103f5565b610147610142366004610d32565b610419565b6040516100b8929190610f70565b6100c9610505565b6100c9610529565b610178610173366004610d32565b61054d565b6040516100b8929190610f19565b61018e610c44565b610196610c44565b6101bf7f0000000000000000000000000000000000000000000000000000000000000000610560565b6080810151606082015260c081015181519192506101e8916001600160801b03909116906108b2565b60a0820152905090565b7f000000000000000000000000000000000000000000000000000000000000000081565b61021e610c44565b6000610228610186565b60405163b3596f0760e01b81526001600160a01b037f0000000000000000000000000000000000000000000000000000000000000000169063b3596f0790610294907f000000000000000000000000000000000000000000000000000000000000000090600401610ef6565b60206040518083038186803b1580156102ac57600080fd5b505afa1580156102c0573d6000803e3d6000fd5b505050506040513d601f19601f820116820180604052508101906102e49190610dbf565b6a52b7d2dcc80cd2e4000000816102f757fe5b04915091509091565b610308610c92565b610310610c92565b61035d7f00000000000000000000000000000000000000000000000000000000000000007f00000000000000000000000000000000000000000000000000000000000000008560016108d9565b6080810151606082015260c08101518151919250610386916001600160801b03909116906108b2565b60a082015292915050565b610399610d03565b6103a1610d03565b6103ee7f00000000000000000000000000000000000000000000000000000000000000007f000000000000000000000000000000000000000000000000000000000000000085600161099d565b9392505050565b7f000000000000000000000000000000000000000000000000000000000000000081565b610421610d03565b600061042c83610391565b60405163b3596f0760e01b81526001600160a01b037f0000000000000000000000000000000000000000000000000000000000000000169063b3596f0790610498907f000000000000000000000000000000000000000000000000000000000000000090600401610ef6565b60206040518083038186803b1580156104b057600080fd5b505afa1580156104c4573d6000803e3d6000fd5b505050506040513d601f19601f820116820180604052508101906104e89190610dbf565b6a52b7d2dcc80cd2e4000000816104fb57fe5b0491509150915091565b7f000000000000000000000000000000000000000000000000000000000000000081565b7f000000000000000000000000000000000000000000000000000000000000000081565b610555610c92565b600061042c83610300565b610568610c44565b610570610c44565b826001600160a01b03166318160ddd6040518163ffffffff1660e01b815260040160206040518083038186803b1580156105a957600080fd5b505afa1580156105bd573d6000803e3d6000fd5b505050506040513d601f19601f820116820180604052508101906105e19190610dbf565b816000018181525050826001600160a01b03166372b49d636040518163ffffffff1660e01b815260040160206040518083038186803b15801561062357600080fd5b505afa158015610637573d6000803e3d6000fd5b505050506040513d601f19601f8201168201806040525081019061065b9190610dbf565b816020018181525050826001600160a01b031663359c4a966040518163ffffffff1660e01b815260040160206040518083038186803b15801561069d57600080fd5b505afa1580156106b1573d6000803e3d6000fd5b505050506040513d601f19601f820116820180604052508101906106d59190610dbf565b6040808301919091525163b3596f0760e01b81526001600160a01b037f0000000000000000000000000000000000000000000000000000000000000000169063b3596f0790610748907f000000000000000000000000000000000000000000000000000000000000000090600401610ef6565b60206040518083038186803b15801561076057600080fd5b505afa158015610774573d6000803e3d6000fd5b505050506040513d601f19601f820116820180604052508101906107989190610dbf565b816080018181525050826001600160a01b031663919cd40f6040518163ffffffff1660e01b815260040160206040518083038186803b1580156107da57600080fd5b505afa1580156107ee573d6000803e3d6000fd5b505050506040513d601f19601f820116820180604052508101906108129190610dbf565b60e082018190524210156108ac57604051631e23703160e31b81526001600160a01b0384169063f11b81889061084c908690600401610ef6565b60606040518083038186803b15801561086457600080fd5b505afa158015610878573d6000803e3d6000fd5b505050506040513d601f19601f8201168201806040525081019061089c9190610d59565b516001600160801b031660c08201525b92915050565b6000816108c1575060006108ac565b8164496cebb8008402816108d157fe5b049392505050565b6108e1610c92565b6108e9610c92565b6108f1610c44565b6108fa87610560565b8051835260208082015190840152604080820151908401526080808201519084015260e0808201519084015260c0808201516001600160801b03169084015290506001600160a01b0385161561099357610952610d03565b61095e8888888861099d565b602081015161012085015280516101008501526060810151610160850152604081015161014085015260800151610180840152505b5095945050505050565b6109a5610d03565b6109ad610d03565b6040516370a0823160e01b81526001600160a01b038616906370a08231906109d9908790600401610ef6565b60206040518083038186803b1580156109f157600080fd5b505afa158015610a05573d6000803e3d6000fd5b505050506040513d601f19601f82011682018060405250810190610a299190610dbf565b60208201526040516370a0823160e01b81526001600160a01b038716906370a0823190610a5a908790600401610ef6565b60206040518083038186803b158015610a7257600080fd5b505afa158015610a86573d6000803e3d6000fd5b505050506040513d601f19601f82011682018060405250810190610aaa9190610dbf565b81526040516346df7f7160e11b81526001600160a01b03871690638dbefee290610ad8908790600401610ef6565b60206040518083038186803b158015610af057600080fd5b505afa158015610b04573d6000803e3d6000fd5b505050506040513d601f19601f82011682018060405250810190610b289190610dbf565b606082015260405163091030c360e01b81526001600160a01b0387169063091030c390610b59908790600401610ef6565b60206040518083038186803b158015610b7157600080fd5b505afa158015610b85573d6000803e3d6000fd5b505050506040513d601f19601f82011682018060405250810190610ba99190610dbf565b604082015282610bba576000610c36565b60405163b9844d8d60e01b81526001600160a01b0386169063b9844d8d90610be6908790600401610ef6565b60206040518083038186803b158015610bfe57600080fd5b505afa158015610c12573d6000803e3d6000fd5b505050506040513d601f19601f82011682018060405250810190610c369190610dbf565b608082015295945050505050565b60405180610100016040528060008152602001600081526020016000815260200160008152602001600081526020016000815260200160006001600160801b03168152602001600081525090565b604051806101a0016040528060008152602001600081526020016000815260200160008152602001600081526020016000815260200160006001600160801b031681526020016000815260200160008152602001600081526020016000815260200160008152602001600081525090565b6040518060a0016040528060008152602001600081526020016000815260200160008152602001600081525090565b600060208284031215610d43578081fd5b81356001600160a01b03811681146103ee578182fd5b600060608284031215610d6a578081fd5b6040516060810181811067ffffffffffffffff82111715610d89578283fd5b6040528251610d9781610f8b565b81526020830151610da781610f8b565b60208201526040928301519281019290925250919050565b600060208284031215610dd0578081fd5b5051919050565b805182526020810151602083015260408101516040830152606081015160608301526080810151608083015260a081015160a083015260c0810151610e1f60c0840182610ee9565b5060e08181015190830152610100808201519083015261012080820151908301526101408082015190830152610160808201519083015261018090810151910152565b805182526020810151602083015260408101516040830152606081015160608301526080810151608083015260a081015160a08301526001600160801b0360c08201511660c083015260e081015160e08301525050565b80518252602081015160208301526040810151604083015260608101516060830152608081015160808301525050565b6001600160801b03169052565b6001600160a01b0391909116815260200190565b6101a081016108ac8284610dd7565b6101c08101610f288285610dd7565b826101a08301529392505050565b61010081016108ac8284610e62565b6101208101610f548285610e62565b826101008301529392505050565b60a081016108ac8284610eb9565b60c08101610f7e8285610eb9565b8260a08301529392505050565b6001600160801b0381168114610fa057600080fd5b5056fea264697066735822122059c2de9ff5d12ddbfcfb207d5d62b8b2b63697bc95ef2bbe0d1c6de8ef24bd1664736f6c634300060c0033",
  "linkReferences": {},
  "deployedLinkReferences": {}
}