{
  "_format": "hh-sol-artifact-1",
  "contractName": "MockAggregatorDIA",
  "sourceName": "contracts/mocks/oracle/CLAggregators/MockAggregatorDIA.sol",
  "abi": [
    {
      "inputs": [
        {
          "internalType": "string[]",
          "name": "currencyPairs",
          "type": "string[]"
        },
        {
          "internalType": "int256[]",
          "name": "prices",
          "type": "int256[]"
        }
      ],
      "stateMutability": "nonpayable",
      "type": "constructor"
    },
    {
      "anonymous": false,
      "inputs": [
        {
          "indexed": false,
          "internalType": "address[]",
          "name": "assets",
          "type": "address[]"
        },
        {
          "indexed": true,
          "internalType": "int256[]",
          "name": "prices",
          "type": "int256[]"
        }
      ],
      "name": "AnswerUpdated",
      "type": "event"
    },
    {
      "inputs": [
        {
          "internalType": "string",
          "name": "",
          "type": "string"
        }
      ],
      "name": "_prices",
      "outputs": [
        {
          "internalType": "int256",
          "name": "",
          "type": "int256"
        }
      ],
      "stateMutability": "view",
      "type": "function"
    },
    {
      "inputs": [
        {
          "internalType": "string",
          "name": "key",
          "type": "string"
        }
      ],
      "name": "getValue",
      "outputs": [
        {
          "internalType": "uint128",
          "name": "",
          "type": "uint128"
        },
        {
          "internalType": "uint128",
          "name": "",
          "type": "uint128"
        }
      ],
      "stateMutability": "view",
      "type": "function"
    }
  ],
  "bytecode": "0x608060405234801561001057600080fd5b506040516104cb3803806104cb83398101604081905261002f9161010e565b805182511461003d57600080fd5b60005b82518110156100985781818151811061005557fe5b6020026020010151600084838151811061006b57fe5b602002602001015160405161008091906101f7565b90815260405190819003602001902055600101610040565b5050506102ab565b600082601f8301126100b0578081fd5b81516100c36100be82610239565b610213565b8181529150602080830190848101818402860182018710156100e457600080fd5b60005b84811015610103578151845292820192908201906001016100e7565b505050505092915050565b6000806040808486031215610121578283fd5b83516001600160401b0380821115610137578485fd5b818601915086601f83011261014a578485fd5b81516101586100be82610239565b81815260208082019190858101895b858110156101c757815188018d603f820112610181578b8cfd5b838101516101916100be82610258565b8181528f8c8385010111156101a4578d8efd5b6101b3828783018e860161027b565b875250509382019390820190600101610167565b505089015190975094505050808311156101df578384fd5b50506101ed858286016100a0565b9150509250929050565b6000825161020981846020870161027b565b9190910192915050565b6040518181016001600160401b038111828210171561023157600080fd5b604052919050565b60006001600160401b0382111561024e578081fd5b5060209081020190565b60006001600160401b0382111561026d578081fd5b50601f01601f191660200190565b60005b8381101561029657818101518382015260200161027e565b838111156102a5576000848401525b50505050565b610211806102ba6000396000f3fe608060405234801561001057600080fd5b50600436106100365760003560e01c8063960384a01461003b578063ecb7db4614610065575b600080fd5b61004e6100493660046100cf565b610085565b60405161005c9291906101ac565b60405180910390f35b6100786100733660046100cf565b6100b2565b60405161005c91906101a3565b600080600083604051610098919061016a565b908152602001604051809103902054600091509150915091565b805160208183018101805160008252928201919093012091525481565b6000602082840312156100e0578081fd5b813567ffffffffffffffff808211156100f7578283fd5b818401915084601f83011261010a578283fd5b813581811115610118578384fd5b604051601f8201601f191681016020018381118282101715610138578586fd5b60405281815283820160200187101561014f578485fd5b6101608260208301602087016101cf565b9695505050505050565b60008251815b8181101561018a5760208186018101518583015201610170565b818111156101985782828501525b509190910192915050565b90815260200190565b6fffffffffffffffffffffffffffffffff92831681529116602082015260400190565b8281833750600091015256fea2646970667358221220acffabc610b9c3bd4d762c0281e20249f1a9f6b7f4335d4273113b1a59fb885864736f6c634300060c0033",
  "linkReferences": {},
  "deployedLinkReferences": {}
}