{
  "_format": "hh-sol-artifact-1",
  "contractName": "MockAggregator",
  "sourceName": "contracts/mocks/oracle/CLAggregators/MockAggregator.sol",
  "abi": [
    {
      "inputs": [
        {
          "internalType": "address[]",
          "name": "assets",
          "type": "address[]"
        },
        {
          "internalType": "int256[]",
          "name": "prices",
          "type": "int256[]"
        }
      ],
      "stateMutability": "nonpayable",
      "type": "constructor"
    },
    {
      "anonymous": false,
      "inputs": [
        {
          "indexed": false,
          "internalType": "address[]",
          "name": "assets",
          "type": "address[]"
        },
        {
          "indexed": true,
          "internalType": "int256[]",
          "name": "prices",
          "type": "int256[]"
        }
      ],
      "name": "AnswerUpdated",
      "type": "event"
    },
    {
      "inputs": [
        {
          "internalType": "address",
          "name": "asset",
          "type": "address"
        }
      ],
      "name": "currentPrice",
      "outputs": [
        {
          "internalType": "int256",
          "name": "",
          "type": "int256"
        }
      ],
      "stateMutability": "view",
      "type": "function"
    }
  ],
  "bytecode": "0x608060405234801561001057600080fd5b506040516102623803806102628339818101604052604081101561003357600080fd5b810190808051604051939291908464010000000082111561005357600080fd5b90830190602082018581111561006857600080fd5b825186602082028301116401000000008211171561008557600080fd5b82525081516020918201928201910280838360005b838110156100b257818101518382015260200161009a565b50505050905001604052602001805160405193929190846401000000008211156100db57600080fd5b9083019060208201858111156100f057600080fd5b825186602082028301116401000000008211171561010d57600080fd5b82525081516020918201928201910280838360005b8381101561013a578181015183820152602001610122565b50505050905001604052505050805182511461015557600080fd5b60005b825181101561019e57600160008085848151811061017257fe5b6020908102919091018101516001600160a01b0316825281019190915260400160002055600101610158565b50505060b3806101af6000396000f3fe6080604052348015600f57600080fd5b506004361060285760003560e01c8063e9833c2f14602d575b600080fd5b605060048036036020811015604157600080fd5b50356001600160a01b03166062565b60408051918252519081900360200190f35b6001600160a01b03166000908152602081905260409020549056fea264697066735822122096b17f9659a033811d2fcbc6605e78f74404c4e272ae6c351b1fc9283d3e8b0e64736f6c634300060c0033",
  "linkReferences": {},
  "deployedLinkReferences": {}
}